:020000040801F1
:100000000000022091C5010821200108FD1F010800
:1000100045200108692001088D200108000000002A
:1000200000000000000000000000000039CD0108C1
:10003000F1C501080000000025CF010881CF0108AB
:10004000F1C50108F1C50108F1C50108F1C50108B4
:10005000F1C50108F1C50108155C0108235C010820
:10006000315C01083F5C01084D5C0108390202085F
:1000700081020208C902020811030208590302089A
:10008000A1030208E903020869580108F1C5010843
:10009000F9580108F1C50108F1C501085B5C0108C8
:1000A000F1C50108F1C50108F1C50108F1C5010854
:1000B000F1C50108790902088D0902089570010847
:1000C000A37001087970010887700108F1C5010863
:1000D000F1C50108518C0108278C0108198C010811
:1000E000815C0108F1C50108F1C50108F1C50108ED
:1000F00065090208F1C50108F1C5010831040208CB
:10010000F1C50108F1C5010851090208F1C501084E
:10011000F1C50108358C0108A1090208B97C010864
:1001200079040208C1040208090502085105020801
:1001300099050208F1C50108F1C50108F1C50108DA
:10014000F1C50108F1C50108F1C50108F1C50108B3
:10015000E10502082906020871060208438C01081D
:10016000B1700108BF700108F1C50108F1C50108AF
:10017000F1C50108F1C50108F1C50108F1C5010883
:10018000F1C50108F1C50108EFBEADDE10B5054CA3
:10019000237833B9044B13B10448AFF30080012333
:1001A000237010BDA40A002000000000042C0308E6
:1001B000084B10B51BB108490848AFF30080084848
:1001C000036803B910BD074B002BFBD0BDE81040FE
:1001D000184700BF00000000A80A0020042C0308F4
:1001E000A00A00200000000070B50F4E0F4D761BD6
:1001F000B61018BF002405D0013455F8043B9847C9
:10020000A642F9D10A4E0B4D761B1CF07DFBB610B1
:1002100018BF002406D0013455F8043B9847A64285
:10022000F9D170BD70BD00BF5C0A00205C0A0020DF
:100230009C0A00205C0A002070B4840746D0541E3B
:10024000002A41D0CDB2034602E0621EE4B3144658
:1002500003F8015B9A07F8D1032C2ED9CDB245EAF9
:1002600005250F2C45EA054519D903F1100226464C
:10027000103E0F2E42F8105C42F80C5C42F8085C0D
:1002800042F8045C02F11002F2D8A4F1100222F04C
:100290000F0204F00F041032032C13440DD91E4634
:1002A0002246043A032A46F8045BFAD8221F22F0B9
:1002B00003020432134404F003042CB1C9B21C44F9
:1002C00003F8011BA342FBD170BC704714460346E0
:1002D000C2E700BF024B13B1024800F005B87047F7
:1002E00000000000F5020108002301461A461846E6
:1002F00000F014B838B5074D074C2C1BA41005D0DE
:10030000013C55F8043D9847002CF9D1BDE8384030
:100310001CF000BBA00A00209C0A00202DE9F04739
:10032000254C2568D5F848410646884692469946A8
:10033000C4B360681F2817DC431C76B104EB80054A
:100340000122C5F888A0D4F8881182401143022EFA
:10035000C4F88811C5F808911ED00230636044F8D3
:1003600020800020BDE8F087144B03B34FF4C87021
:100370001AF040FB0446D0B1D5F84831002780E898
:100380008800C5F8484138460123C4F88871C4F88C
:100390008C71002EE1D0D1E7D4F88C110A43C4F857
:1003A0008C21DAE705F5A674C5F84841C1E74FF09E
:1003B000FF30BDE8F08700BF20C90208F5A9020898
:1003C00080B485B000AFF860B9607A603B607B684C
:1003D00018461437BD465DF8047B704780B485B07D
:1003E00000AFF860B9607A603B60002318461437AC
:1003F000BD465DF8047B704780B582B000AF1548FC
:1004000002F0F9FA0346002B14BF01230023DBB2EC
:10041000002BF4D00F4801F0C9F80346FB71FB79BB
:10042000702B05D10C4B4FF4FA71184608F008FEFA
:10043000FB797A2B04D1084B0021184608F000FE06
:10044000FB79742BDBD1044B0449184608F0F8FD06
:10045000D5E700BF0C0F00202C0D00200CFEFFFF85
:1004600080B483B000AF78607B6818460C37BD4617
:100470005DF8047B704780B483B000AF78607B6820
:1004800018460C37BD465DF8047B704780B483B0D6
:1004900000AF78607B6800229A607B6818460C3752
:1004A000BD465DF8047B704780B582B000AF7860D0
:1004B0007B689B68002B05D07B689B6878687968AF
:1004C000032298477B6818460837BD4680BD80B533
:1004D00082B000AF78607B681846FFF7E5FF7B6865
:1004E00018460837BD4680BD80B483B000AF786041
:1004F0007B6818460C37BD465DF8047B704780B5B5
:1005000082B000AF78607868FFF7AAFF034618460C
:100510000837BD4680BD80B400AF1846BD465DF8C3
:10052000047B704780B483B000AF786039603B686B
:1005300018460C37BD465DF8047B704780B483B025
:1005400000AF78607B6818460C37BD465DF8047BC9
:100550007047000080B582B000AF7860394802F083
:1005600037F8394802F034F8384802F031F83548A5
:1005700002F04BF8344802F048F8344802F045F8ED
:1005800007F0AEFB324802F068F8324803F0E6F9B3
:10059000314803F005FD314803F0E0F92F4803F03E
:1005A0008FFA00F0D9F82E4803F0D8F92C4803F060
:1005B00087FA00212A4803F023FB08F059FF294B52
:1005C000184608F02FFD284B184608F02BFD274B46
:1005D000184608F027FD264B184608F023FD08F0C2
:1005E00053FF244802F090FD234802F08DFD23487C
:1005F00002F08AFD224802F087FD224802F084FDC5
:10060000214802F081FD02F061F8204802F0A6F8CE
:1006100004F058FE1E4804F039FB1E4804F036FB77
:100620001D4804F0ABFBC32009F03AFE01210C4841
:1006300003F0E6FA052009F033FE00BF0837BD4697
:1006400080BD00BFF40E0020FC0E0020040F00202F
:10065000E00A0020C80A0020C40A0020D00A0020B6
:10066000D80A00202C0D0020300D0020340D002071
:10067000380D0020F40A00205C0B0020C40B002081
:100680002C0C0020940C0020E00C0020CC0D00204D
:100690004C0D00207C0D0020AC0D002080B582B0F8
:1006A00000AF786078681AF0A5F903461846083755
:1006B000BD4680BD80B582B000AF786078681AF022
:1006C000A1F90837BD4680BD80B582B000AF786023
:1006D0000CF0CEFB084B1B68002B01D10DF0A0FCE9
:1006E000054B1B680133044A13600CF0EBFB00BFA1
:1006F0000837BD4680BD00BFE40A002080B582B047
:1007000000AF7860074B1B68013B064A1360054B3E
:100710001B68002B01D10DF091FC00BF0837BD46CE
:1007200080BD00BFE40A002080B582B000AF7860D1
:1007300078681AF05FF9034618460837BD4680BD51
:1007400080B582B000AF786078681AF05BF900BFBE
:100750000837BD4680BD000080B500AF01210248CA
:1007600003F04EFA00BF80BDD00A002080B400AF75
:10077000034B044A1A6000BFBD465DF8047B704716
:100780003C0400200C0F002080B483B000AF7860E0
:100790007B68002B03D0064A7B68136002E0044BA1
:1007A000044A1A6000BF0C37BD465DF8047B7047F1
:1007B000380400203404002080B582B000AF786097
:1007C0003960074B1B681B6808331B68044A1068B4
:1007D0003A6879689847034618460837BD4680BD91
:1007E000380400200FB480B582B000AF07F11403C5
:1007F0007B607968386900F009F8034618460837C5
:10080000BD46BDE8804004B07047000080B582B0AE
:1008100000AF78603960074B1B681B6808331B68A2
:10082000044A10683A6879689847034618460837BA
:10083000BD4680BD3C0400200FB480B582B000AF3F
:1008400007F114037B607968386900F017F80346F4
:1008500018460837BD46BDE8804004B0704780B5F3
:1008600082B000AF03463960FB71FB79184607F090
:1008700043FD00BF0837BD4680BD000090B593B072
:1008800000AF7860396007F108033A687968184664
:1008900000F020FB104B7B6407F1440207F10803D2
:1008A0001146184600F09FF807F10803184600F0BB
:1008B00044FB044607F10803184600F02CFB2346CE
:1008C00006E007F10803184600F025FB11F0FAF9DD
:1008D00018464C37BD4690BD5F08010880B584B00E
:1008E00000AF78600023FB60FB687A6813441B78D4
:1008F000002B0AD0FB687A6813441B78184607F06F
:10090000FBFCFB680133FB60EEE700BF1037BD4620
:1009100080BD000080B400AF044B4AF6AA221A60E2
:1009200000BFBD465DF8047B704700BF003000404B
:1009300080B582B000AF0CF0E7FA00237B60462060
:1009400004F035FE7B6803F00103002B14BF012384
:100950000023DBB219460F4801F064FE7B6803F008
:100960000103002B0CBF01230023DBB219460A4808
:1009700001F058FE7B6803F00203002B14BF012333
:100980000023DBB21946054801F04CFE7B680133B9
:100990007B60D4E7F40E0020FC0E0020040F002042
:1009A00080B483B000AF78607B6818460C37BD46D2
:1009B0005DF8047B704780B483B000AF78607B68DB
:1009C00018460C37BD465DF8047B704780B582B091
:1009D00000AF78607B681846FFF766FD7B681846B5
:1009E0000837BD4680BD80B586B000AF78603960FD
:1009F0003868FFF7E0FF03461A6807F1080311465D
:100A0000184600F033F807F108037968184600F03B
:100A100061F807F108031846FFF7D8FF7B6818460E
:100A20001837BD4680BD80B483B000AF78607B6866
:100A300018460C37BD465DF8047B704780B582B020
:100A400000AF78607868FFF7EEFF7B6818460837DC
:100A5000BD4680BD80B483B000AF78607B68184627
:100A60000C37BD465DF8047B7047000090B583B03D
:100A700000AF786039607868FFF7E0FF7B68184660
:100A8000FFF704FD3B68184600F0A1F80346002B71
:100A90000FD07C683B461846FFF7DCFF034619463B
:100AA000204600F0A4F87B68084ADA607B68084AB0
:100AB0009A607B6805E07B681846FFF7F5FC11F04B
:100AC00001F918460C37BD4690BD00BF290C01083E
:100AD000610C010880B582B000AF786039607B6836
:100AE0003A681146184600F021F87B6803F10802C5
:100AF0003B6808331946104600F04AF87B6803F15A
:100B00000C023B680C331946104600F0EEF800BFAB
:100B10000837BD4680BD80B483B000AF78607B6885
:100B200018460C37BD465DF8047B704780B584B02D
:100B300000AF786039607868FFF7EDFF024607F193
:100B4000080392E8030083E803003868FFF7E3FF37
:100B500002467B6892E8030083E8030007F108037C
:100B60001846FFF7D8FF02463B6892E8030083E887
:100B7000030000BF1037BD4680BD80B483B000AF16
:100B800078607B6818460C37BD465DF8047B70477B
:100B900080B584B000AF786039607868FFF7EDFF0A
:100BA00003461B68FB603868FFF7E7FF03461A68D7
:100BB0007B681A6007F10C031846FFF7DEFF034657
:100BC0001A683B681A6000BF1037BD4680BD80B40C
:100BD00083B000AF78607B68002B14BF0123002333
:100BE000DBB218460C37BD465DF8047B704790B504
:100BF00085B000AF786039603868FFF72BFF034697
:100C000022461946786800F08FF800BF1437BD46B9
:100C100090BD80B483B000AF78607B6818460C3715
:100C2000BD465DF8047B7047B0B584B000AFF86096
:100C3000B9607A60F86800F092F803461C68B868FA
:100C4000FFF7E7FF03461D787868FFF7A9FE034624
:100C50001B6819462846A04700BF1037BD46B0BDE7
:100C6000B0B586B000AFF860B9601346FB71FB7990
:100C7000032B27D801A252F823F000BF8D0C0108E6
:100C80009B0C0108AF0C0108BB0C0108F868FFF7CA
:100C900036FC02460E4B136014E0F86800F070F862
:100CA0000446B86800F05BF8034623600AE02A4671
:100CB000B968F86800F070F804E02146F86800F0C0
:100CC00086F800BF002318461837BD46B0BD00BFE8
:100CD0005CC9020880B483B000AF78607B681846B6
:100CE0000C37BD465DF8047B704780B584B000AF1B
:100CF000786039607868FFF7EDFF03461B68FB609A
:100D00003868FFF7E7FF03461A687B681A6007F147
:100D10000C031846FFF7DEFF03461A683B681A60AB
:100D200000BF1037BD4680BD90B585B000AFF860FC
:100D3000B9603A71B868FFF78DFE03461C68F86821
:100D4000FFF78EFB034619460420FFF7EBFB034633
:100D5000002B00D01C6000BF1437BD4690BD80B58D
:100D600084B000AF7860786800F03DF8034618461C
:100D700000F045F8F860FB6818461037BD4680BDA6
:100D800080B582B000AF78607868FFF769FB0346F2
:100D900018460837BD4680BD90B585B000AFF860F5
:100DA000B9603A71B86800F01EF803461C68F8682C
:100DB000FFF756FB034619460420FFF7B3FB034633
:100DC000002B00D01C6000BF1437BD4690BD80B51D
:100DD00082B000AF78603970786800F01BF800BF0F
:100DE0000837BD4680BD80B582B000AF78607868B6
:100DF000FFF741FB034618460837BD4680BD80B467
:100E000083B000AF78607B6818460C37BD465DF84C
:100E1000047B704780B582B000AF78607868FFF7D8
:100E20001FFB034618460837BD4680BD80B582B01B
:100E300000AF786039607B68012B16D13B684FF6B4
:100E4000FF72934211D10B48FFF778FB61210A48EA
:100E500003F072F83721094802F018FE5B210848B8
:100E600002F014FE074801F0EDFB00BF0837BD4655
:100E700080BD00BFC00A0020C40A0020D00A0020A4
:100E8000D80A0020E00A002080B500AF4FF6FF71BD
:100E90000120FFF7CBFF80BD80B483B000AF786046
:100EA0007B689B68002B0CBF01230023DBB2184634
:100EB0000C37BD465DF8047B704780B582B000AF4B
:100EC00078607B681846FFF7EFFA7B6818460837AA
:100ED000BD4680BD80B584B000AFF860B9607A606F
:100EE000FB68184600F0E9F8FB681033184600F07C
:100EF000FFF8FB68BA681A62FB6800229A62FB6816
:100F00000022DA62FB6824337A681A60FB681846AC
:100F10001037BD4680BD80B582B000AF78607B6879
:100F200010331846FFF7C9FF7B681846FFF74EFDE0
:100F30007B6818460837BD4680BD80B584B000AFD9
:100F400078607B685B6ABB607B6800221A637B68A1
:100F50001B6ABA681946786800F098FE0346FB6081
:100F6000786800F005F8FB6818461037BD4680BD6C
:100F700080B582B000AF78607B689B6A002B1AD086
:100F80007B681B6B002B16D07B681033184600F073
:100F9000BFF80346002B0AD07B6803F110007B6882
:100FA000996A7B681A6B7B689B6B00F0D7F87B684B
:100FB00000221A6300E000BF0837BD4680BD0EB4B2
:100FC00080B585B000AF786007F12003FB60FB6857
:100FD000FA694FF0FF31786800F031F8034618469F
:100FE0001437BD46BDE8804003B0704780B485B07B
:100FF00000AFF8600B467A60FB72FB689B68B3F148
:10100000FF3F07D0FB681B681A68FB689B68013BC1
:101010009A420ED0FB685B681A68FB681B681B6805
:101020001344FA7A1A70FB681B681A6801321A6056
:1010300000E000BF1437BD465DF8047B704790B5F3
:1010400099B000AFF860B9607A603B6007F11803AF
:101050003A6879681846FFF73DFF00237B6107F186
:1010600014037B6507F10C03BB65BB68FB6507F1E7
:10107000540207F118031146184600F0A6F807F1CC
:1010800018031846FFF759FFFA687B6913440022DA
:101090001A707B691C4607F118031846FFF73BFFDF
:1010A000234606E007F118031846FFF734FF10F057
:1010B00009FE18466437BD4690BD80B582B000AFCA
:1010C00078607868FFF7BAFC7B681846FFF7DEF9AE
:1010D0007B6818460837BD4680BD80B483B000AF3A
:1010E00078607B6818460C37BD465DF8047B704716
:1010F00080B582B000AF78607868FFF7EEFF7B685C
:101100001846FFF7C3F97B6818460837BD4680BD0F
:1011100080B582B000AF78607B681846FFF7BCFEF0
:10112000034683F00103DBB218460837BD4680BD95
:1011300080B483B000AF78607B6818460C37BD463A
:101140005DF8047B704780B483B000AF78607B6843
:1011500018460C37BD465DF8047B70472DE9F04119
:1011600084B000AFF860B9607A603B60FB681846F5
:10117000FFF792FE0346002B01D010F059FFFB68E9
:10118000DC68FD6807F108031846FFF7D1FF064643
:101190003B1D1846FFF7D7FF80463B461846FFF732
:1011A000FFFB0346424631462846A0471037BD465E
:1011B000BDE8F08180B483B000AF78607B681846EA
:1011C0000C37BD465DF8047B704780B586B000AF34
:1011D000786039603868FFF7EDFF034607F10800D3
:1011E0000ECB00F01BF807F1080379681846FFF7EB
:1011F00071FC07F108031846FFF7E8FB7B68184607
:101200001837BD4680BD80B483B000AF78607B687E
:1012100018460C37BD465DF8047B704790B585B025
:1012200000AFF860384680E80E00F868FFF706FC6B
:10123000FB681846FFF72AF93B46184600F024F8E9
:101240000346002B0FD0FC683B461846FFF7DBFF38
:1012500003461946204600F022F8FB68084ADA6087
:10126000FB68084A9A60FB6805E0FB681846FFF7D0
:101270001BF910F027FD18461437BD4690BD00BF7E
:10128000C3120108FD12010880B483B000AF78607A
:10129000012318460C37BD465DF8047B704790B5B6
:1012A00085B000AF786039603868FFF7ACFF03465F
:1012B00022461946786800F05BF800BF1437BD4637
:1012C00090BDB0B584B000AFF860B9607A60F868DE
:1012D00000F06BF80546B868FFF79BFC03461C78E6
:1012E0007868FFF75DFB03461B681A4621462846CF
:1012F000FFF77CFE00BF1037BD46B0BDB0B586B06D
:1013000000AFF860B9601346FB71FB79032B27D857
:1013100001A252F823F000BF291301083713010876
:101320004B13010857130108F868FFF7E8F8024665
:101330000E4B136014E0F86800F046F80446B868F5
:1013400000F033F8034623600AE02A46B968F868DB
:1013500000F046F804E02146F86800F05FF800BFAE
:10136000002318461837BD46B0BD00BF9CC902080F
:10137000B0B584B000AFF860B9603A71B868FFF7F3
:1013800042FF05460C2010F003FB03461C46234693
:101390002A4607CA83E80700F86800F015F80346F4
:1013A0001C6000BF1037BD46B0BD80B584B000AF33
:1013B0007860786800F043F803461B68FB60FB68C0
:1013C00018461037BD4680BD80B582B000AF78604A
:1013D0007868FFF745F8034618460837BD4680BDD4
:1013E000B0B584B000AFF860B9603A71B86800F089
:1013F00026F803461D680C2010F0CAFA03461C4666
:1014000023462A4607CA83E80700F868FFF7DCFF8F
:1014100003461C6000BF1037BD46B0BD80B582B02A
:1014200000AF786039707868FFF7CEFF03461B681D
:1014300018460FF0E3FB00BF0837BD4680BD80B5FE
:1014400082B000AF78607868FFF715F80346184659
:101450000837BD4680BD80B582B000AF78607B683C
:101460001B6808331B687868984703461846083796
:10147000BD4680BD80B582B000AF786039607B68C2
:101480001B680C331B683968786898470346184610
:101490000837BD4680BD80B582B000AF7860396046
:1014A0007B683A681A604FF0FF313868FFF7E2FF57
:1014B0007B6818460837BD4680BD80B582B000AF56
:1014C00078607B681B681846FFF7C5FF7B68184685
:1014D0000837BD4680BD80B584B000AFF8600B46CC
:1014E0007A60FB72FB7A1946786800F049F800BF11
:1014F0001037BD4680BD000090B597B000AFF860D2
:10150000B9607A6007F14C031C491846FFF7C3FF26
:1015100007F110037A68B9681846FFF7DBFCFB682F
:10152000BB6407F1500207F110031146184600F0A2
:1015300063F807F110031846FFF7FFFC03467B65CD
:101540007C6D07F110031846FFF7E5FC07F14C032B
:101550001846FFF7B2FF23460CE007F110031846C8
:10156000FFF7D9FCFFE707F14C031846FFF7A5FF8B
:1015700010F0A8FB18465C37BD4690BDE80A002075
:1015800090B585B000AF78600B46FB707B681B6838
:101590001C68F91C4FF0FF3301227868A04703460E
:1015A000FB60FB6818461437BD4690BD90B585B00A
:1015B00000AF78607B681B6804331C6807F10B017F
:1015C0004FF0FF3301227868A0470346FB60FB68B9
:1015D000002B01DCFB6800E0FB7A18461437BD469F
:1015E00090BD80B483B000AF78607B6818460C373C
:1015F000BD465DF8047B704790B587B000AF78605A
:1016000039603868FFF7EDFF07F1080321461846F7
:1016100000F01CF807F1080379681846FFF75AFA3A
:1016200007F108031846FFF7D1F97B6818461C3705
:10163000BD4690BD80B483B000AF78607B6818462B
:101640000C37BD465DF8047B7047000090B583B051
:1016500000AF786039707868FFF7F0F97B6818465A
:10166000FEF714FF3B46184600F024F80346002B13
:101670000FD07C683B461846FFF7DCFF034619464F
:10168000204600F022F87B68084ADA607B68084A46
:101690009A607B6805E07B681846FEF705FF10F04E
:1016A00011FB18460C37BD4690BD00BFEF16010870
:1016B0002917010880B483B000AF78600123184671
:1016C0000C37BD465DF8047B704790B585B000AF20
:1016D000786039603868FFF7ADFF03462246194647
:1016E000786800F05BF800BF1437BD4690BDB0B518
:1016F00084B000AFF860B9607A60F86800F065F80F
:101700000546B868FFF785FA03461C787868FFF746
:1017100047F903461B681A4621462846FFF7DBFEB9
:1017200000BF1037BD46B0BDB0B586B000AFF860A1
:10173000B9601346FB71FB79032B27D801A252F83D
:1017400023F000BF55170108631701087717010838
:1017500083170108F868FEF7D2FE02460E4B1360AD
:1017600014E0F86800F042F80446B86800F02DF87C
:10177000034623600AE02A46B968F86800F042F898
:1017800004E02146F86800F054F800BF0023184632
:101790001837BD46B0BD00BFF4C9020880B584B09B
:1017A00000AFF860B9603A71B868FFF743FFF868B6
:1017B000FEF756FE034619460120FEF7B3FE034628
:1017C000002B00BF1037BD4680BD80B584B000AF90
:1017D0007860786800F039F80346184600F041F860
:1017E000F860FB6818461037BD4680BD80B582B0F2
:1017F00000AF78607868FEF733FE03461846083776
:10180000BD4680BD80B584B000AFF860B9603A7164
:10181000B86800F01AF8F868FEF722FE0346194689
:101820000120FEF77FFE0346002B00BF1037BD46A8
:1018300080BD80B582B000AF78603970786800F004
:101840001BF800BF0837BD4680BD80B582B000AF31
:1018500078607868FEF70FFE034618460837BD46E5
:1018600080BD80B483B000AF78607B6818460C37C9
:10187000BD465DF8047B704780B582B000AF7860EC
:101880007868FEF7EDFD034618460837BD4680BD73
:1018900080B582B000AF786039607B68012B0DD1D4
:1018A0003B684FF6FF72934208D10021054808F0CB
:1018B000A9F9054A054903480FF09AF900BF08370E
:1018C000BD4680BDE80A002000000020919C010870
:1018D00080B500AF4FF6FF710120FFF7D9FF80BD43
:1018E00080B582B000AF786039607B68002B07D08C
:1018F00078683B68D9B27B689B6B1A4600F0DCFACB
:1019000000BF0837BD4680BD80B588B000AFF86025
:10191000B9607A603B600023FB612023BB617B6878
:10192000002B20DD00237B61BB683B613B691B789A
:10193000002B06D07B6901337B613B6901333B613E
:10194000F4E77A697B689A4202DB00237B6003E05C
:101950007A687B69D31A7B603B6803F00203002B33
:1019600001D03023BB613B6803F00103002B0DD194
:101970007B68002B0ADDB969F868FFF7B1FFFB69E6
:101980000133FB617B68013B7B60F1E7BB681B783F
:10199000002B0CD0BB681B781946F868FFF7A0FF36
:1019A000FB690133FB61BB680133BB60EEE77B6819
:1019B000002B0ADDB969F868FFF792FFFB69013374
:1019C000FB617B68013B7B60F1E7FB6918462037D0
:1019D000BD4680BD80B58CB000AFF860B9607A605C
:1019E0003B6000237B6200233B62BB68FB61BB68FA
:1019F000002B0CD130233B7400237B7407F11001C2
:101A0000FB6BBA6BF868FFF77FFF03465BE03B6850
:101A1000002B0AD07B680A2B07D1BB68002B04DAA5
:101A200001237B62BB685B42FB6107F110030B3350
:101A3000FB62FB6A00221A70FB69002B1ED07A68D9
:101A4000FB69B3FBF2F102FB01F29B1ABB62BB6ABA
:101A5000092B04DD3B6C3A3BBA6A1344BB62FB6A58
:101A6000013BFB62BB6ADBB23033DAB2FB6A1A704D
:101A70007B68FA69B2FBF3F3FB61DDE77B6A002B5D
:101A800018D0BB6B002B0FD0FB6B03F00203002BB5
:101A90000AD02D21F868FFF723FF3B6A01333B6230
:101AA000BB6B013BBB6305E0FB6A013BFB62FB6A6E
:101AB0002D221A70FB6BBA6BF96AF868FFF724FFE6
:101AC00002463B6A134418463037BD4680BD0000CD
:101AD000B0B590B004AF786187ED020B39617A60E0
:101AE0000023FB623B69092B01DD09233B614FF0B9
:101AF00000024FF00003D7E9020117F027FD03466B
:101B0000002B0DD02D217869FFF7EAFEFB6A013327
:101B1000FB62BB68BB60FB6883F00043FB6009E0CD
:101B20007B68012B06D120217869FFF7D9FEFB6A7B
:101B30000133FB62524BBB6206237B623B69002B85
:101B400017D03B693B620A23BB623B6A013B3B62A5
:101B50003B6A002B14BF01230023DBB2002B06D00D
:101B6000BA6A13469B0013445B00BB62EDE73B6916
:101B70007B62D7E9020117F011FD0346FB61F869AA
:101B800017F00CFA03460C461A462346D7E9020121
:101B900017F0B6F803460C4625461C46B86A17F0FF
:101BA000FDF902460B462046294617F05DFA03462A
:101BB0000C46184621464FF00002324B17F054FAFB
:101BC00003460C461846214617F0E8FC0346BB6165
:101BD000B9692D4B83FB01239A10CB17D21A1346F8
:101BE0009B0013445B00CA1A042A14DDBB69264A11
:101BF00082FB03129210DB17D31ABB61BB6901335E
:101C0000BB61BA69BB6A9A420DD10023BB61FB6913
:101C10000133FB6107E0BB691B4A82FB0312921090
:101C2000DB17D31ABB6161230293002301930023C6
:101C3000009300230A22F9697869FFF7CBFE024678
:101C4000FB6A1344FB622E217869FFF749FEFB6AA9
:101C50000133FB6261230293022301937B6A0093A9
:101C600000230A22B9697869FFF7B4FE0246FB6ACD
:101C70001344FB62FB6A18463037BD46B0BD00BF57
:101C800040420F00000024406766666680B58EB053
:101C900004AFF860B9607A600023FB61BB681B7811
:101CA000002B00F00281BB681B78252B40F0EF80F1
:101CB000BB680133BB6000233B623B6A7B62BB684D
:101CC0001B78002B00F0F080BB681B78252B00F000
:101CD000DD80BB681B782D2B04D1BB680133BB6052
:101CE00001233B62BB681B78302B07D1BB680133F3
:101CF000BB603B6A43F002033B62F3E7BB681B78BF
:101D00002F2B13DDBB681B78392B0FDC7A6A134647
:101D10009B0013445B007B62BB681B78303B7A6A94
:101D200013447B62BB680133BB60E7E7BB681B7889
:101D3000732B14D17B681A1D7A601B68BB61BB6969
:101D4000002B01D0B96900E05A493B6A7A6AF86809
:101D5000FFF7DAFD0246FB691344FB61A0E0BB68B4
:101D60001B78642B13D17B681A1D7A601968612374
:101D700002933B6A01937B6A009301230A22F8686D
:101D8000FFF728FE0246FB691344FB6188E0BB684D
:101D90001B78782B03D0BB681B78702B13D17B6822
:101DA0001A1D7A601968612302933B6A01937B6A6A
:101DB000009300231022F868FFF70CFE0246FB692F
:101DC0001344FB616CE0BB681B78582B13D17B6814
:101DD0001A1D7A601968412302933B6A01937B6A5A
:101DE000009300231022F868FFF7F4FD0246FB6918
:101DF0001344FB6154E0BB681B78752B13D17B68DF
:101E00001A1D7A601968612302933B6A01937B6A09
:101E1000009300230A22F868FFF7DCFD0246FB6905
:101E20001344FB613CE0BB681B78662B16D17B68D2
:101E3000073323F0070303F108027A6093ED007B78
:101E40003A6A796AB0EE470AF0EE670AF868FFF777
:101E50003FFE0246FB691344FB6121E0BB681B782F
:101E6000632B1DD17B681A1D7A601B68DBB23B7542
:101E700000237B7507F114013B6A7A6AF868FFF763
:101E800043FD0246FB691344FB6109E000BFBB68E8
:101E90001B781946F868FFF723FDFB690133FB61E6
:101EA000BB680133BB60F9E600BFFB691846283701
:101EB000BD4680BD20CA0208F0B585B000AFF8600D
:101EC0000B467A60FB72FB681846FEF7E5FF034697
:101ED000002B01D010F0ACF8FB68DC68FD6807F15E
:101EE0000B031846FEF795FE06463B1D1846FEF707
:101EF00057FD03461A4631462846A0471437BD46CB
:101F0000F0BD80B483B000AF786039603B681A6878
:101F10007B681A607B681B68183B1B681A467B68E5
:101F200013443A6852681A607B6818460C37BD46FD
:101F30005DF8047B7047000080B500AF03F06EFBD6
:101F4000002300224FF4E121064800F0CBFC0023DF
:101F500000220549054800F0C5FC0248FEF714FCC4
:101F600000BF80BD0C0F002020A10700B40D002091
:101F700080B582B000AF7860064800F039FBFFF70B
:101F8000DBFF0DF0CDFB00200BF03CFF00BF08375E
:101F9000BD4680BDF40E002080B584B004AF4FF480
:101FA000407008F035FA01214FF4800009F0A0FCE0
:101FB00001214FF4001009F09BFC0D4B01221A6027
:101FC000002303930023029300230193042300932F
:101FD00000234FF4C872074907480BF04DFE034633
:101FE000012B0BF0D9FF00231846BD4680BD00BF72
:101FF000240F002028CA0208711F010880B500AF15
:10200000054B1B68012B02D10448FEF767FCFEF765
:102010008FFC00BF80BD00BF240F002030CA020823
:1020200080B500AF054B1B68012B02D10448FEF7B9
:1020300055FCFEF77DFC00BF80BD00BF240F0020D3
:1020400044CA020880B500AF054B1B68012B02D1C2
:102050000448FEF743FCFEF76BFC00BF80BD00BFE9
:10206000240F002054CA020880B500AF054B1B683E
:10207000012B02D10448FEF731FCFEF759FC00BFEA
:1020800080BD00BF240F002068CA020880B500AFE1
:10209000054B1B68012B02D10448FEF71FFCFEF71D
:1020A00047FC00BF80BD00BF240F00207CCA02088F
:1020B00080B582B000AF7860094A7B681A60084A30
:1020C0007B681A60064A7B681A607B68054A11467D
:1020D0001846FFF716FF7B6818460837BD4680BDD7
:1020E0003CCB020868CB020880B582B000AF7860B4
:1020F0007B681B681C3B1B681A467B6813441846A8
:10210000FFF7D6FF034618460837BD4680BD00BF1F
:1021100080B582B000AF7860094A7B681A60084ACF
:102120007B681A607B686433064A1A607B684C33AC
:102130001846FFF7BDFF7B6818460837BD4680BDCF
:1021400078CC0208E8CC020880B582B000AF786095
:102150007B681C331846FEF7BAF97B680C331846C7
:10216000FEF7B5F97B6818460837BD4680BD80B5D7
:1021700082B000AF78607B684C331846FFF798FF59
:102180007B6818460837BD4680BD000080B582B028
:1021900000AF7860054A7B681A607B6818460DF0CE
:1021A000A3FA7B6818460837BD4680BDDCE5020807
:1021B00080B582B000AF78607868FFF7E7FF786895
:1021C0000EF01CFD7B6818460837BD4680BD80B503
:1021D00082B000AF78607B6864331846FFF7D6FFA3
:1021E0007B6850331846FFF7D1FF7B683C331846B5
:1021F000FFF7CCFF7B6828331846FFF7C7FF7B68E3
:1022000014331846FFF7C2FF7B681846FFF7BEFF7E
:102210007B6818460837BD4680BD000080B582B097
:1022200000AF786039607B68012B40F093803B6899
:102230004FF6FF72934240F08D800021474801F035
:1022400005F80121464801F001F80221454801F056
:102250009DF8454A454943480EF0CAFC03214448CD
:1022600001F094F8404A414941480EF0C1FC042174
:10227000404800F0CBFF05213F4800F0C7FF002198
:102280003E4806F0AFFE01213D4806F0ABFE0221BC
:102290003C4806F0A7FE03213B4806F0A3FE374A60
:1022A0003A4B1A60364A394B5A60364A374B9A6075
:1022B000354A364BDA600021354802F0A1FC2A4A43
:1022C000344933480EF094FC0121334802F098FC65
:1022D000254A304930480EF08BFC02212F4802F08D
:1022E00037FD04212E4800F0ADFA1F4A2D492C4835
:1022F0000EF07EFC2C4800F0F0F91B4A2B492A48CE
:102300000EF076FC2A4800F065FA2A4802F08EFFAB
:10231000154A294927480EF06BFC284801F05BFA62
:10232000114A274925480EF063FC0021254800F09A
:102330003BF90121244800F037F90221234800F03D
:1023400033F90021224800F07DFA074A1549204858
:102350000EF04EFC00BF0837BD4680BDF40A0020D9
:102360005C0B0020C40B002000000020112101089C
:102370002C0C0020940C0020E00C00202C0D0020E0
:10238000300D0020340D0020380D00203C0D0020C1
:102390004C0D0020492101087C0D0020AC0D0020CF
:1023A000B40D0020B1200108CC0D00206F210108E0
:1023B000700E0020780E0020CF210108F00E0020C2
:1023C0001F380108F40E0020FC0E0020040F00202E
:1023D0000C0F002080B500AF4FF6FF710120FFF712
:1023E0001DFF80BD80B584B000AF7860104B1B68C6
:1023F000002B02D10E4B0F4A1A600D4B1B68FB607D
:102400000B4B1A687B681344094A1360084B1B681E
:1024100003F58073084A934204DD084803F078F816
:1024200003F036F8FB6818461037BD4680BD00BF84
:10243000280F0020F03200200000022094CA020879
:1024400080B483B000AF78604FF0FF3318460C378C
:10245000BD465DF8047B704780B483B000AF786000
:1024600039603B684FF400525A60002318460C371D
:10247000BD465DF8047B704780B483B000AF7860E0
:10248000012318460C37BD465DF8047B704780B4C5
:1024900085B000AFF860B9607A6000231846143741
:1024A000BD465DF8047B704780B584B000AFF8602E
:1024B000B9607A60FB68002B05D10121B86803F090
:1024C0004BF8034600E0002318461037BD4680BD98
:1024D00080B584B000AFF860B9607A60FB68012B0A
:1024E00005D17968B86800F019F8034600E00023C8
:1024F00018461037BD4680BD90B585B000AF064B7D
:102500003C460FCB07C423803B460E21184600F003
:1025100005F802F0BDFF00BFACCA020880B586B066
:1025200000AF7860396000237B6100233B612FE0BE
:102530003A693B689A420ED13A697B69D31AFB60CB
:10254000FB68002B21DD7B697A681344F968184623
:1025500002F0EAFF19E03B697A6813441B780A2B02
:1025600013D13A697B69D31ABB607B697A681344DB
:10257000B968184602F0D8FF02210A4802F0D4FFD9
:10258000BB6801337A6913447B613B6901333B616A
:102590003A693B689A42CBDD3B6818461837BD461E
:1025A00080BD00BFCCCA020880B582B000AF7860A1
:1025B0000B46FB707868FB78044AD35C194601F03F
:1025C00065FA7B6818460837BD4680BDD0CA020848
:1025D00080B582B000AF78607B68184601F0BEF924
:1025E0007B68184601F06CFA00BF0837BD4680BD15
:1025F00080B582B000AF78607B680121184601F099
:10260000FFFA00BF0837BD4680BD80B582B000AF7D
:1026100078607B680021184601F0F2FA00BF0837A5
:10262000BD4680BD80B582B000AF78600B46FB70C0
:102630007B68FA781146184601F0E2FA00BF0837C5
:10264000BD4680BD80B483B000AF78607B6818461B
:102650000C37BD465DF8047B704780B582B000AF93
:10266000786008F0D3FCF32008F08EFD0AF0A6F89D
:1026700008F0E4FC00BF0837BD4680BD80B582B0DD
:1026800000AF786039607B68012B0DD13B684FF655
:10269000FF72934208D10021054807F0B3FA054ABA
:1026A000054903480EF0A4FA00BF0837BD4680BDB7
:1026B0002C0F002000000020919C010880B500AF85
:1026C0004FF6FF710120FFF7D9FF80BD80B400AF46
:1026D00000BFBD465DF8047B704780B582B000AF97
:1026E00078607B681821184601F0E0FC7B681433A1
:1026F0001921184601F0DAFC7B6828331A211846A4
:1027000001F01AFC7B6834331B21184601F014FCDD
:102710007B6840331C21184601F00EFC7B684C336B
:102720000121184600F08EF87B68643300211846BA
:1027300000F0B6FF7B688C330221184600F0DAFE09
:102740007B6806E07B684C331846FFF7B1FC0FF05E
:10275000B9FA18460837BD4680BD000080B582B082
:1027600000AF78607B686433184600F0D9FF7B685F
:102770008C3342F21071184600F0EEFE7B68043391
:10278000184601F0F8F87B681833184601F0F3F8A2
:102790007B682C33184601F0E1F87B683833184623
:1027A00001F0DCF87B684433184601F0D7F87B6809
:1027B00003F14C00002300224FF4613100F092F845
:1027C000034802F092FE00BF0837BD4680BD00BF3F
:1027D000D4CA020880B582B000AF78607B682E2131
:1027E000184601F053F97B6818460837BD4680BD8E
:1027F00080B483B000AF7860044A7B681A607B685D
:1028000018460C37BD465DF8047B7047ACC902081A
:1028100080B483B000AF786039603B681A687B6829
:102820001A607B681B68183B1B681A467B68134458
:102830003A6852681A607B6818460C37BD465DF8E6
:10284000047B704780B582B000AF78600B46FB70A8
:102850007B681846FFF7CCFF7B681F4A1146184675
:10286000FFF7D6FF1D4A7B681A601C4A7B681A6016
:102870001A4A7B681A607B68181DFB78184ADB00CF
:1028800013441B79194601F001F97B6803F10C0030
:10289000FB78134ADB0013445B79194601F0F6F824
:1028A0001420FDF7FBFE02467B685A617B685B697A
:1028B00000221A747B685B69FA781A707B6807E0FB
:1028C0007B68054A11461846FFF71BFB0FF0FAF923
:1028D00018460837BD4680BD68CB02083CCB0208CD
:1028E000E8CA020890B587B002AFF860B9607A60B4
:1028F0003B60FB685B697A689A60FB685B693A6871
:10290000DA60FB685B69BA685A60FB685B691878D3
:10291000FB685B695968FB685B699B68DAB2FB68B6
:102920005B69DB68DCB200230093234605F010FAF4
:1029300000BF1437BD4690BD80B586B000AFF860CB
:10294000B9607A603B607B68002B01D100230AE00C
:10295000FB685B6918787A683B68B96805F07AFCAF
:1029600003467B617B6918461837BD4680BD80B53C
:1029700086B000AFF860B9607A603B60FB685B6965
:1029800018787A683B68B96805F08AFC03467B6171
:102990007B6918461837BD4680BD90B585B002AF3B
:1029A000786039607B685B693A685A607B685B690C
:1029B00018787B685B6959687B685B699B68DAB2E9
:1029C0007B685B69DB68DCB200230093234605F07B
:1029D000BFF900BF0C37BD4690BD80B582B000AFD7
:1029E00078607B685B691B78184605F0CBFF00BFF9
:1029F0000837BD4680BD80B582B000AF78607B6887
:102A00005B691B78184605F0DFFF03461846083758
:102A1000BD4680BD80B582B000AF78607868FFF7B2
:102A200047FB78680EF0EAF87B6818460837BD4621
:102A300080BD80B582B000AF78607B681B681C3BAE
:102A40001B681A467B6813441846FFF7E3FF0346EA
:102A500018460837BD4680BD80B483B000AF7860AB
:102A6000044A7B681A607B6818460C37BD465DF8DF
:102A7000047B704770D1020880B483B000AF7860E7
:102A800039603B681A687B681A607B681B68283B62
:102A90001B681A467B6813443A6852681A607B6860
:102AA00018460C37BD465DF8047B704780B582B090
:102AB00000AF786039607B681846FFF7CDFF7B6810
:102AC0000D4A11461846FFF7D7FF0C4A7B681A607B
:102AD0000A4A7B681A60094A7B681A607B683A6810
:102AE0005A607B680833396818460CF0B5FF7B687C
:102AF00018460837BD4680BD14D10208E0D0020850
:102B000080B483B000AF78607B68083318460C3718
:102B1000BD465DF8047B704780B582B000AF786039
:102B20007B681B682C3B1B681A467B68134418465D
:102B3000FFF7E6FF034618460837BD4680BD80B55F
:102B400082B000AF78607B685B681B6808331B68E5
:102B50007A68526810469847034618460837BD46BB
:102B600080BD80B582B000AF78607B681B68143B85
:102B70001B681A467B6813441846FFF7E0FF0346BC
:102B800018460837BD4680BD80B582B000AF78607A
:102B90007B685B681B680C331B687A685268104658
:102BA0009847034618460837BD4680BD80B582B0B9
:102BB00000AF78607B681B68183B1B681A467B680F
:102BC00013441846FFF7E0FF034618460837BD4692
:102BD00080BD80B582B000AF78607B685B681B68A1
:102BE00010331B687A6852681046984703461846A7
:102BF0000837BD4680BD80B582B000AF78607B6885
:102C00001B681C3B1B681A467B6813441846FFF779
:102C1000E0FF034618460837BD4680BD80B582B048
:102C200000AF78607B685B681B6814331B687A6848
:102C3000526810469847034618460837BD4680BD7F
:102C400080B582B000AF78607B681B68203B1B6852
:102C50001A467B6813441846FFF7E0FF0346184600
:102C60000837BD4680BD80B582B000AF78607B6814
:102C70005B681B6804331B687A6852681046984783
:102C800000BF0837BD4680BD80B582B000AF786018
:102C90007B681B68303B1B681A467B6813441846E8
:102CA000FFF7E1FF0837BD4680BD80B582B000AFB9
:102CB00078607B685B681B681B687A68526810469E
:102CC000984700BF0837BD4680BD80B582B000AFD1
:102CD00078607B681B680C3B1B681A467B68134452
:102CE0001846FFF7E2FF0837BD4680BD80B582B0C9
:102CF00000AF78607B685B681B6804331B687A6888
:102D000052681046984700BF0837BD4680BD80B561
:102D100082B000AF78607B681B68103B1B681A4666
:102D20007B6813441846FFF7E1FF0837BD4680BDB6
:102D300080B483B000AF78607B6818460C37BD461E
:102D40005DF8047B704780B582B000AF786078682A
:102D5000FFF7EEFF024613461B68343B1B68134423
:102D600018460837BD4680BD80B582B000AF786098
:102D70007B681B68243B1B681A467B681344184613
:102D8000FFF7E1FF034618460837BD4680BD80B512
:102D900082B000AF78607B68083342F21071184649
:102DA0000CF084FE00BF0837BD4680BD80B483B000
:102DB00000AF78607B68043318460C37BD465DF879
:102DC000047B704780B582B000AF78607868FFF709
:102DD000EDFF024613461B68583B1B681344184618
:102DE0000837BD4680BD80B582B000AF78607B6893
:102DF0001B68143B1B681A467B6813441846FFF790
:102E0000E1FF034618460837BD4680BD80B483B055
:102E100000AF78607B68183318460C37BD465DF804
:102E2000047B704780B582B000AF78607868FFF7A8
:102E3000EDFF024613461B68383B1B6813441846D7
:102E40000837BD4680BD80B582B000AF78607B6832
:102E50001B68183B1B681A467B6813441846FFF72B
:102E6000E1FF034618460837BD4680BD80B483B0F5
:102E700000AF78607B68203318460C37BD465DF89C
:102E8000047B704780B582B000AF78607868FFF748
:102E9000EDFF024613461B68383B1B681344184677
:102EA0000837BD4680BD80B582B000AF78607B68D2
:102EB0001B681C3B1B681A467B6813441846FFF7C7
:102EC000E1FF034618460837BD4680BD80B483B095
:102ED00000AF78607B68283318460C37BD465DF834
:102EE000047B704780B582B000AF78607868FFF7E8
:102EF000EDFF024613461B68383B1B681344184617
:102F00000837BD4680BD80B582B000AF78607B6871
:102F10001B68203B1B681A467B6813441846FFF762
:102F2000E1FF034618460837BD4680BD80B483B034
:102F300000AF78607B68343318460C37BD465DF8C7
:102F4000047B704780B582B000AF78607868FFF787
:102F5000EDFF024613461B68343B1B6813441846BA
:102F60000837BD4680BD80B582B000AF78607B6811
:102F70001B68243B1B681A467B6813441846FFF7FE
:102F8000E1FF034618460837BD4680BD80B483B0D4
:102F900000AF78607B684C3318460C37BD465DF84F
:102FA000047B704780B582B000AF78607B681B6897
:102FB0002C3B1B681A467B6813441846FFF7E6FF54
:102FC000034618460837BD4680BD80B483B000AFC5
:102FD00078607B684C3318460C37BD465DF8047B3F
:102FE000704780B582B000AF78607868FFF7EDFF7A
:102FF000024613461B682C3B1B68134418460837CF
:10300000BD4680BD80B582B000AF78607B681B682C
:103010002C3B1B681A467B6813441846FFF7E1FFF8
:10302000034618460837BD4680BD000080B584B011
:1030300000AFF860B9601346FB71BB681A68FB68A3
:103040001A60FB681B68283B1B681A46FB68134420
:10305000BA6852681A60FB68181DFA792949134644
:103060005B0013445B000B4402331B78194601F0EC
:103070001DF8FB6803F11800FA79224913465B003A
:1030800013445B000B4403331B78194600F0FEFC2D
:10309000FB6803F12000FA791A4913465B001344D8
:1030A0005B000B4404331B78194600F0EFFCFB680F
:1030B00003F12800FA79134913465B0013445B00BF
:1030C0000B4405331B78194600F0E0FCFB68FA79E5
:1030D00083F83020FB68002283F83120FB6803F17D
:1030E0003402FB681B68283B1B681946FB680B44CD
:1030F00019461046FFF7DAFCFB6818461037BD4644
:1031000080BD00BF08CC020880B582B000AF7860F7
:103110007B6893F8303019460F48FDF763FB7B68F6
:103120000833184600F027FC7B681833184600F077
:1031300015FC7B682033184600F010FC7B682833B0
:10314000184600F00BFC7B681B681B687868984782
:1031500000BF0837BD4680BD2CCC020880B483B0C8
:1031600000AF78607B68002283F8312000BF0C3705
:10317000BD465DF8047B704780B582B000AF7860D3
:103180007B681B6834331B68786898477B6893F8C2
:103190003130012B0ED07B682033184600F0DEFB67
:1031A0007B682833184600F0D9FB7B68012283F83E
:1031B000312000E000BF0837BD4680BD80B582B039
:1031C00000AF78607B681B6834331B687868984769
:1031D0007B6893F83130042B13D07B68203318467A
:1031E00000F0BCFB7B682833184600F0B7FB7B6817
:1031F00034331846FFF7CBFD7B68042283F8312077
:1032000000E000BF0837BD4680BD000080B582B039
:1032100000AF78600B46FB707B681846FFF71CFC1C
:103220007B680849FA781846FFF700FF064A7B6872
:103230001A60054A7B681A607B6818460837BD46E5
:1032400080BD00BF40D0020804D0020880B582B023
:1032500000AF78600B46FB707B681846FFF7FCFBFD
:103260007B686433144A11461846FFF705FC7B68F7
:103270001249FA781846FFF7D9FE114A7B681A609E
:103280000F4A7B681A607B6864330E4A1A607B6859
:1032900003F14C00FA780C4913465B0013445B00C1
:1032A0000B4401331B78194600F024F97B6818465B
:1032B0000837BD4680BD00BFE8CE0208D8CE020860
:1032C00040CE0208B0CE020808CC020880B582B019
:1032D00000AF78607B681B6834331B687868984758
:1032E0007B6893F83130022B0BD07B684C3342F271
:1032F0001071184600F030F97B68022283F8312003
:1033000000E000BF0837BD4680BD80B582B000AF89
:1033100078607B681B68303B1B681A467B681344E7
:103320001846FFF7D3FF0837BD4680BD80B582B091
:1033300000AF78607B6893F83130022B04D17B6852
:103340004C33184600F018F97B68002283F83120CE
:1033500000BF0837BD4680BD80B483B000AF786041
:1033600039603B681A687B681A607B681B68283B79
:103370001B681A467B6813443A6852681A607B6877
:1033800018460C37BD465DF8047B704780B582B0A7
:1033900000AF78600B46FB707B681846FFF75CFB5C
:1033A0007B686433134A11461846FFF7D5FF7B68E4
:1033B0001149FA781846FFF739FE104A7B681A60FF
:1033C0000E4A7B681A607B6864330D4A1A607B681A
:1033D00003F14C00FA780B4913465B0013445B0081
:1033E0000B441B781946FFF72DFA7B6818460837FF
:1033F000BD4680BD20CD020810CD020878CC020861
:10340000E8CC020808CC020880B582B000AF786032
:103410007B681B6834331B687A68104698477B6862
:1034200093F83130032B0DD07B6803F14C0000235F
:1034300000224FF4E121FFF755FA7B68032283F85D
:10344000312000E000BF0837BD4680BD80B582B0A6
:1034500000AF78607B681B68303B1B681A467B684E
:1034600013441846FFF7D0FF0837BD4680BD000063
:1034700080B582B000AF0346FB71FB79042B1DD8E9
:1034800001A252F823F000BFBD3401089D340108A9
:10349000A5340108AD340108B53401080948FDF729
:1034A000A1F90BE00848FDF79DF907E00748FDF793
:1034B00099F903E00648FDF795F900BF0837BD46C6
:1034C00080BD00BF54D3020860D302086CD3020849
:1034D00078D3020880B483B000AF7860044A7B6878
:1034E0001A607B6818460C37BD465DF8047B704750
:1034F000A8D3020880B582B000AF78600B46FB709D
:103500007B681846FFF7E6FF114A7B681A607B6804
:10351000181DFB780F4ADB0013441B79194600F095
:10352000B5FA7B6803F10C00FB780A4ADB00134410
:103530005B79194600F0AAFAFB78064A52F8332064
:103540007B685A617B6818460837BD4680BD00BF5E
:1035500090D302083CD3020880B582B000AF7860F7
:1035600039607B685B69DBB23968184603F058F84C
:1035700000BF0837BD4680BD80B582B000AF78601F
:103580007B685B69DBB2184603F0C2F800BF0837FE
:10359000BD4680BD80B582B000AF786039607B6881
:1035A0005B69DBB23968184603F002F900BF0837DF
:1035B000BD4680BD80B586B000AFF8607A603B60E4
:1035C0000B46FB72FB685B69D8B2F97A3B687A6894
:1035D00003F01CF90346FB75FB7D1846FFF748FF17
:1035E000FB7D002BD4BF01230023DBB21846183724
:1035F000BD4680BD80B586B000AFF8607A603B60A4
:103600000B46FB72FB685B69D8B2F97A3B687A6853
:1036100003F02EF90346FB75FB7D1846FFF728FFE4
:10362000FB7D002BD4BF01230023DBB218461837E3
:10363000BD4680BD80B58AB004AFF8607A603B605B
:103640000B46FB72FB685B69D8B2F97ABB6A0293DE
:103650007B6A01933B6A00933B687A6803F03CF90C
:103660000346FB75FB7D1846FFF702FFFB7D002B31
:10367000D4BF01230023DBB218461837BD4680BDF6
:1036800080B483B000AF7860044A7B681A607B68BE
:1036900018460C37BD465DF8047B704728D40208F5
:1036A00080B582B000AF78600B46FB707B6818462F
:1036B000FFF7E6FF184A7B681A60174A7B681A60B2
:1036C0007B68181DFB78154A9B0013445B781946EC
:1036D00000F0DCF97B6803F10C00FB780F4A9B00DB
:1036E00013449B78194600F027FC7B6803F118000F
:1036F000FB780A4A9B001344DB78194600F01CFC57
:10370000FB78064A12F823301A467B685A627B68B7
:1037100018460837BD4680BD14D40208F4D3020809
:1037200080B582B000AF78607B685B6ADBB238221C
:103730000021184603F0E2FF786800F03EF800BF71
:103740000837BD4680BD80B584B000AFF860B96071
:103750007A60FB685B6AD8B27B680022B96804F0C3
:1037600063F9012318461037BD4680BD80B584B08B
:1037700000AFF860B9607A60FB685B6AD8B27B68BA
:10378000BA68FF2104F050F9012318461037BD46EE
:1037900080BD80B584B000AFF860B9607A603B60EE
:1037A000FB685B6AD8B23B687A68B96804F03CF998
:1037B000012318461037BD4680BD80B582B000AFEA
:1037C00078607B685B6ADBB2184604F0D3F800BF10
:1037D0000837BD4680BD80B582B000AF78604FF439
:1037E0000E70FCF75BFF02467B681A607B681B6803
:1037F00000221A70342002F00FFB342002F06EFC1D
:10380000342002F0A1FC342002F034FD01213420E8
:1038100002F0F2FD7B6818460837BD4680BD80B5D2
:1038200082B000AF78607B681B681846FCF742FFE7
:103830007B6818460837BD4680BD80B400AF00BF26
:10384000BD465DF8047B704790B589B000AFF86065
:10385000B9607A60FB681B6848331C6807F1100385
:103860000C49184600F0D0FC07F110037A68B968DB
:10387000F868A04707F110031846FCF728FE06E099
:1038800007F110031846FCF722FE0EF01BFA24374E
:10389000BD4690BD3B38010890B585B000AFF860DB
:1038A000B9607A603B60FB681B6848331C683B6802
:1038B0007A68B968F868A04700BF1437BD4690BD64
:1038C00090B58BB000AFF860B9607A603B60FB6880
:1038D0001B6848331C6807F12003394607F138029A
:1038E000184600F0E6FC07F1200207F1100311462C
:1038F000184600F0A3FD07F110037A68B968F8686C
:10390000A04707F110031846FCF7E1FD06E007F1B8
:1039100010031846FCF7DBFD0EF0D4F92C37BD463A
:1039200090BD90B585B000AFF860B9607A60FB6873
:103930001B6848331C687B680022B968F868A04798
:1039400000BF1437BD4690BD80B483B000AF78602F
:1039500000BF0C37BD465DF8047B704780B582B070
:1039600000AF78607B681B79184602F055FA00BFFB
:103970000837BD4680BD90B589B000AF78607B68E0
:103980001B685C3B1B681A467B6813441C7907F173
:103990000C03184600F090FD07F10C031A460121B4
:1039A000204602F07FF807F10C031846FCF78FFD64
:1039B0007B681B685C3B1B681A467B6813441B7959
:1039C0000121184602F0B0FA7B681B685C3B1B685B
:1039D0001A467B6813441B79184602F047FB7B6844
:1039E0001B685C3B1B681A467B6813441B791846AE
:1039F00002F012FA06E007F10C031846FCF767FD27
:103A00000EF060F92437BD4690BD80B582B000AF9E
:103A100078607B681B683C3B1B681A467B681344D4
:103A20001846FFF7A8FF0837BD4680BD80B483B0B5
:103A300000AF7860044A7B681A607B6818460C37D0
:103A4000BD465DF8047B7047F0E2020880B485B0A3
:103A500000AFF860B9601346FB71BB681A68FB6879
:103A60001A60FB681B68383B1B681A46FB681344E6
:103A7000BA6852681A60FB68FA791A71FB681846CE
:103A80001437BD465DF8047B7047000080B582B0F6
:103A900000AF78600B46FB707B681846FFF7C6FFE7
:103AA000064A7B681A60054A7B681A607B68FA7868
:103AB0001A717B6818460837BD4680BDB8E2020817
:103AC00080B582B000AF78607B681B79184602F041
:103AD00005FB7B681B79184602F036FB7B681B7977
:103AE000184602F0C7FB00BF0837BD4680BD80B551
:103AF00082B000AF78607B681B79184602F08AFBC1
:103B00007B681B79184602F0B5FB00BF0837BD463D
:103B100080BD80B582B000AF78607B681B791846A5
:103B200002F078FB7B681B79184602F0D3FB00BFDC
:103B30000837BD4680BD80B582B000AF78607B6835
:103B40001B79184602F066FB7B681B79184602F069
:103B5000F7FB00BF0837BD4680BD80B582B000AF1F
:103B600078607B681B79184602F0B8FA7B681B798D
:103B7000184602F019FB7B681B79184602F07AFBA5
:103B800000BF0837BD4680BD80B582B000AF786009
:103B90007B681B79184602F0A1FA7B681B791846EE
:103BA00002F002FB7B681B79184602F093FB00BF12
:103BB0000837BD4680BD80B582B000AF78607B68B5
:103BC0001B79184602F08AFA7B681B79184602F0C6
:103BD000EBFA7B681B79184602F0B2FB00BF08378E
:103BE000BD4680BD80B582B000AF78607B681B7930
:103BF000184602F0DBFB034618460837BD4680BD79
:103C000080B582B000AF78600B46FB707B681B7993
:103C1000FA781146184602F0EFFB00BF0837BD46A0
:103C200080BD80B582B000AF78607B681B79184694
:103C300002F01AFC00BF0837BD4680BD80B582B0D7
:103C400000AF78607B681B682C331B6878689847E6
:103C500000BF0837BD4680BD80B483B000AF786038
:103C600039603B681A687B681A607B681B68383B60
:103C70001B681A467B6813443A6852681A607B686E
:103C800018460C37BD465DF8047B704780B485B09C
:103C900000AFF860B9601346FB71BB681A68FB6837
:103CA0001A60FB681B685C3B1B681A46FB68134480
:103CB000BA6852681A60FB681B68383B1B681A4672
:103CC000FB681344BA6892681A60FB681B68603B23
:103CD0001B681A46FB681344BA68D2681A60FB680E
:103CE00018461437BD465DF8047B704780B582B036
:103CF00000AF78600B46FB707B6804331846FFF713
:103D000095FE7B6804330F49FA781846FFF79EFE4C
:103D10007B680D4A11461846FFF79EFF0B4A7B68E9
:103D20001A607B6804330A4A1A607B680433084AC5
:103D30001A60064A7B681A607B6818460837BD46D9
:103D400080BD00BF24E102082CE1020858E002080F
:103D5000E4E0020880B582B000AF78607B681B6841
:103D60005C3B1B681A467B6813441B79184602F0BB
:103D70007DF900BF0837BD4680BD80B584B000AF77
:103D8000F860B9607A603B60FB681B685C3B1B684D
:103D90001A46FB6813441B79184602F067F9FB6862
:103DA0001B685C3B1B681A46FB68134418797B68E8
:103DB000002B01D1012300E002233A68194601F0EB
:103DC00071FEFB681B6840331B68B968F868984748
:103DD000FB681B685C3B1B681A46FB6813441B7935
:103DE000184602F05BF9FB681B6844331B6800212E
:103DF000F868984700BF1037BD4680BD80B582B0D7
:103E000000AF786039603B68012B04D0022B1CD0D6
:103E1000002B0DD026E07B681B685C3B1B681A46B4
:103E20007B6813441B790021184602F07DF819E0E5
:103E30007B681B685C3B1B681A467B6813441B79D4
:103E40000121184602F070F80CE07B681B685C3BAF
:103E50001B681A467B6813441B790221184602F03E
:103E600063F800BF00BF0837BD4680BD80B582B093
:103E700000AF786039607B681B685C3B1B681A4642
:103E80007B6813441B793968184601F0C1FD03466D
:103E9000002B14BF01230023DBB218460837BD46B0
:103EA00080BD80B483B000AF786039603B681A6829
:103EB0007B681A607B681B68383B1B681A467B6806
:103EC00013443A6852681A607B6818460C37BD463E
:103ED0005DF8047B704780B485B000AFF860B960CE
:103EE0001346FB71BB681A68FB681A60FB681B68A5
:103EF0004C3B1B681A46FB681344BA6852681A6048
:103F0000FB681B68383B1B681A46FB681344BA6899
:103F100092681A60FB681B68503B1B681A46FB6876
:103F20001344BA68D2681A60FB6818461437BD4655
:103F30005DF8047B7047000080B582B000AF786008
:103F40000B46FB707B6804331846FFF76FFD7B68F8
:103F500004330F49FA781846FFF778FD7B680D4A5D
:103F600011461846FFF79DFF0B4A7B681A607B6875
:103F700004330A4A1A607B680433084A1A60064A06
:103F80007B681A607B6818460837BD4680BD00BF55
:103F9000ACDE0208B4DE0208F4DD02086CDE0208C2
:103FA00080B582B000AF78607B681B684C3B1B68B3
:103FB0001A467B6813441B79184601F0C9FB00BF01
:103FC0000837BD4680BD80B582B000AF78607B68A1
:103FD0001B684C3B1B681A467B6813441B791846C8
:103FE00001F01AFF00BF0837BD4680BD80B582B022
:103FF00000AF78607B681B6838331B687868984727
:1040000003465B0007EE903AF8EEE77A9FED057AFB
:10401000C7EE876AF0EE667AB0EE670A0837BD46EB
:1040200080BD00BF00801D4580B582B000AF7860C4
:104030007B681B684C3B1B681A467B6813441B79E2
:10404000184601F091FB034618460837BD4680BD6F
:1040500080B483B000AF786039603B681A687B68D1
:104060001A607B681B685C3B1B681A467B681344BC
:104070003A6852681A607B681B68383B1B681A46AE
:104080007B6813443A6892681A607B681B68603BDF
:104090001B681A467B6813443A68D2681A607B68CA
:1040A00018460C37BD465DF8047B704780B582B07A
:1040B00000AF78600B46FB707B6808331846FFF74B
:1040C000B5FC7B6808332249FA781846FFF7BEFC36
:1040D0007B68204A11461846FFF7E3FE7B680433ED
:1040E0001D4A11461846FFF7B7FD7B6810331B4A7F
:1040F00011461846FFF7ACFF7B681949FA78184655
:10410000FFF7E9FE7B6804331649FA781846FFF793
:10411000BDFD154A7B681A607B680833134A1A6034
:104120007B680833114A1A600F4A7B681A60104A8C
:104130007B685A607B6804330D4A1A607B681033D1
:104140000C4A1A607B6818460837BD4680BD00BF20
:1041500014D702081CD7020824D702082CD702085B
:10416000DCD60208ECD60208D4D40208FCD502083A
:1041700070D502088CD6020880B582B000AF786096
:104180007B681B684C3B1B681A467B6813441B7991
:10419000184601F06BFF7B681B684C3B1B681A4696
:1041A0007B6813441B79184601F0D2FA00BF083728
:1041B000BD4680BD80B582B000AF78607B681B686B
:1041C0004C3B1B681A467B6813441B79184601F068
:1041D0004DFF7B681B684C3B1B681A467B68134489
:1041E0001B79184601F018FE00BF0837BD4680BD98
:1041F00080B483B000AF78607B6818460C37BD464A
:104200005DF8047B7047000090B583B000AF786024
:1042100039607868FCF768F97B681846FCF736F96E
:104220003B68184600F07CF90346002B0FD07C68F1
:104230003B461846FFF7DCFF03461946204600F0D0
:104240007FF97B68084ADA607B68084A9A607B6875
:1042500005E07B681846FCF727F90DF033FD18469A
:104260000C37BD4690BD00BF65450108814501087A
:1042700080B483B000AF78607B6818460C37BD46C9
:104280005DF8047B704780B483B000AF78607B68D2
:1042900018460C37BD465DF8047B704780B483B088
:1042A00000AF78607B6818460C37BD465DF8047B2C
:1042B000704790B585B000AFF860B9607A60B868B3
:1042C000FFF7D6FF03461846FFF7DDFF0446786880
:1042D000FFF7E4FF03461A462146F86800F0C1F9EB
:1042E000F8681437BD4690BD80B483B000AF7860E5
:1042F0007B6818460C37BD465DF8047B704780B478
:1043000083B000AF78607B6818460C37BD465DF817
:10431000047B704780B483B000AF78607B68184638
:104320000C37BD465DF8047B704780B582B000AFA6
:1043300078607868FFF7EEFF7B6818460837BD465F
:1043400080BD80B483B000AF78607B6818460C37BE
:10435000BD465DF8047B704780B582B000AF7860E1
:104360007B681846FFF7EDFF034618460837BD4641
:1043700080BD80B582B000AF786039603868FCF7E6
:104380000FFB03461A687B681A607B68184608377B
:10439000BD4680BD90B583B000AF786039607C6861
:1043A0003868FFF7D9FF03461846FCF7F9FA0346C9
:1043B00019462046FFF7DDFF7B6818460C37BD46DF
:1043C00090BD80B582B000AF786039607B683A6894
:1043D00011461846FFF7DEFF7B6818460837BD46D2
:1043E00080BD90B583B000AF786039607868FFF722
:1043F0009CFF3B681846FFF777FF03461A687B6807
:104400001A607B681C1D3B6804331846FFF777FF72
:10441000034619462046FFF7D4FF7B6818460C3741
:10442000BD4690BD80B483B000AF78607B6818460D
:104430000C37BD465DF8047B7047000090B583B033
:1044400000AF786039607868FCF74EF87B681846F2
:10445000FCF71CF8386800F020F90346002B0ED05A
:104460007C683868FFF7DEFF03461946204600F0F7
:104470001FF97B68084ADA607B68084A9A607B68A3
:1044800005E07B681846FCF70FF80DF01BFC18469A
:104490000C37BD4690BD00BFD5460108F546010862
:1044A00080B483B000AF78607B6818460C37BD4697
:1044B0005DF8047B7047000090B583B000AF786072
:1044C00039707868FCF710F87B681846FBF7DEFF58
:1044D0003B46184600F048F90346002B0FD07C6895
:1044E0003B461846FFF7DCFF03461946204600F01E
:1044F00046F97B68084ADA607B68084A9A607B68FC
:1045000005E07B681846FBF7CFFF0DF0DBFB184694
:104510000C37BD4690BD00BFA3470108C147010845
:1045200080B483B000AF78607B68002B14BF012398
:104530000023DBB218460C37BD465DF8047B70479C
:1045400090B585B000AF786039603868FFF750FEED
:10455000034622461946786800F06CF900BF14370C
:10456000BD4690BD80B582B000AF7860786800F03D
:104570007CF903461B68984700BF0837BD4680BDDD
:10458000B0B586B000AFF860B9601346FB71FB7937
:10459000032B27D801A252F823F000BFAD45010834
:1045A000BB450108CF450108DB450108F868FBF76A
:1045B000A6FF02460E4B136014E0F86800F066F99F
:1045C0000446B86800F051F9034623600AE02A4621
:1045D000B968F86800F066F904E02146F86800F070
:1045E0007CF900BF002318461837BD46B0BD00BF98
:1045F00050E3020880B582B000AF78603960386857
:10460000FFF74CFE03461A687B681A607B68184601
:104610000837BD4680BD90B583B000AF7860396083
:104620007C683868FFF73AFE034619462046FFF7D4
:10463000E1FF7B6818460C37BD4690BD90B583B04E
:1046400000AF786039607C683868FFF727FE034662
:1046500019462046FFF7DFFF7B6818460C37BD463A
:1046600090BD90B585B000AFF860B9607A60F86829
:10467000FFF75BFEBB681A68FB681A60FB681C1DCD
:104680007868FFF70BFE034619462046FFF7D6FF72
:10469000FB6818461437BD4690BD80B483B000AFA8
:1046A0007860012318460C37BD465DF8047B7047DF
:1046B00090B585B000AF786039603868FFF7B2FE1A
:1046C000034622461946786800F013F900BF1437F4
:1046D000BD4690BD80B582B000AF7860786800F0CC
:1046E00024F90346184600F02FF900BF0837BD46ED
:1046F00080BD0000B0B586B000AFF860B960134669
:10470000FB71FB79032B27D801A252F823F000BFDD
:10471000214701082F470108434701084F47010877
:10472000F868FBF7ECFE02460E4B136014E0F868E5
:1047300000F01AF90446B86800F0F7F80346236061
:104740000AE02A46B968F86800F01AF904E0214640
:10475000F86800F034F900BF002318461837BD464A
:10476000B0BD00BF2CE3020880B483B000AF786016
:10477000012318460C37BD465DF8047B704790B5A1
:1047800085B000AF786039603868FFF789FE03466E
:1047900022461946786800F023F900BF1437BD4659
:1047A00090BD80B582B000AF7860786800F02FF9D6
:1047B00003461846FFF7C8F800BF0837BD4680BD5E
:1047C000B0B586B000AFF860B9601346FB71FB79F5
:1047D000032B27D801A252F823F000BFED470108B0
:1047E000FB4701080F4801081B480108F868FBF760
:1047F00086FE02460E4B136014E0F86800F018F9CC
:104800000446B86800F003F9034623600AE02A462C
:10481000B968F86800F018F904E02146F86800F07B
:104820002AF900BF002318461837BD46B0BD00BFA7
:1048300024E3020890B585B000AFF860B9603A7122
:10484000B868FFF7D5FC03461C68F868FBF708FE5C
:10485000034619460420FBF765FE0346002B00D0F3
:104860001C6000BF1437BD4690BD80B584B000AF5A
:104870007860786800F00BF90346184600F013F9E9
:10488000F860FB6818461037BD4680BD80B582B021
:1048900000AF78607868FBF7E3FD034618460837F9
:1048A000BD4680BD90B585B000AFF860B9603A7183
:1048B000B86800F0ECF803461C68F868FBF7D0FD18
:1048C000034619460420FBF72DFE0346002B00D0BB
:1048D0001C6000BF1437BD4690BD80B582B000AFEC
:1048E00078603970786800F0E9F800BF0837BD4695
:1048F00080BDB0B584B000AFF860B9603A71B868F7
:10490000FFF790FD054608200DF042F803461C46CF
:1049100029462046FFF765FDF86800F025F80346B4
:104920001C6000BF1037BD46B0BD80B584B000AF7D
:104930007860786800F0CEF803461B68FB60FB687F
:1049400018461037BD4680BD90B585B000AF786081
:10495000FBF7E1FD07F1080322461946786800F0ED
:10496000DEF81437BD4690BD80B582B000AF7860E8
:104970007868FBF775FD034618460837BD4680BDCD
:10498000B0B584B000AFF860B9603A71B86800F0B3
:10499000A1F803461D6808200CF0FAFF03461C46E8
:1049A00023462A4692E8030083E80300F868FFF7ED
:1049B000DBFF03461C6000BF1037BD46B0BD80B5AD
:1049C00082B000AF786039707868FFF7CDFF03469A
:1049D0001B6818460CF012F900BF0837BD4680BDB1
:1049E00080B584B000AFF860B9603A71B868FFF77D
:1049F00057FDF868FBF734FD034619460120FBF725
:104A000091FD0346002B00BF1037BD4680BD80B529
:104A100084B000AF7860786800F09CF803461846D0
:104A200000F0A4F8F860FB6818461037BD4680BD5A
:104A300080B582B000AF78607868FBF711FD03465F
:104A400018460837BD4680BD80B584B000AFF86019
:104A5000B9603A71B86800F07DF8F868FBF700FDBE
:104A6000034619460120FBF75DFD0346002B00BFFE
:104A70001037BD4680BD80B582B000AF7860397018
:104A8000786800F07EF800BF0837BD4680BD80B56D
:104A900082B000AF78607868FBF7EDFC03461846FB
:104AA0000837BD4680BD80B483B000AF78607B68B6
:104AB00018460C37BD465DF8047B704780B582B060
:104AC00000AF78607868FBF7CBFC034618460837E0
:104AD000BD4680BD80B582B000AF78607868FBF7D6
:104AE000CAFC034618460837BD4680BD80B582B073
:104AF00000AF78607868FFF72FFC03461846083748
:104B0000BD4680BD80B582B000AF78607B68184636
:104B1000FFF7ECFF034618460837BD4680BD90B549
:104B200087B000AFF860B9603A71FB681C68FB6839
:104B300004331846FFF7E6FF014607F11403BA688D
:104B4000184600F02AF803461B681846A0471C3791
:104B5000BD4690BD80B582B000AF78607868FBF745
:104B60008AFC034618460837BD4680BD80B483B032
:104B700000AF78607B6818460C37BD465DF8047B53
:104B8000704780B582B000AF78607868FBF768FC4A
:104B9000034618460837BD4680BD80B584B000AFD7
:104BA000F860B9607A60B868FFF778FB034618468A
:104BB0001037BD4680BD80B584B000AF78607B689B
:104BC000FB60F8680AF0BCFB0346BB60BB680433BB
:104BD0001846FFF707F8034683F00103DBB2002B0A
:104BE00005D0BB680C33184600F0D8F804E0BB6869
:104BF0001C33184600F0D2F800BF1037BD4680BD08
:104C000080B582B000AF78600B46FB707868FB78A7
:104C10000B4A52F82330DBB21946FFF767F87B687E
:104C20000C330021184600F0CEF87B681C330021BD
:104C3000184600F0C8F87B6818460837BD4680BDA6
:104C40004004002090B587B002AF78600023FB607D
:104C50007B681B68DC6A09F091FA014607F10C02D7
:104C60000023009313460A46062120460AF0C4F8A2
:104C7000FB68002B03D0044B4FF080521A6000BF3A
:104C80001437BD4690BD00BF04ED00E090B589B07B
:104C900002AF78607B681846FEF76DFE7B680433D0
:104CA0001846FEF724FF0A2005F0ACF80146254B14
:104CB00000937B68002224480AF060F802467B6873
:104CC000DA627B681C33184600F08EF8034683F0E6
:104CD0000103DBB2002B05D07B681C331B4918464F
:104CE00000F09DF87B680C33184600F07DF8034611
:104CF00083F00103DBB2002B05D07B680C33134932
:104D0000184600F08CF87C687A6807F108031146B1
:104D1000184600F0AFF807F108031A4602212046B2
:104D2000FEF7FFFD07F108031846FBF7D0FB06E08E
:104D300007F108031846FBF7CAFB0CF0C3FF1C374A
:104D4000BD4690BDB74B010880E502083B3801081D
:104D500080B582B000AF78600B46FB707868FB7856
:104D6000054A52F82330DBB21946FEF78FFE7B6806
:104D700018460837BD4680BD4004002080B582B08B
:104D800000AF78607B681846FEF7E8FD7B68184640
:104D9000FEF7ADFE00BF0837BD4680BD80B582B0CE
:104DA00000AF78607B681846FCF776F80346002B66
:104DB00001D00DF03DF97B68DB687A6810469847B2
:104DC0000837BD4680BD80B582B000AF78603960DD
:104DD0007868FBF789FB7B681846FBF757FB7B6815
:104DE00018460837BD4680BD80B582B000AF7860F8
:104DF0007B681846FCF750F8034683F00103DBB2EA
:104E000018460837BD4680BD80B483B000AF7860D7
:104E10007B6818460C37BD465DF8047B704780B54B
:104E200086B000AF786039603868FFF7EDFF024662
:104E300007F1080311461846FFF7E6F907F10803E2
:104E40007968184600F04AF807F108031846FBF79E
:104E50003EFB7B6818461837BD4680BD80B483B0E2
:104E600000AF78607B6818460C37BD465DF8047B60
:104E70007047000090B583B000AF78603960786803
:104E8000FBF732FB7B681846FBF700FB3B461846F6
:104E900000F045F80346002B0FD07C683B461846CF
:104EA000FFF7DCFF03461946204600F043F87B6815
:104EB000084ADA607B68084A9A607B6805E07B688C
:104EC0001846FBF7F1FA0CF0FDFE18460C37BD460C
:104ED00090BD00BF594F0108794F010880B582B0DD
:104EE00000AF786039607B683A6811461846FBF776
:104EF0001DFE7B6803F108023B6808331946104623
:104F0000FBF746FE7B6803F10C023B680C33194645
:104F1000104600F076F800BF0837BD4680BD80B46B
:104F200083B000AF7860012318460C37BD465DF8AA
:104F3000047B704790B585B000AF78603960386801
:104F4000FFF78CFF034622461946786800F078F890
:104F500000BF1437BD4690BD80B582B000AF786009
:104F6000786800F088F803461846FFF76BFE00BF2C
:104F70000837BD4680BD0000B0B586B000AFF86010
:104F8000B9601346FB71FB79032B27D801A252F8B5
:104F900023F000BFA54F0108B34F0108C74F010818
:104FA000D34F0108F868FBF7AAFA02460E4B1360CC
:104FB00014E0F86800F070F80446B86800F05BF898
:104FC000034623600AE02A46B968F86800F070F8E2
:104FD00004E02146F86800F086F800BF0023184678
:104FE0001837BD46B0BD00BFB0E5020880B483B03D
:104FF00000AF78607B6818460C37BD465DF8047BCF
:10500000704780B584B000AF786039607868FFF78A
:10501000EDFF03461B68FB603868FFF7E7FF0346B8
:105020001A687B681A6007F10C031846FFF7DEFF69
:1050300003461A683B681A6000BF1037BD4680BD42
:1050400090B585B000AFF860B9603A71B868FFF705
:1050500005FF0446F868FBF703FA034619460420E7
:10506000FBF760FA0346002B01D022681A6000BFEC
:105070001437BD4690BD80B584B000AF78607868C5
:1050800000F03DF80346184600F045F8F860FB686C
:1050900018461037BD4680BD80B582B000AF78603D
:1050A0007868FBF7DDF9034618460837BD4680BD32
:1050B00090B585B000AFF860B9603A71B86800F09B
:1050C0001EF80446F868FBF7CBF90346194604209E
:1050D000FBF728FA0346002B01D022681A6000BFB4
:1050E0001437BD4690BD80B582B000AF786039708E
:1050F000786800F01BF800BF0837BD4680BD80B55A
:1051000082B000AF78607868FBF7B5F903461846BF
:105110000837BD4680BD80B483B000AF78607B683F
:1051200018460C37BD465DF8047B704780B582B0E9
:1051300000AF78607868FBF793F9034618460837A4
:10514000BD4680BD80B582B000AF78607B6801212C
:10515000184604F057FD044A7B681A607B681846BD
:105160000837BD4680BD00BFF4E5020880B582B0B7
:1051700000AF7860054A7B681A607B68184604F0C7
:1051800087FD7B6818460837BD4680BDF4E50208F8
:1051900080B582B000AF78607868FFF7E7FF786885
:1051A0000BF02CFD7B6818460837BD4680BD00001B
:1051B00080B582B000AF786039607B6818460AF02D
:1051C0007FFA054A7B681A607B683A681A617B68D7
:1051D00018460837BD4680BDDCE5020880B582B0C0
:1051E00000AF78600B467B8005487B681B69013BFC
:1051F0007A88194600F0BCF800BF0837BD4680BD6C
:10520000780E002080B582B000AF78600B467B80BE
:1052100005487B681B69013B7A88194600F0C6F88F
:1052200000BF0837BD4680BD780E002080B582B033
:1052300000AF78607B6801211846FFF7B9FF7B68F3
:10524000143302211846FFF7B3FF7B68283303218C
:105250001846FFF7ADFF7B683C3304211846FFF783
:10526000A7FF7B68503305211846FFF7A1FF7B6835
:10527000643306211846FFF79BFF7B681DE07B68BF
:1052800050331846FCF782FFFFE77B683C33184633
:10529000FCF77CFFFFE77B6828331846FCF776FFB6
:1052A000FFE77B6814331846FCF770FFFFE77B6865
:1052B0001846FCF76BFF0CF005FD18460837BD4695
:1052C00080BD000080B582B000AF2248FBF78AFAAB
:1052D0002148FEF743FB2148FEF740FB1E48FEF73E
:1052E000EFFB1E48FEF7ECFB1D48FEF737FB1D48A1
:1052F000FEF734FB1A48FEF7E3FB1B48FEF750FEAF
:1053000000237B607B68052B20DC184A7B681344F4
:105310001B783B603B68DBB20021184601F0D6FEEB
:105320003B68DBB20021184602F03CF83B68DBB278
:1053300044F62061184601F0F7FF3B68DBB21846DF
:1053400002F092F87B6801337B60DBE700BF08372F
:10535000BD4680BDB8E50208440F00204C0F002078
:10536000540F0020600F00205C0F00204C04002030
:1053700080B586B000AFF860B9601346FB80BB68AB
:10538000052B0CDC084ABB6813441B787B617B69E6
:10539000DBB2FA881146184601F062FF00E000BF58
:1053A0001837BD4680BD00BF4C04002080B588B0D2
:1053B00000AFF860B9601346FB80BB68052B14DDB5
:1053C0000023FB61FB69052B1CDC104AFB691344BD
:1053D0001B78BB61BB69DBB2FA881146184601F045
:1053E000A3FFFB690133FB61ECE7084ABB68134488
:1053F0001B787B617B69DBB2FA881146184601F0A5
:1054000093FF00E000BF2037BD4680BD4C04002064
:1054100080B582B000AF786039607B68012B1CD109
:105420003B684FF6FF72934217D10E48FFF78AFE92
:105430000D4A0E490B480BF0DBFB59210C48FEF7D7
:1054400025FB5A210B48FEF721FB57210A48FEF79E
:105450001DFB58210948FEF76FFD00BF0837BD4608
:1054600080BD00BF380F0020000000206D510108F2
:10547000440F00204C0F0020540F00205C0F002030
:1054800080B500AF4FF6FF710120FFF7C1FF80BD6F
:1054900080B500AFFBF74CFA00BF80BD80B500AF10
:1054A000FBF738FA00BF80BD0FB480B582B000AF03
:1054B00007F114037B607968386900F008F8034647
:1054C00018460837BD46BDE8804004B0704780B537
:1054D00082B000AF7860396039687868FBF76CF9A2
:1054E000034618460837BD4680BD0FB480B582B06C
:1054F00000AF07F114037B6079683869FBF786F920
:10550000034618460837BD46BDE8804004B07047E2
:1055100080B582B000AF78607868FBF7DFF900BF34
:105520000837BD4680BD000090B583B000AF7860FD
:105530003960084B1B681B681C68064B18684FF0E5
:10554000FF333A687968A047034618460C37BD46D2
:1055500090BD00BF3804002090B583B000AF7860E4
:105560003960084B1B681B6804331C68054B1868BE
:105570004FF0FF333A687968A047034618460C3766
:10558000BD4690BD380400200FB480B582B000AF96
:1055900007F114037B6079683869FBF76FF90346FC
:1055A00018460837BD46BDE8804004B0704780B556
:1055B00082B000AF78607B684FF47A7202FB03F32D
:1055C000184600F004F800BF0837BD4680BD80B41F
:1055D00085B000AF78607A681346DB0013445B0047
:1055E000FB60FB68013BFB60002B14BF0123002321
:1055F000DBB2002B01D000BFF3E700BF1437BD467C
:105600005DF8047B704780B582B000AF7860786841
:1056100004F055FE00BF0837BD4680BD80B58EB092
:1056200000AF00237B637B6B022B00F384807B6BDA
:10563000DB00434A13443B637B6BDB00414A13446A
:10564000FB6203220021012007F072FD0246FB6A83
:105650001A60FB6A1B68002B06D140223A493B487E
:10566000FFF792FFFFF714FFFB6A18680023002280
:10567000002107F0EFFF012007F0A6FD0246FB6ABC
:105680005A60FB6A5B68002B06D144222E492F48E2
:10569000FFF77AFFFFF7FCFEFB6A58680023002241
:1056A000002107F08FFE3B6B1B680121184606F0B6
:1056B0005FF900237B600023BB600023FB604FF495
:1056C00070633B613B1D184604F06EFF00237B6155
:1056D00000233B7600237B760023FB6100233B62A3
:1056E00000237B62012387F828303B6B5B6807F15E
:1056F00014021146184604F001FF3B6B5B68012160
:10570000184604F079FF12233B7007237B700023B7
:10571000BB700123FB703B46184604F08DFE3B6BCB
:105720005B68012240F20521184605F068F87B6BA2
:1057300001337B6377E700BF3837BD4680BD00BFCC
:1057400060E60208680F002098E60208C0E602083A
:1057500080B483B000AF0346FB7100BF0C37BD4679
:105760005DF8047B7047000080B588B000AF034649
:10577000FB71FB79184600F0DBFE0346FB7797F9D7
:105780001F30B3F1FF3F06D16A2232493248FFF79A
:10579000FBFEFFF77DFE97F91F30304A32F81330D9
:1057A000BB813B7BDB002E4A1344BB613B7BDB00B0
:1057B0002C4A13447B617B7B3B617B6958680023E7
:1057C0000A22002107F046FF0346002B14BF0123E5
:1057D0000023DBB2002B38D0FB790221184600F001
:1057E0006BFEBB6958683B69D9B20723012204F0FC
:1057F0001FFFBB695B68184604F0E4FF7B6918680B
:1058000000234FF0FF32002107F024FF0346012B55
:105810000CBF01230023DBB2002B0DD07B6958683D
:1058200000230022002107F0CDFDBB695B6818460C
:1058300004F0D8FF034609E07B6958680023002282
:10584000002107F0BFFD002300E0002318462037A9
:10585000BD4680BD98E60208C0E6020878E6020868
:1058600060E60208680F002080B584B000AF002316
:105870003B600023FB60FB68022B33DCFB68DB0032
:105880001A4A1344BB60FB68DB00194A13447B606F
:10589000BB685B6840F20521184604F0D9FF034657
:1058A000002B14BF01230023DBB2002B15D07B6833
:1058B00018683A460023002107F050FEBB685B6879
:1058C00040F20521184604F0F1FF3B68002B08D098
:1058D000084B4FF080521A6003E0FB680133FB6015
:1058E000C9E700BF1037BD4680BD00BF60E60208B3
:1058F000680F002004ED00E080B586B000AF1B4BC0
:1059000000221A6000233B6000237B6000233B726F
:105910000023BB720023FB7400237B6108E007F1C6
:105920000B027B69134400221A707B6901337B618F
:105930007B69072BF3DD3B461A4600210C4804F037
:10594000CBFF0C4B186839460023084A07F006FEC7
:105950000346012B05D1054B1B68012B01D107F034
:1059600075FA00BF1837BD4680BD00BF800F00200C
:1059700000640040DC1B002080B582B000AF78607E
:105980007B6800221A607B680433184600F08EF9A9
:105990007B6818460837BD4680BD80B582B000AF31
:1059A00078607B6804331846FAF791FD7B681846E7
:1059B0000837BD4680BD000080B584B000AF034607
:1059C000FB710023FB60FB680F2B0FDC0D4AFB68AB
:1059D000134493F9002097F907309A4202D1FB68EB
:1059E000DBB20BE0FB680133FB60ECE72D220649DC
:1059F0000648FAF721FFFAF79BFFFF2318461037F6
:105A0000BD4680BDD0E60208E0E602080CE70208C9
:105A100090B585B000AF03463960FB71FB7918463D
:105A2000FFF7CAFF0346FB60FB680F2B06DD34223D
:105A300018491948FAF700FFFAF77AFF174AFB6886
:105A4000134493F90030002B06DA3522114912482D
:105A5000FAF7F2FEFAF76CFFFA6813469B0013445C
:105A60009B000F4A1344BB60BB681C68386804F095
:105A7000C9F9024600230021204607F0EBFD03464A
:105A8000012B0CBF01230023DBB218461437BD469F
:105A900090BD00BFE0E602080CE70208D0E602086D
:105AA000840F002080B584B000AF03463A60FB71DC
:105AB0000B46BB71FB791846FFF77EFF0346FB6080
:105AC000FB680F2B06DD3D222D492E48FAF7B4FE68
:105AD000FAF72EFF2C4AFB68134493F90030002B91
