:020000040801F1
:100000000000022099AF01083D0D0108190D0108FB
:10001000610D0108850D0108A90D0108000000000F
:10002000000000000000000000000000F5B1010821
:10003000F9AF010800000000E1B301083DB4010878
:10004000F9AF0108F9AF0108F9AF0108F9AF0108EC
:10005000F9AF0108F9AF0108ED480108FB480108B4
:10006000094901081749010825490108D5FA01087D
:100070001DFB010865FB0108ADFB0108F5FB01084C
:100080003DFC010885FC010841450108F9AF010864
:10009000D1450108F9AF0108F9AF0108334901085A
:1000A000F9AF0108F9AF0108F9AF0108F9AF01088C
:1000B000F9AF010815020208290202086D5D010866
:1000C0007B5D0108515D01085F5D0108F9AF010822
:1000D000F9AF01089178010867780108597801089B
:1000E00059490108F9AF0108F9AF0108F9AF010852
:1000F00001020208F9AF0108F9AF0108CDFC0108BF
:10010000F9AF0108F9AF0108ED010208F9AF0108E4
:10011000F9AF010875780108D50202083D0202080E
:1001200015FD01085DFD0108A5FD0108EDFD0108B3
:1001300035FE0108F9AF0108F9AF0108F9AF010870
:10014000F9AF0108F9AF0108F9AF0108F9AF0108EB
:100150007DFE0108C5FE01080DFF01088378010836
:10016000895D0108975D0108F9AF0108F9AF010841
:10017000F9AF0108F9AF0108F9AF0108F9AF0108BB
:10018000F9AF0108F9AF0108EFBEADDE10B5054CBF
:10019000237833B9044B13B10448AFF30080012333
:1001A000237010BD840A00200000000068230308AB
:1001B00008B5034B1BB103490348AFF3008008BDEA
:1001C00000000000880A00206823030870B50D4E67
:1001D0000D4D761BB61006D00024013455F8043BB3
:1001E0009847A642F9D1094E094D761B1CF06AFCCE
:1001F000B61006D00024013455F8043B9847A642B7
:10020000F9D170BD540A0020540A0020800A002051
:10021000540A0020F0B4860743D0541E002A3ED072
:10022000CAB2034602E014F1FF3438D303F8012BBD
:100230009D07F8D1032C2BD9CDB245EA05250F2C0B
:1002400045EA054516D9A4F110073F0903F1200638
:1002500006EB071603F1100242E9045542E9025584
:100260001032B242F8D104F00F040137032C03EB33
:1002700007130DD91E462246043A032A46F8045BAA
:10028000FAD8221F22F003020432134404F00304BC
:100290002CB1C9B21C4403F8011B9C42FBD1F0BC39
:1002A000704714460346C5E7024B13B1024800F0FD
:1002B00005B8704700000000C9020108002301468C
:1002C0001A46184600F022B838B50A4C0A4D641B8D
:1002D000A4100AD004F18043013B05EB8305013CE7
:1002E00055F804399847002CF9D1BDE838401CF086
:1002F000EFBB00BF840A0020800A0020704700BFC7
:10030000704700BF704700BF704700BF2DE9F8433A
:100310002B4D0646286898460F469146FFF7F2FF98
:10032000284B1C68D4F84831002B3DD05A681F2A4E
:100330000DDC02F1010C16BB0232C3F804C02868C0
:1003400043F82270FFF7E0FF0020BDE8F8831E4B62
:100350007BB34FF4C8701AF077FD034648B3D4F866
:1003600048210021C0E900214FF0010CC4F84801E8
:100370000A46C0F88811C0F88C11002EDCD003EBBF
:1003800082010124C1F88890D3F888019440204369
:10039000022EC3F88801C1F80881CDD1D3F88C11A1
:1003A0000C43C3F88C41C7E704F5A673C4F8483181
:1003B000BCE72868FFF7A8FF4FF0FF30C5E700BF94
:1003C00030040020DCCA020849AE020880B485B0BF
:1003D00000AFF860B9607A603B607B6818461437FC
:1003E000BD465DF8047B704780B485B000AFF8600F
:1003F000B9607A603B60002318461437BD465DF84B
:10040000047B704780B582B000AF002300224FF418
:10041000E131384801F0B0F8364801F036F90346CA
:10042000002B14BF01230023DBB2002BF4D0314892
:1004300000F060F90346FB71FB79612B0ED12E4869
:1004400000F064FF2D4800F06EFF2D4800F06BFFB8
:100450002C4B4FF4FA71184607F012FCFB79732B02
:100460000DD1254800F05FFF244800F04FFF2448DD
:1004700000F059FF234B0021184607F001FCFB79DF
:10048000642B0DD11C4800F04EFF1C4800F04BFFC0
:100490001B4800F03BFF1B4B1B49184607F0F0FBC5
:1004A000FB797A2B0BD1194B4FF47A71184607F070
:1004B000E7FB174B4FF47A71184607F0E1FBFB7925
:1004C000782B09D1114B0021184607F0D9FB104BAE
:1004D0000021184607F0D4FBFB79632B9CD10B4B12
:1004E0000C49184607F0CCFB094B0A49184607F09F
:1004F000C7FB91E7D00D0020AC0E0020B40E002009
:10050000BC0E0020E40C00200CFEFFFFE80C0020D5
:10051000EC0C002018FCFFFF80B483B000AF7860C3
:1005200039603B6818460C37BD465DF8047B704760
:1005300080B483B000AF78607B6818460C37BD4646
:100540005DF8047B704780B483B000AF78607B684F
:1005500018460C37BD465DF8047B704780B483B005
:1005600000AF78607B6800229A607B6818460C3781
:10057000BD465DF8047B704780B582B000AF7860FF
:100580007B689B68002B05D07B689B6878687968DE
:10059000032298477B6818460837BD4680BD80B562
:1005A00082B000AF78607B681B6808331B6878688E
:1005B0009847034618460837BD4680BD80B582B0CF
:1005C00000AF786039607B681B680C331B68396842
:1005D00078689847034618460837BD4680BD80B501
:1005E00082B000AF786039607B683A681A604FF07B
:1005F000FF313868FFF7E2FF7B6818460837BD46D1
:1006000080BD80B582B000AF78607B681B681846FB
:10061000FFF7C5FF7B6818460837BD4680BD80B52B
:1006200084B000AFF8600B467A60FB72FB7A194623
:10063000786800F049F800BF1037BD4680BD000063
:1006400090B597B000AFF860B9607A6007F14C03DD
:100650001C491846FFF7C3FF07F110037A68B96811
:1006600018460EF02FF8FB68BB6407F1500207F143
:1006700010031146184600F070F807F110031846F1
:100680000EF053F803467B657C6D07F110031846A6
:100690000EF039F807F14C031846FFF7B2FF234676
:1006A0000CE007F1100318460EF02DF8FFE707F1F4
:1006B0004C031846FFF7A5FF11F0A6F818465C3763
:1006C000BD4690BDA00A002090B585B000AF78600F
:1006D0000B46FB707B681B681C68F91C4FF0FF33EE
:1006E00001227868A0470346FB60FB681846143770
:1006F000BD4690BD90B585B000AF78607B681B6843
:1007000004331C6807F10B014FF0FF3301227868B6
:10071000A0470346FB60FB68002B01DCFB6800E0A0
:10072000FB7A18461437BD4690BD80B483B000AF45
:1007300078607B6818460C37BD465DF8047B7047CF
:1007400080B582B000AF78607B681846FFF714FF71
:100750007B6818460837BD4680BD90B587B000AFAE
:10076000786039603868FFF7E0FF07F10803214639
:10077000184600F033F807F108037968184600F0CE
:1007800061F807F108031846FFF7DAFF7B6818469F
:100790001C37BD4690BD80B483B000AF78607B68E5
:1007A00018460C37BD465DF8047B704780B582B0B3
:1007B00000AF78607868FFF7EEFF7B68184608376F
:1007C000BD4680BD80B483B000AF78607B681846BA
:1007D0000C37BD465DF8047B7047000090B583B0D0
:1007E00000AF786039707868FFF7E0FF7B681846E3
:1007F000FFF7B4FE3B46184600F045F80346002BD1
:100800000FD07C683B461846FFF7DCFF03461946CD
:10081000204600F043F87B68084ADA607B68084AA3
:100820009A607B6805E07B681846FFF7A5FE10F02C
:10083000EBFF18460C37BD4690BD00BFED08010820
:100840002909010880B582B000AF786039607B6803
:100850003A681146184600F0ACF87B6803F10802CC
:100860003B6808331946104600F0D5F87B6803F161
:100870000C023B680C331946104600F0F6F800BF36
:100880000837BD4680BD80B483B000AF78600123D7
:1008900018460C37BD465DF8047B704790B585B0AF
:1008A00000AF786039603868FFF78CFF0346224656
:1008B0001946786800F0F8F800BF1437BD4690BDBF
:1008C00080B483B000AF78607B6818460C37BD46B3
:1008D0005DF8047B704780B483B000AF78607B68BC
:1008E00018460C37BD465DF8047B7047B0B584B040
:1008F00000AFF860B9607A60F86800F0ECF805467F
:10090000B868FFF7DDFF03461C787868FFF7E3FF60
:1009100003461B681A4621462846FFF780FE00BFA3
:100920001037BD46B0BD0000B0B586B000AFF8606E
:10093000B9601346FB71FB79032B27D801A252F84B
:1009400023F000BF55090108630901087709010870
:1009500083090108F86800F0CFF802460E4B1360D7
:1009600014E0F86800F0D4F80446B86800F0B3F872
:10097000034623600AE02A46B968F86800F0D4F814
:1009800004E02146F86800F0E6F800BF00231846AE
:100990001837BD46B0BD00BF68CB020880B483B035
:1009A00000AF78607B6818460C37BD465DF8047B65
:1009B000704780B584B000AF786039607868FFF721
:1009C000EDFF024607F1080392E8030083E8030005
:1009D0003868FFF7E3FF02467B6892E8030083E88C
:1009E000030007F108031846FFF7D8FF02463B68EB
:1009F00092E8030083E8030000BF1037BD4680BDC6
:100A000080B483B000AF78607B6818460C37BD4671
:100A10005DF8047B704780B584B000AF78603960C2
:100A20007868FFF7EDFF03461B68FB603868FFF747
:100A3000E7FF03461A687B681A6007F10C03184643
:100A4000FFF7DEFF03461A683B681A6000BF1037E5
:100A5000BD4680BD80B483B000AF78607B68184627
:100A60000C37BD465DF8047B704780B584B000AF9D
:100A7000786039607868FFF7EDFF03461B68FB601C
:100A80003868FFF7E7FF03461A687B681A6007F1CA
:100A90000C031846FFF7DEFF03461A683B681A602E
:100AA00000BF1037BD4680BD80B584B000AFF86090
:100AB000B9603A71B868FFF785FEF868FFF738FD4E
:100AC000034619460120FFF727FD0346002B00BF10
:100AD0001037BD4680BD80B584B000AF78607868BF
:100AE00000F045F80346184600F04DF8F860FB6842
:100AF00018461037BD4680BD80B582B000AF786023
:100B00007868FFF715FD034618460837BD4680BDD7
:100B100080B582B000AF78607868FFF709FD0346C2
:100B200018460837BD4680BD80B584B000AFF86078
:100B3000B9603A71B86800F01AF8F868FFF7F8FC85
:100B4000034619460120FFF7E7FC0346002B00BFD0
:100B50001037BD4680BD80B582B000AF7860397077
:100B6000786800F01BF800BF0837BD4680BD80B52F
:100B700082B000AF78607868FFF7E5FC034618465E
:100B80000837BD4680BD80B483B000AF78607B6815
:100B900018460C37BD465DF8047B704780B582B0BF
:100BA00000AF78607868FFF7C3FC03461846083743
:100BB000BD4680BD80B582B000AF786039607B688B
:100BC000012B0DD13B684FF6FF72934208D10021F3
:100BD000054807F037FE054A0549034810F0DCFEDA
:100BE00000BF0837BD4680BDA00A002000000020DD
:100BF000D188010880B500AF4FF6FF710120FFF7E3
:100C0000D9FF80BD80B582B000AF78607B681846A0
:100C1000FFF7B2FC7B6818460837BD4680BD80B43C
:100C200083B000AF786039603B681A687B681A60EF
:100C30007B681B68183B1B681A467B6813443A683C
:100C400052681A607B6818460C37BD465DF8047B15
:100C50007047000080B500AF03F04CFB002300227A
:100C60004FF4E121064800F087FC002300220549EB
:100C7000054800F081FC02480DF012F900BF80BD6C
:100C8000C40E002020A107006C0D002080B582B0AA
:100C900000AF7860064800F039FBFFF7DBFF0CF08F
:100CA0009DFF00200BF00CFB00BF0837BD4680BD48
:100CB000AC0E002080B584B004AF4FF4407008F053
:100CC000C7F901214FF4800009F016FB01214FF410
:100CD000001009F011FB0D4B01221A600023039351
:100CE00000230293002301930423009300234FF475
:100CF000C872074907480BF01DFA0346012B0BF099
:100D0000A9FB00231846BD4680BD00BFDC0E0020B5
:100D100094CB02088D0C010880B500AF054B1B6811
:100D2000012B02D104480DF065F90DF08DF900BFDB
:100D300080BD00BFDC0E00209CCB020880B500AF58
:100D4000054B1B68012B02D104480DF053F90DF03F
:100D50007BF900BF80BD00BFDC0E0020B0CB0208D5
:100D600080B500AF054B1B68012B02D104480DF084
:100D700041F90DF069F900BF80BD00BFDC0E002015
:100D8000C0CB020880B500AF054B1B68012B02D118
:100D900004480DF02FF90DF057F900BF80BD00BFDA
:100DA000DC0E0020D4CB020880B500AF054B1B68D9
:100DB000012B02D104480DF01DF90DF045F900BFDB
:100DC00080BD00BFDC0E0020E8CB020880B582B0F9
:100DD00000AF7860094A7B681A60084A7B681A602D
:100DE000064A7B681A607B68054A11461846FFF779
:100DF00016FF7B6818460837BD4680BDA8CC0208A0
:100E0000D4CC020880B582B000AF78607B681B68E4
:100E10001C3B1B681A467B6813441846FFF7D6FF35
:100E2000034618460837BD4680BD00BF80B582B076
:100E300000AF7860094A7B681A60084A7B681A60CC
:100E40007B686433064A1A607B684C331846FFF7A8
:100E5000BDFF7B6818460837BD4680BDE4CD02085B
:100E600054CE020880B582B000AF78607B681C3336
:100E70001846FFF7C7FE7B680C331846FFF7C2FE23
:100E80007B6818460837BD4680BD80B582B000AF8C
:100E900078607B684C331846FFF798FF7B681846EC
:100EA0000837BD4680BD000080B582B000AF7860D5
:100EB000054A7B681A607B6818460CF073FE7B68F5
:100EC00018460837BD4680BD48E7020880B582B0A5
:100ED00000AF78607868FFF7E7FF78680FF002FFEF
:100EE0007B6818460837BD4680BD80B582B000AF2C
:100EF00078607B6864331846FFF7D6FF7B68503311
:100F00001846FFF7D1FF7B683C331846FFF7CCFF4C
:100F10007B6828331846FFF7C7FF7B6814331846F1
:100F2000FFF7C2FF7B681846FFF7BEFF7B681846D5
:100F30000837BD4680BD000080B582B000AF786044
:100F400039607B68012B40F093803B684FF6FF725D
:100F5000934240F08D800021474800F0C1FF0121FD
:100F6000464800F0BDFF0221454801F059F8454AC6
:100F70004549434810F010FD0321444801F050F862
:100F8000404A4149414810F007FD0421404800F023
:100F900087FF05213F4800F083FF00213E4806F00F
:100FA00041FE01213D4806F03DFE02213C4806F08D
:100FB00039FE03213B4806F035FE374A3A4B1A60AA
:100FC000364A394B5A60364A374B9A60354A364B67
:100FD000DA600021354802F07FFC2A4A3449334860
:100FE00010F0DAFC0121334802F076FC254A304942
:100FF000304810F0D1FC02212F4802F015FD0421E9
:101000002E4800F069FA1F4A2D492C4810F0C4FC04
:101010002C4800F0ACF91B4A2B492A4810F0BCFCC4
:101020002A4800F021FA2A4802F06CFF154A2949A3
:10103000274810F0B1FC284801F017FA114A274957
:10104000254810F0A9FC0021254800F03BF90121BA
:10105000244800F037F90221234800F033F9002139
:10106000224800F039FA074A1549204810F094FC4C
:1010700000BF0837BD4680BDAC0A0020140B00201D
:101080007C0B0020000000202D0E0108E40B002046
:101090004C0C0020980C0020E40C0020E80C0020F0
:1010A000EC0C0020F00C0020F40C0020040D0020BB
:1010B000650E0108340D0020640D00206C0D002029
:1010C000CD0D0108840D00208B0E0108280E002094
:1010D000300E0020EB0E0108A80E0020B3240108FA
:1010E000AC0E0020B40E0020BC0E0020C40E002068
:1010F00080B500AF4FF6FF710120FFF71DFF80BDE7
:1011000080B584B000AF7860104B1B68002B02D113
:101110000E4B0F4A1A600D4B1B68FB600B4B1A6895
:101120007B681344094A1360084B1B6803F58073FE
:10113000084A934204DD084803F056F803F014F817
:10114000FB6818461037BD4680BD00BFE00E00208A
:10115000483200200000022000CC020880B483B096
:1011600000AF78604FF0FF3318460C37BD465DF88E
:10117000047B704780B483B000AF786039603B680F
:101180004FF400525A60002318460C37BD465DF8F4
:10119000047B704780B483B000AF786001231846A9
:1011A0000C37BD465DF8047B704780B485B000AF56
:1011B000F860B9607A60002318461437BD465DF8C0
:1011C000047B704780B584B000AFF860B9607A6086
:1011D000FB68002B05D10121B86803F029F803460C
:1011E00000E0002318461037BD4680BD80B584B0AE
:1011F00000AFF860B9607A60FB68012B05D17968AF
:10120000B86800F019F8034600E0002318461037CC
:10121000BD4680BD90B585B000AF064B3C460FCBB8
:1012200007C423803B460E21184600F005F802F063
:101230009BFF00BF18CC020880B586B000AF786075
:10124000396000237B6100233B612FE03A693B68F2
:101250009A420ED13A697B69D31AFB60FB68002B76
:1012600021DD7B697A681344F968184602F0C8FFEB
:1012700019E03B697A6813441B780A2B13D13A6949
:101280007B69D31ABB607B697A681344B9681846D6
:1012900002F0B6FF02210A4802F0B2FFBB68013338
:1012A0007A6913447B613B6901333B613A693B686E
:1012B0009A42CBDD3B6818461837BD4680BD00BF5B
:1012C00038CC020880B582B000AF78600B46FB7066
:1012D0007868FB78044AD35C194601F021FA7B68F0
:1012E00018460837BD4680BD3CCC020880B582B0A8
:1012F00000AF78607B68184601F07AF97B68184681
:1013000001F028FA00BF0837BD4680BD80B582B025
:1013100000AF78607B680121184601F0BBFA00BF7E
:101320000837BD4680BD80B582B000AF78607B686D
:101330000021184601F0AEFA00BF0837BD4680BD57
:1013400080B582B000AF78600B46FB707B68FA789E
:101350001146184601F09EFA00BF0837BD4680BD11
:1013600080B400AF00BFBD465DF8047B704780B518
:1013700082B000AF78607B681821184601F0E0FC6D
:101380007B6814331921184601F0DAFC7B68283396
:101390001A21184601F01AFC7B6834331B211846C9
:1013A00001F014FC7B6840331C21184601F00EFC50
:1013B0007B684C330121184600F08EF87B6864335B
:1013C0000021184600F0B6FF7B688C3302211846D6
:1013D00000F0DAFE7B6806E07B684C331846FFF7C6
:1013E000F5FC10F011FA18460837BD4680BD000024
:1013F00080B582B000AF78607B686433184600F037
:10140000D9FF7B688C3342F21071184600F0EEFE73
:101410007B680433184601F0F8F87B6818331846E7
:1014200001F0F3F87B682C33184601F0E1F87B6893
:101430003833184601F0DCF87B684433184601F075
:10144000D7F87B6803F14C00002300224FF4613190
:1014500000F092F8034802F0B4FE00BF0837BD4622
:1014600080BD00BF40CC020880B582B000AF78607C
:101470007B682E21184601F053F97B68184608371F
:10148000BD4680BD80B483B000AF7860044A7B68FD
:101490001A607B6818460C37BD465DF8047B7047C0
:1014A00020CB020880B483B000AF786039603B681D
:1014B0001A687B681A607B681B68183B1B681A46B1
:1014C0007B6813443A6852681A607B6818460C3788
:1014D000BD465DF8047B704780B582B000AF786090
:1014E0000B46FB707B681846FFF7CCFF7B681F4AF2
:1014F00011461846FFF7D6FF1D4A7B681A601C4A42
:101500007B681A601A4A7B681A607B68181DFB7832
:10151000184ADB0013441B79194601F001F97B6876
:1015200003F10C00FB78134ADB0013445B79194686
:1015300001F0F6F814200CF03DFC02467B685A617D
:101540007B685B6900221A747B685B69FA781A70A1
:101550007B6807E07B68054A11461846FFF75FFB8A
:1015600010F052F918460837BD4680BDD4CC0208A9
:10157000A8CC020854CC020890B587B002AFF8603E
:10158000B9607A603B60FB685B697A689A60FB6867
:101590005B693A68DA60FB685B69BA685A60FB6845
:1015A0005B691878FB685B695968FB685B699B68D5
:1015B000DAB2FB685B69DB68DCB200230093234688
:1015C00005F0E6F900BF1437BD4690BD80B586B082
:1015D00000AFF860B9607A603B607B68002B01D196
:1015E00000230AE0FB685B6918787A683B68B96891
:1015F00005F050FC03467B617B6918461837BD46F1
:1016000080BD80B586B000AFF860B9607A603B609D
:10161000FB685B6918787A683B68B96805F060FC1C
:1016200003467B617B6918461837BD4680BD90B57F
:1016300085B002AF786039607B685B693A685A6050
:101640007B685B6918787B685B6959687B685B6954
:101650009B68DAB27B685B69DB68DCB200230093CD
:10166000234605F095F900BF0C37BD4690BD80B507
:1016700082B000AF78607B685B691B78184605F024
:10168000A1FF00BF0837BD4680BD80B582B000AF66
:1016900078607B685B691B78184605F0B5FF0346E8
:1016A00018460837BD4680BD80B582B000AF78606F
:1016B0007868FFF78BFB78680FF014FB7B6818469F
:1016C0000837BD4680BD80B582B000AF78607B68CA
:1016D0001B681C3B1B681A467B6813441846FFF7BF
:1016E000E3FF034618460837BD4680BD80B483B08B
:1016F00000AF7860044A7B681A607B6818460C3734
:10170000BD465DF8047B7047DCD2020880B483B02C
:1017100000AF786039603B681A687B681A607B6844
:101720001B68283B1B681A467B6813443A6852685A
:101730001A607B6818460C37BD465DF8047B70471D
:1017400080B582B000AF786039607B681846FFF7DB
:10175000CDFF7B680D4A11461846FFF7D7FF0C4AAC
:101760007B681A600A4A7B681A60094A7B681A60BB
:101770007B683A685A607B680833396818460DF010
:1017800063FA7B6818460837BD4680BD80D20208E0
:101790004CD2020880B483B000AF78607B68083315
:1017A00018460C37BD465DF8047B704780B582B0A3
:1017B00000AF78607B681B682C3B1B681A467B680F
:1017C00013441846FFF7E6FF034618460837BD46A0
:1017D00080BD80B582B000AF78607B685B681B68B5
:1017E00008331B687A6852681046984703461846C3
:1017F0000837BD4680BD80B582B000AF78607B6899
:101800001B68143B1B681A467B6813441846FFF795
:10181000E0FF034618460837BD4680BD80B582B05C
:1018200000AF78607B685B681B680C331B687A6864
:10183000526810469847034618460837BD4680BD93
:1018400080B582B000AF78607B681B68183B1B686E
:101850001A467B6813441846FFF7E0FF0346184614
:101860000837BD4680BD80B582B000AF78607B6828
:101870005B681B6810331B687A685268104698478B
:10188000034618460837BD4680BD80B582B000AF1C
:1018900078607B681B681C3B1B681A467B68134496
:1018A0001846FFF7E0FF034618460837BD4680BDDF
:1018B00080B582B000AF78607B685B681B681433CA
:1018C0001B687A68526810469847034618460837DE
:1018D000BD4680BD80B582B000AF78607B681B6874
:1018E000203B1B681A467B6813441846FFF7E0FF4D
:1018F000034618460837BD4680BD80B582B000AFAC
:1019000078607B685B681B6804331B687A68526880
:101910001046984700BF0837BD4680BD80B582B0ED
:1019200000AF78607B681B68303B1B681A467B6899
:1019300013441846FFF7E1FF0837BD4680BD80B568
:1019400082B000AF78607B685B681B681B687A6850
:1019500052681046984700BF0837BD4680BD80B525
:1019600082B000AF78607B681B680C3B1B681A462E
:101970007B6813441846FFF7E2FF0837BD4680BD79
:1019800080B582B000AF78607B685B681B68043309
:101990001B687A6852681046984700BF0837BD46F2
:1019A00080BD80B582B000AF78607B681B68103B5B
:1019B0001B681A467B6813441846FFF7E1FF083797
:1019C000BD4680BD80B483B000AF78607B681846A8
:1019D0000C37BD465DF8047B704780B582B000AF20
:1019E00078607868FFF7EEFF024613461B68343BC9
:1019F0001B68134418460837BD4680BD80B582B0C9
:101A000000AF78607B681B68243B1B681A467B68C4
:101A100013441846FFF7E1FF034618460837BD4652
:101A200080BD80B582B000AF78607B68083342F239
:101A3000107118460DF032F900BF0837BD4680BD61
:101A400080B483B000AF78607B68043318460C37ED
:101A5000BD465DF8047B704780B582B000AF78600A
:101A60007868FFF7EDFF024613461B68583B1B687A
:101A7000134418460837BD4680BD80B582B000AF1C
:101A800078607B681B68143B1B681A467B681344AC
:101A90001846FFF7E1FF034618460837BD4680BDEC
:101AA00080B483B000AF78607B68183318460C3779
:101AB000BD465DF8047B704780B582B000AF7860AA
:101AC0007868FFF7EDFF024613461B68383B1B683A
:101AD000134418460837BD4680BD80B582B000AFBC
:101AE00078607B681B68183B1B681A467B68134448
:101AF0001846FFF7E1FF034618460837BD4680BD8C
:101B000080B483B000AF78607B68203318460C3710
:101B1000BD465DF8047B704780B582B000AF786049
:101B20007868FFF7EDFF024613461B68383B1B68D9
:101B3000134418460837BD4680BD80B582B000AF5B
:101B400078607B681B681C3B1B681A467B681344E3
:101B50001846FFF7E1FF034618460837BD4680BD2B
:101B600080B483B000AF78607B68283318460C37A8
:101B7000BD465DF8047B704780B582B000AF7860E9
:101B80007868FFF7EDFF024613461B68383B1B6879
:101B9000134418460837BD4680BD80B582B000AFFB
:101BA00078607B681B68203B1B681A467B6813447F
:101BB0001846FFF7E1FF034618460837BD4680BDCB
:101BC00080B483B000AF78607B68343318460C373C
:101BD000BD465DF8047B704780B582B000AF786089
:101BE0007868FFF7EDFF024613461B68343B1B681D
:101BF000134418460837BD4680BD80B582B000AF9B
:101C000078607B681B68243B1B681A467B6813441A
:101C10001846FFF7E1FF034618460837BD4680BD6A
:101C200080B483B000AF78607B684C3318460C37C3
:101C3000BD465DF8047B704780B582B000AF786028
:101C40007B681B682C3B1B681A467B68134418464C
:101C5000FFF7E6FF034618460837BD4680BD80B44F
:101C600083B000AF78607B684C3318460C37BD46B4
:101C70005DF8047B704780B582B000AF786078680B
:101C8000FFF7EDFF024613461B682C3B1B6813440D
:101C900018460837BD4680BD80B582B000AF786079
:101CA0007B681B682C3B1B681A467B6813441846EC
:101CB000FFF7E1FF034618460837BD4680BD000028
:101CC00080B584B000AFF860B9601346FB71BB68A3
:101CD0001A68FB681A60FB681B68283B1B681A4679
:101CE000FB681344BA6852681A60FB68181DFA79D9
:101CF000294913465B0013445B000B4402331B78F5
:101D0000194601F01DF8FB6803F11800FA79224921
:101D100013465B0013445B000B4403331B781946E6
:101D200000F0FEFCFB6803F12000FA791A49134623
:101D30005B0013445B000B4404331B78194600F02E
:101D4000EFFCFB6803F12800FA79134913465B00A6
:101D500013445B000B4405331B78194600F0E0FC8C
:101D6000FB68FA7983F83020FB68002283F8312081
:101D7000FB6803F13402FB681B68283B1B681946AB
:101D8000FB680B4419461046FFF7DAFCFB6818465F
:101D90001037BD4680BD00BF74CD020880B582B04B
:101DA00000AF78607B6893F8303019460F480CF02C
:101DB000A5F87B680833184600F027FC7B681833C9
:101DC000184600F015FC7B682033184600F010FC24
:101DD0007B682833184600F00BFC7B681B681B6887
:101DE0007868984700BF0837BD4680BD98CD020887
:101DF00080B483B000AF78607B68002283F8312024
:101E000000BF0C37BD465DF8047B704780B582B0DB
:101E100000AF78607B681B6834331B68786898472C
:101E20007B6893F83130012B0ED07B682033184645
:101E300000F0DEFB7B682833184600F0D9FB7B6896
:101E4000012283F8312000E000BF0837BD4680BD85
:101E500080B582B000AF78607B681B6834331B6844
:101E6000786898477B6893F83130042B13D07B68EF
:101E70002033184600F0BCFB7B682833184600F07E
:101E8000B7FB7B6834331846FFF7CBFD7B68042231
:101E900083F8312000E000BF0837BD4680BD000058
:101EA00080B582B000AF78600B46FB707B68184647
:101EB000FFF71CFC7B680849FA781846FFF700FF1B
:101EC000064A7B681A60054A7B681A607B68184678
:101ED0000837BD4680BD00BFACD1020870D10208F2
:101EE00080B582B000AF78600B46FB707B68184607
:101EF000FFF7FCFB7B686433144A11461846FFF772
:101F000005FC7B681249FA781846FFF7D9FE114A9A
:101F10007B681A600F4A7B681A607B6864330E4ADC
:101F20001A607B6803F14C00FA780C4913465B0099
:101F300013445B000B4401331B78194600F024F96D
:101F40007B6818460837BD4680BD00BF54D00208E4
:101F500044D00208ACCF02081CD0020874CD02089D
:101F600080B582B000AF78607B681B6834331B6833
:101F7000786898477B6893F83130022B0BD07B68E8
:101F80004C3342F21071184600F030F97B6802229F
:101F900083F8312000E000BF0837BD4680BD80B522
:101FA00082B000AF78607B681B68303B1B681A46C4
:101FB0007B6813441846FFF7D3FF0837BD4680BD42
:101FC00080B582B000AF78607B6893F83130022B27
:101FD00004D17B684C33184600F018F97B68002266
:101FE00083F8312000BF0837BD4680BD80B483B080
:101FF00000AF786039603B681A687B681A607B685C
:102000001B68283B1B681A467B6813443A68526871
:102010001A607B6818460C37BD465DF8047B704734
:1020200080B582B000AF78600B46FB707B681846C5
:10203000FFF75CFB7B686433134A11461846FFF7D1
:10204000D5FF7B681149FA781846FFF739FE104A28
:102050007B681A600E4A7B681A607B6864330D4A9D
:102060001A607B6803F14C00FA780B4913465B0059
:1020700013445B000B441B781946FFF72DFA7B686D
:1020800018460837BD4680BD8CCE02087CCE0208BB
:10209000E4CD020854CE020874CD020880B582B0A7
:1020A00000AF78607B681B6834331B687A68104621
:1020B00098477B6893F83130032B0DD07B6803F190
:1020C0004C00002300224FF4E121FFF755FA7B6812
:1020D000032283F8312000E000BF0837BD4680BDF1
:1020E00080B582B000AF78607B681B68303B1B68AE
:1020F0001A467B6813441846FFF7D0FF0837BD46E1
:1021000080BD000080B582B000AF0346FB71FB7953
:10211000042B1DD801A252F823F000BF5121010861
:102120003121010839210108412101084921010813
:1021300009480BF0E3FE0BE008480BF0DFFE07E078
:1021400007480BF0DBFE03E006480BF0D7FE00BFAC
:102150000837BD4680BD00BFC0D40208CCD40208F9
:10216000D8D40208E4D4020880B483B000AF786009
:10217000044A7B681A607B6818460C37BD465DF8D8
:10218000047B704714D5020880B582B000AF786038
:102190000B46FB707B681846FFF7E6FF114A7B6829
:1021A0001A607B68181DFB780F4ADB0013441B790B
:1021B000194600F0B5FA7B6803F10C00FB780A4A77
:1021C000DB0013445B79194600F0AAFAFB78064A53
:1021D00052F833207B685A617B6818460837BD4641
:1021E00080BD00BFFCD40208A8D4020880B582B02C
:1021F00000AF786039607B685B69DBB2396818468C
:1022000003F07AF800BF0837BD4680BD80B582B0C4
:1022100000AF78607B685B69DBB2184603F0E4F8D6
:1022200000BF0837BD4680BD80B582B000AF786082
:1022300039607B685B69DBB23968184603F024F9C2
:1022400000BF0837BD4680BD80B586B000AFF860DE
:102250007A603B600B46FB72FB685B69D8B2F97A27
:102260003B687A6803F03EF90346FB75FB7D184630
:10227000FFF748FFFB7D002BD4BF01230023DBB217
:1022800018461837BD4680BD80B586B000AFF860EF
:102290007A603B600B46FB72FB685B69D8B2F97AE7
:1022A0003B687A6803F050F90346FB75FB7D1846DE
:1022B000FFF728FFFB7D002BD4BF01230023DBB2F7
:1022C00018461837BD4680BD80B58AB004AFF860A7
:1022D0007A603B600B46FB72FB685B69D8B2F97AA7
:1022E000BB6A02937B6A01933B6A00933B687A68FE
:1022F00003F05EF90346FB75FB7D1846FFF702FF0E
:10230000FB7D002BD4BF01230023DBB21846183716
:10231000BD4680BD80B483B000AF7860044A7B685E
:102320001A607B6818460C37BD465DF8047B704721
:1023300094D5020880B582B000AF78600B46FB7080
:102340007B681846FFF7E6FF184A7B681A60174A51
:102350007B681A607B68181DFB78154A9B00134444
:102360005B78194600F0DCF97B6803F10C00FB7820
:102370000F4A9B0013449B78194600F027FC7B68AA
:1023800003F11800FB780A4A9B001344DB781946D6
:1023900000F01CFCFB78064A12F823301A467B68D2
:1023A0005A627B6818460837BD4680BD80D5020852
:1023B00060D5020880B582B000AF78607B685B6A48
:1023C000DBB238220021184604F004F8786800F0E7
:1023D0003EF800BF0837BD4680BD80B584B000AF71
:1023E000F860B9607A60FB685B6AD8B27B680022EB
:1023F000B96804F085F9012318461037BD4680BD41
:1024000080B584B000AFF860B9607A60FB685B6A41
:10241000D8B27B68BA68FF2104F072F9012318462C
:102420001037BD4680BD80B584B000AFF860B9609C
:102430007A603B60FB685B6AD8B23B687A68B968CF
:1024400004F05EF9012318461037BD4680BD80B503
:1024500082B000AF78607B685B6ADBB2184604F03C
:10246000F5F800BF0837BD4680BD80B582B000AF2B
:1024700078604FF40E700BF09DFC02467B681A608A
:102480007B681B6800221A70342002F031FB342074
:1024900002F090FC342002F0C3FC342002F056FD20
:1024A0000121342002F014FE7B6818460837BD462F
:1024B00080BD80B582B000AF78607B681B6818462D
:1024C0000BF084FC7B6818460837BD4680BD80B49D
:1024D00000AF00BFBD465DF8047B704790B589B082
:1024E00000AFF860B9607A60FB681B6848331C680D
:1024F00007F110030C49184600F0DAFC07F110034D
:102500007A68B968F868A04707F110031846FEF723
:1025100079FB06E007F110031846FEF773FB0FF096
:1025200073F92437BD4690BDCF24010890B585B01E
:1025300000AFF860B9607A603B60FB681B684833A5
:102540001C683B687A68B968F868A04700BF143710
:10255000BD4690BD90B58BB000AFF860B9607A60B1
:102560003B60FB681B6848331C6807F12003394651
:1025700007F13802184600F0F0FC07F1200207F1DD
:1025800010031146184600F0ADFD07F110037A68FC
:10259000B968F868A04707F110031846FEF732FB48
:1025A00006E007F110031846FEF72CFB0FF02CF99C
:1025B0002C37BD4690BD90B585B000AFF860B960CE
:1025C0007A60FB681B6848331C687B680022B96826
:1025D000F868A04700BF1437BD4690BD80B483B0F3
:1025E00000AF786000BF0C37BD465DF8047B7047D4
:1025F00080B582B000AF78607B681B79184602F026
:1026000077FA00BF0837BD4680BD90B589B000AFEE
:1026100078607B681B685C3B1B681A467B681344C8
:102620001C7907F10C03184600F09AFD07F10C0322
:102630001A460121204602F0A1F807F10C031846C2
:10264000FEF7E0FA7B681B685C3B1B681A467B68F8
:1026500013441B790121184602F0D2FA7B681B68EB
:102660005C3B1B681A467B6813441B79184602F0D2
:1026700069FB7B681B685C3B1B681A467B681344DC
:102680001B79184602F034FA06E007F10C031846ED
:10269000FEF7B8FA0FF0B8F82437BD4690BD80B504
:1026A00082B000AF78607B681B683C3B1B681A46B1
:1026B0007B6813441846FFF7A8FF0837BD4680BD66
:1026C00080B483B000AF7860044A7B681A607B688E
:1026D00018460C37BD465DF8047B70475CE4020881
:1026E00080B485B000AFF860B9601346FB71BB6879
:1026F0001A68FB681A60FB681B68383B1B681A463F
:10270000FB681344BA6852681A60FB68FA791A7158
:10271000FB6818461437BD465DF8047B704700001F
:1027200080B582B000AF78600B46FB707B681846BE
:10273000FFF7C6FF064A7B681A60054A7B681A6085
:102740007B68FA781A717B6818460837BD4680BDE9
:1027500024E4020880B582B000AF78607B681B7902
:10276000184602F027FB7B681B79184602F058FBDD
:102770007B681B79184602F0E9FB00BF0837BD46AD
:1027800080BD80B582B000AF78607B681B79184649
:1027900002F0ACFB7B681B79184602F0D7FB00BF48
:1027A0000837BD4680BD80B582B000AF78607B68D9
:1027B0001B79184602F09AFB7B681B79184602F0D9
:1027C000F5FB00BF0837BD4680BD80B582B000AFC5
:1027D00078607B681B79184602F088FB7B681B7960
:1027E000184602F019FC00BF0837BD4680BD80B511
:1027F00082B000AF78607B681B79184602F0DAFA85
:102800007B681B79184602F03BFB7B681B791846F6
:1028100002F09CFB00BF0837BD4680BD80B582B08A
:1028200000AF78607B681B79184602F0C3FA7B68BA
:102830001B79184602F024FB7B681B79184602F0CE
:10284000B5FB00BF0837BD4680BD80B582B000AF84
:1028500078607B681B79184602F0ACFA7B681B79BC
:10286000184602F00DFB7B681B79184602F0D4FB7A
:1028700000BF0837BD4680BD80B582B000AF78602C
:102880007B681B79184602F0FDFB034618460837A3
:10289000BD4680BD80B582B000AF78600B46FB704E
:1028A0007B681B79FA781146184602F011FC00BFCC
:1028B0000837BD4680BD80B582B000AF78607B68C8
:1028C0001B79184602F03CFC00BF0837BD4680BDAE
:1028D00080B582B000AF78607B681B682C331B68C2
:1028E0007868984700BF0837BD4680BD80B483B084
:1028F00000AF786039603B681A687B681A607B6853
:102900001B68383B1B681A467B6813443A68526858
:102910001A607B6818460C37BD465DF8047B70472B
:1029200080B485B000AFF860B9601346FB71BB6836
:102930001A68FB681A60FB681B685C3B1B681A46D8
:10294000FB681344BA6852681A60FB681B68383B1E
:102950001B681A46FB681344BA6892681A60FB68E1
:102960001B68603B1B681A46FB681344BA68D26850
:102970001A60FB6818461437BD465DF8047B704743
:1029800080B582B000AF78600B46FB707B68043383
:102990001846FFF795FE7B6804330F49FA7818460E
:1029A000FFF79EFE7B680D4A11461846FFF79EFF13
:1029B0000B4A7B681A607B6804330A4A1A607B689A
:1029C0000433084A1A60064A7B681A607B68184616
:1029D0000837BD4680BD00BF90E2020898E20208B9
:1029E000C4E1020850E2020880B582B000AF78600E
:1029F0007B681B685C3B1B681A467B6813441B7929
:102A0000184602F09FF900BF0837BD4680BD80B56B
:102A100084B000AFF860B9607A603B60FB681B6807
:102A20005C3B1B681A46FB6813441B79184602F08E
:102A300089F9FB681B685C3B1B681A46FB681344FA
:102A400018797B68002B01D1012300E002233A684A
:102A5000194601F093FEFB681B6840331B68B96898
:102A6000F8689847FB681B685C3B1B681A46FB6864
:102A700013441B79184602F07DF9FB681B68443348
:102A80001B680021F868984700BF1037BD4680BD1D
:102A900080B582B000AF786039603B68012B04D00C
:102AA000022B1CD0002B0DD026E07B681B685C3B02
:102AB0001B681A467B6813441B790021184602F0F4
:102AC0009FF819E07B681B685C3B1B681A467B68B3
:102AD00013441B790121184602F092F80CE07B6840
:102AE0001B685C3B1B681A467B6813441B790221F8
:102AF000184602F085F800BF00BF0837BD4680BD0C
:102B000080B582B000AF786039607B681B685C3B41
:102B10001B681A467B6813441B793968184601F014
:102B2000E3FD0346002B14BF01230023DBB218464C
:102B30000837BD4680BD80B483B000AF786039608F
:102B40003B681A687B681A607B681B68383B1B68A7
:102B50001A467B6813443A6852681A607B681846C4
:102B60000C37BD465DF8047B704780B485B000AF7C
:102B7000F860B9601346FB71BB681A68FB681A609D
:102B8000FB681B684C3B1B681A46FB681344BA6819
:102B900052681A60FB681B68383B1B681A46FB6862
:102BA0001344BA6892681A60FB681B68503B1B6844
:102BB0001A46FB681344BA68D2681A60FB68184664
:102BC0001437BD465DF8047B7047000080B582B0C5
:102BD00000AF78600B46FB707B6804331846FFF744
:102BE0006FFD7B6804330F49FA781846FFF778FDCC
:102BF0007B680D4A11461846FFF79DFF0B4A7B681C
:102C00001A607B6804330A4A1A607B680433084AF6
:102C10001A60064A7B681A607B6818460837BD460A
:102C200080BD00BF18E0020820E0020860DF020853
:102C3000D8DF020880B582B000AF78607B681B687F
:102C40004C3B1B681A467B6813441B79184601F0FD
:102C5000EBFB00BF0837BD4680BD80B582B000AF3A
:102C600078607B681B684C3B1B681A467B68134482
:102C70001B79184601F03CFF00BF0837BD4680BDF8
:102C800080B582B000AF78607B681B6838331B6802
:102C90007868984703465B0007EE903AF8EEE77ACB
:102CA0009FED057AC7EE876AF0EE667AB0EE670AA6
:102CB0000837BD4680BD00BF00801D4580B582B08D
:102CC00000AF78607B681B684C3B1B681A467B68CA
:102CD00013441B79184601F0B3FB03461846083726
:102CE000BD4680BD80B483B000AF786039603B687A
:102CF0001A687B681A607B681B685C3B1B681A4615
:102D00007B6813443A6852681A607B681B68383BDA
:102D10001B681A467B6813443A6892681A607B689D
:102D20001B68603B1B681A467B6813443A68D2688C
:102D30001A607B6818460C37BD465DF8047B704707
:102D400080B582B000AF78600B46FB707B680833BB
:102D50001846FFF7B5FC7B6808332249FA78184615
:102D6000FFF7BEFC7B68204A11461846FFF7E3FEDA
:102D70007B6804331D4A11461846FFF7B7FD7B6890
:102D800010331B4A11461846FFF7ACFF7B68194900
:102D9000FA781846FFF7E9FE7B6804331649FA789B
:102DA0001846FFF7BDFD154A7B681A607B6808333B
:102DB000134A1A607B680833114A1A600F4A7B680D
:102DC0001A60104A7B685A607B6804330D4A1A60A7
:102DD0007B6810330C4A1A607B6818460837BD467A
:102DE00080BD00BF80D8020888D8020890D80208A9
:102DF00098D8020848D8020858D8020840D60208D5
:102E000068D70208DCD60208F8D7020880B582B07D
:102E100000AF78607B681B684C3B1B681A467B6878
:102E200013441B79184601F08DFF7B681B684C3BEF
:102E30001B681A467B6813441B79184601F0F4FAA4
:102E400000BF0837BD4680BD80B582B000AF786056
:102E50007B681B684C3B1B681A467B6813441B79D4
:102E6000184601F06FFF7B681B684C3B1B681A46D5
:102E70007B6813441B79184601F03AFE00BF0837FF
:102E8000BD4680BD80B483B000AF78607B681846D3
:102E90000C37BD465DF8047B704780B483B000AF4B
:102EA00078607B6818460C37BD465DF8047B704738
:102EB00090B583B000AF786039607868FFF7E2FFC3
:102EC0007B681846FDF74AFB3B68184600F07CF922
:102ED0000346002B0FD07C683B461846FFF7DDFF0A
:102EE00003461946204600F07FF97B68084ADA60FD
:102EF0007B68084A9A607B6805E07B681846FDF7A6
:102F00003BFB0EF081FC18460C37BD4690BD00BF60
:102F10000D3201082932010880B483B000AF786017
:102F20007B6818460C37BD465DF8047B704780B45B
:102F300083B000AF78607B6818460C37BD465DF8FB
:102F4000047B704780B483B000AF78607B6818461C
:102F50000C37BD465DF8047B704790B585B000AF77
:102F6000F860B9607A60B868FFF7D6FF0346184684
:102F7000FFF7DDFF04467868FFF7E4FF03461A46D3
:102F80002146F86800F0C1F9F8681437BD4690BDD5
:102F900080B483B000AF78607B6818460C37BD46BC
:102FA0005DF8047B704780B483B000AF78607B68C5
:102FB00018460C37BD465DF8047B704780B483B07B
:102FC00000AF78607B6818460C37BD465DF8047B1F
:102FD000704780B582B000AF78607868FFF7EEFF89
:102FE0007B6818460837BD4680BD80B483B000AF0B
:102FF00078607B6818460C37BD465DF8047B7047E7
:1030000080B582B000AF78607B681846FFF7EDFFAF
:10301000034618460837BD4680BD80B582B000AF74
:10302000786039603868FDF756FC03461A687B689B
:103030001A607B6818460837BD4680BD90B583B0DE
:1030400000AF786039607C683868FFF7D9FF0346C5
:103050001846FDF740FC034619462046FFF7DDFF02
:103060007B6818460C37BD4690BD80B582B000AF76
:10307000786039607B683A6811461846FFF7DEFFD2
:103080007B6818460837BD4680BD90B583B000AF59
:10309000786039607868FFF79CFF3B681846FFF757
:1030A00077FF03461A687B681A607B681C1D3B68C3
:1030B00004331846FFF777FF034619462046FFF70B
:1030C000D4FF7B6818460C37BD4690BD80B483B0F2
:1030D00000AF78607B6818460C37BD465DF8047B0E
:1030E0007047000090B583B000AF786039607868B1
:1030F000FFF7C8FE7B681846FDF730FA386800F025
:1031000020F90346002B0ED07C683868FFF7DEFFFD
:1031100003461946204600F01FF97B68084ADA602A
:103120007B68084A9A607B6805E07B681846FDF773
:1031300023FA0EF069FB18460C37BD4690BD00BF60
:103140007D3301089D33010880B483B000AF7860FF
:103150007B6818460C37BD465DF8047B704700005D
:1031600090B583B000AF786039707868FFF78AFE59
:103170007B681846FDF7F2F93B46184600F048F91F
:103180000346002B0FD07C683B461846FFF7DCFF58
:1031900003461946204600F046F97B68084ADA6083
:1031A0007B68084A9A607B6805E07B681846FDF7F3
:1031B000E3F90EF029FB18460C37BD4690BD00BF61
:1031C0004B3401086934010880B483B000AF7860E3
:1031D0007B68002B14BF01230023DBB218460C3799
:1031E000BD465DF8047B704790B585B000AF786050
:1031F00039603868FFF751FE034622461946786861
:1032000000F06CF900BF1437BD4690BD80B582B0A8
:1032100000AF7860786800F07CF903461B68984737
:1032200000BF0837BD4680BDB0B586B000AFF860BE
:10323000B9601346FB71FB79032B27D801A252F822
:1032400023F000BF553201086332010877320108CC
:1032500083320108F868FDF74FFC02460E4B1360FD
:1032600014E0F86800F066F90446B86800F051F917
:10327000034623600AE02A46B968F86800F066F958
:1032800004E02146F86800F07CF900BF00231846EE
:103290001837BD46B0BD00BFBCE4020880B582B09F
:1032A00000AF786039603868FFF74CFE03461A6853
:1032B0007B681A607B6818460837BD4680BD90B5AC
:1032C00083B000AF786039607C683868FFF73AFEF9
:1032D000034619462046FFF7E1FF7B6818460C3786
:1032E000BD4690BD90B583B000AF786039607C6812
:1032F0003868FFF727FE034619462046FFF7DFFF31
:103300007B6818460C37BD4690BD90B585B000AFC0
:10331000F860B9607A60F868FFF75BFEBB681A680E
:10332000FB681A60FB681C1D7868FFF70BFE0346FC
:1033300019462046FFF7D6FFFB6818461437BD46EE
:1033400090BD80B483B000AF7860012318460C377D
:10335000BD465DF8047B704790B585B000AF7860DE
:1033600039603868FFF7B2FE03462246194678688E
:1033700000F013F900BF1437BD4690BD80B582B090
:1033800000AF7860786800F024F90346184600F032
:1033900036F900BF0837BD4680BD0000B0B586B025
:1033A00000AFF860B9601346FB71FB79032B27D897
:1033B00001A252F823F000BFC9330108D733010836
:1033C000EB330108F7330108F868FDF795FB024677
:1033D0000E4B136014E0F86800F021F90446B86859
:1033E00000F0F7F8034623600AE02A46B968F86857
:1033F00000F021F904E02146F86800F03BF900BF35
:10340000002318461837BD46B0BD00BF98E4020837
:1034100080B483B000AF7860012318460C37BD46F6
:103420005DF8047B704790B585B000AF7860396077
:103430003868FFF789FE034622461946786800F08F
:103440002AF900BF1437BD4690BD80B582B000AFE9
:103450007860786800F036F903461846FFF7BEF842
:1034600000BF0837BD4680BDB0B586B000AFF8607C
:10347000B9601346FB71FB79032B27D801A252F8E0
:1034800023F000BF95340108A3340108B7340108C4
:10349000C3340108F868FDF72FFB02460E4B13609A
:1034A00014E0F86800F01FF90446B86800F00AF963
:1034B000034623600AE02A46B968F86800F01FF95D
:1034C00004E02146F86800F031F900BF00231846F7
:1034D0001837BD46B0BD00BF90E4020890B585B076
:1034E00000AFF860B9603A71B868FFF7D6FC0346E0
:1034F0001C68F868FDF71CF8034619460420FDF720
:103500000BF80346002B00D01C6000BF1437BD46EB
:1035100090BD80B584B000AF7860786800F012F993
:103520000346184600F01AF9F860FB681846103791
:10353000BD4680BD80B582B000AF78607868FCF78A
:10354000F7FF034618460837BD4680BD90B585B0E5
:1035500000AFF860B9603A71B86800F0F3F803465C
:103560001C68F868FCF7E4FF034619460420FCF7E2
:10357000D3FF0346002B00D01C6000BF1437BD46AC
:1035800090BD80B582B000AF78603970786800F087
:10359000F0F800BF0837BD4680BDB0B584B000AFBD
:1035A000F860B9603A71B868FFF790FD05460820E9
:1035B0000DF07AFB03461C4629462046FFF765FDC1
:1035C000F86800F02CF803461C6000BF1037BD46B9
:1035D000B0BD80B584B000AF7860786800F0D5F8F1
:1035E00003461B68FB60FB6818461037BD4680BD6C
:1035F00080B400AF1846BD465DF8047B704790B5B7
:1036000085B000AF7860FFF7F3FF07F108032246AB
:103610001946786800F0DEF81437BD4690BD80B5D5
:1036200082B000AF78607868FCF782FF03461846E6
:103630000837BD4680BDB0B584B000AFF860B96052
:103640003A71B86800F0A1F803461D6808200DF033
:103650002BFB03461C4623462A4692E8030083E8D8
:103660000300F868FFF7DBFF03461C6000BF10375C
:10367000BD46B0BD80B582B000AF78603970786863
:10368000FFF7CDFF03461B6818460DF02BFB00BF6C
:103690000837BD4680BD80B584B000AFF860B96022
:1036A0003A71B868FFF750FDF868FCF741FF034630
:1036B00019460120FCF730FF0346002B00BF1037EE
:1036C000BD4680BD80B584B000AF7860786800F0FA
:1036D0009CF80346184600F0A4F8F860FB6818460A
:1036E0001037BD4680BD80B582B000AF7860786885
:1036F000FCF71EFF034618460837BD4680BD80B55F
:1037000084B000AFF860B9603A71B86800F07DF835
:10371000F868FCF70DFF034619460120FCF7FCFE94
:103720000346002B00BF1037BD4680BD80B582B078
:1037300000AF78603970786800F07EF800BF083715
:10374000BD4680BD80B582B000AF78607868FCF778
:10375000FAFE034618460837BD4680BD80B483B0E4
:1037600000AF78607B6818460C37BD465DF8047B77
:10377000704780B582B000AF78607868FCF7D8FEFB
:10378000034618460837BD4680BD80B582B000AFFD
:1037900078607868FCF7D7FE034618460837BD46C0
:1037A00080BD80B582B000AF78607868FFF728FCF4
:1037B000034618460837BD4680BD80B582B000AFCD
:1037C00078607B681846FFF7ECFF03461846083719
:1037D000BD4680BD90B587B000AFF860B9603A7162
:1037E000FB681C68FB6804331846FFF7E6FF0146D8
:1037F00007F11403BA68184600F02AF803461B685C
:103800001846A0471C37BD4690BD80B582B000AFBA
:1038100078607868FCF797FE034618460837BD467F
:1038200080BD80B483B000AF78607B6818460C37E9
:10383000BD465DF8047B704780B582B000AF78600C
:103840007868FCF775FE034618460837BD4680BD0C
:1038500080B584B000AFF860B9607A60B868FFF7EF
:1038600071FB034618461037BD4680BD80B483B057
:1038700000AF78607B689B68002B0CBF012300239E
:10388000DBB218460C37BD465DF8047B704780B547
:1038900084B000AF78607B68FB60F86809F0AEFF29
:1038A0000346BB60BB6804331846FEF7E5FF0346DA
:1038B00083F00103DBB2002B05D0BB680C33184644
:1038C00000F0D8F804E0BB681C33184600F0D2F8CA
:1038D00000BF1037BD4680BD80B582B000AF7860B4
:1038E0000B46FB707868FB780B4A52F82330DBB24A
:1038F0001946FFF745F87B680C330021184600F0A5
:10390000CEF87B681C330021184600F0C8F87B68AD
:1039100018460837BD4680BD3404002090B587B0F6
:1039200002AF78600023FB607B681B68DC6A08F0EC
:1039300083FE014607F10C020023009313460A465A
:103940000621204609F0B6FCFB68002B03D0044B8F
:103950004FF080521A6000BF1437BD4690BD00BFC3
:1039600004ED00E090B589B002AF78607B6818463E
:10397000FEF74BFE7B6804331846FEF702FF0A2071
:1039800005F060F80146254B00937B68002224482F
:1039900009F052FC02467B68DA627B681C331846E9
:1039A00000F08EF8034683F00103DBB2002B05D054
:1039B0007B681C331B49184600F09DF87B680C336C
:1039C000184600F07DF8034683F00103DBB2002BBC
:1039D00005D07B680C331349184600F08CF87C68DE
:1039E0007A6807F108031146184600F0AFF807F1AE
:1039F00008031A4602212046FEF7DDFD07F1080301
:103A00001846FDF7FFF806E007F108031846FDF732
:103A1000F9F80DF0F9FE1C37BD4690BD8F3801084E
:103A2000ECE60208CF24010880B582B000AF7860D0
:103A30000B46FB707868FB78054A52F82330DBB2FE
:103A40001946FEF76DFE7B6818460837BD4680BDF7
:103A50003404002080B582B000AF78607B681846DF
:103A6000FEF7C6FD7B681846FEF78BFE00BF0837E1
:103A7000BD4680BD80B582B000AF78607B681846D7
:103A8000FFF7F4FE0346002B01D00EF083FC7B68A9
:103A9000DB687A68104698470837BD4680BD80B518
:103AA00082B000AF786039607868FFF7EBF97B6827
:103AB0001846FCF753FD7B6818460837BD4680BDA5
:103AC00080B582B000AF78607B681846FFF7CEFE05
:103AD000034683F00103DBB218460837BD4680BDBC
:103AE00080B483B000AF78607B6818460C37BD4661
:103AF0005DF8047B704780B586B000AF78603960B0
:103B00003868FFF7EDFF024607F108031146184633
:103B1000FFF7CEF907F108037968184600F04AF874
:103B200007F108031846FDF76DF87B68184618374B
:103B3000BD4680BD80B483B000AF78607B68184616
:103B40000C37BD465DF8047B7047000090B583B02C
:103B500000AF786039607868FFF794F97B681846A1
:103B6000FCF7FCFC3B46184600F045F80346002BEA
:103B70000FD07C683B461846FFF7DCFF034619462A
:103B8000204600F043F87B68084ADA607B68084A00
:103B90009A607B6805E07B681846FCF7EDFC0DF049
:103BA00033FE18460C37BD4690BD00BF313C0108BE
:103BB000513C010880B582B000AF786039607B6805
:103BC0003A6811461846FCF7F4FE7B6803F10802D8
:103BD0003B68083319461046FCF71DFF7B6803F16C
:103BE0000C023B680C331946104600F076F800BF13
:103BF0000837BD4680BD80B483B000AF7860012334
:103C000018460C37BD465DF8047B704790B585B00B
:103C100000AF786039603868FFF78CFF03462246B2
:103C20001946786800F078F800BF1437BD4690BD9B
:103C300080B582B000AF7860786800F088F80346FD
:103C40001846FFF76BFE00BF0837BD4680BD000079
:103C5000B0B586B000AFF860B9601346FB71FB7970
:103C6000032B27D801A252F823F000BF7D3C0108A6
:103C70008B3C01089F3C0108AB3C0108F868FCF74D
:103C80003BFF02460E4B136014E0F86800F070F83A
:103C90000446B86800F05BF8034623600AE02A4651
:103CA000B968F86800F070F804E02146F86800F0A0
:103CB00086F800BF002318461837BD46B0BD00BFC8
:103CC0001CE7020880B483B000AF78607B681846B8
:103CD0000C37BD465DF8047B704780B584B000AFFB
:103CE000786039607868FFF7EDFF03461B68FB607A
:103CF0003868FFF7E7FF03461A687B681A6007F128
:103D00000C031846FFF7DEFF03461A683B681A608B
:103D100000BF1037BD4680BD90B585B000AFF860DC
:103D2000B9603A71B868FFF705FF0446F868FCF718
:103D3000FFFB034619460420FCF7EEFB0346002B6D
:103D400001D022681A6000BF1437BD4690BD80B50F
:103D500084B000AF7860786800F03DF803461846FC
:103D600000F045F8F860FB6818461037BD4680BD86
:103D700080B582B000AF78607868FCF7D9FB034665
:103D800018460837BD4680BD90B585B000AFF860D5
:103D9000B9603A71B86800F01EF80446F868FCF79C
:103DA000C7FB034619460420FCF7B6FB0346002B6D
:103DB00001D022681A6000BF1437BD4690BD80B59F
:103DC00082B000AF78603970786800F01BF800BFEF
:103DD0000837BD4680BD80B582B000AF7860786896
:103DE000FCF7B1FB034618460837BD4680BD80B4DA
:103DF00083B000AF78607B6818460C37BD465DF82D
:103E0000047B704780B582B000AF78607868FCF7BB
:103E10008FFB034618460837BD4680BD80B582B08B
:103E200000AF78607B680121184604F00BFD044A5E
:103E30007B681A607B6818460837BD4680BD00BFA6
:103E400060E7020880B582B000AF7860054A7B6801
:103E50001A607B68184604F03BFD7B6818460837FB
:103E6000BD4680BD60E7020880B582B000AF7860D3
:103E70007868FFF7E7FF78680CF034FF7B68184636
:103E80000837BD4680BD000080B582B000AF7860C5
:103E900039607B68184609F071FE054A7B681A6034
:103EA0007B683A681A617B6818460837BD4680BD52
:103EB00048E7020880B582B000AF78600B467B808F
:103EC00005487B681B69013B7A88194600F0BCF8FD
:103ED00000BF0837BD4680BD300E002080B582B0DF
:103EE00000AF78600B467B8005487B681B69013B0F
:103EF0007A88194600F0C6F800BF0837BD4680BD75
:103F0000300E002080B582B000AF78607B68012160
:103F10001846FFF7B9FF7B68143302211846FFF7F4
:103F2000B3FF7B68283303211846FFF7ADFF7B689A
:103F30003C3304211846FFF7A7FF7B685033052167
:103F40001846FFF7A1FF7B68643306211846FFF788
:103F50009BFF7B681DE07B6850331846FCF7A4FF8D
:103F6000FFE77B683C331846FCF79EFFFFE77B6862
:103F700028331846FCF798FFFFE77B681433184690
:103F8000FCF792FFFFE77B681846FCF78DFF0DF00A
:103F90003BFC18460837BD4680BD000080B582B0A6
:103FA00000AF224809F0AAFF2148FEF721FB214873
:103FB000FEF71EFB1E48FEF7CDFB1E48FEF7CAFBB0
:103FC0001D48FEF715FB1D48FEF712FB1A48FEF7C9
:103FD000C1FB1B48FEF72EFE00237B607B68052B90
:103FE00020DC184A7B6813441B783B603B68DBB2DB
:103FF0000021184601F0D6FE3B68DBB200211846CE
:1040000002F03CF83B68DBB244F62061184601F050
:10401000F7FF3B68DBB2184602F092F87B68013389
:104020007B60DBE700BF0837BD4680BD24E70208A0
:10403000F00E0020F80E0020000F00200C0F0020D2
:10404000080F00204004002080B586B000AFF86063
:10405000B9601346FB80BB68052B0CDC084ABB68C3
:1040600013441B787B617B69DBB2FA8811461846E2
:1040700001F062FF00E000BF1837BD4680BD00BF01
:104080004004002080B588B000AFF860B9601346E6
:10409000FB80BB68052B14DD0023FB61FB69052B4E
:1040A0001CDC104AFB6913441B78BB61BB69DBB2A3
:1040B000FA881146184601F0A3FFFB690133FB6142
:1040C000ECE7084ABB6813441B787B617B69DBB271
:1040D000FA881146184601F093FF00E000BF203730
:1040E000BD4680BD4004002080B582B000AF78603E
:1040F00039607B68012B1CD13B684FF6FF729342FD
:1041000017D10E48FFF78AFE0D4A0E490B480DF0F5
:1041100043FC59210C48FEF703FB5A210B48FEF7DC
:10412000FFFA57210A48FEF7FBFA58210948FEF723
:104130004DFD00BF0837BD4680BD00BFE40E002026
:1041400000000020453E0108F00E0020F80E00207F
:10415000000F0020080F002080B500AF4FF6FF7160
:104160000120FFF7C1FF80BD80B500AF09F06CFFF3
:1041700000BF80BD80B500AF09F058FF00BF80BD13
:104180000FB480B582B000AF07F114037B6079688B
:10419000386900F008F8034618460837BD46BDE800
:1041A000804004B0704780B582B000AF786039605D
:1041B0003968786809F08CFE034618460837BD4612
:1041C00080BD0FB480B582B000AF07F114037B60EF
:1041D0007968386909F0A6FE034618460837BD46D7
:1041E000BDE8804004B0704780B582B000AF786011
:1041F000786809F0FFFE00BF0837BD4680BD0000AB
:1042000090B583B000AF78603960084B1B681B68BD
:104210001C68064B18684FF0FF333A687968A0476E
:10422000034618460C37BD4690BD00BF340600203B
:1042300090B583B000AF78603960084B1B681B688D
:1042400004331C68054B18684FF0FF333A687968EF
:10425000A047034618460C37BD4690BD34060020E3
:104260000FB480B582B000AF07F114037B607968AA
:10427000386909F08FFE034618460837BD46BDE889
:10428000804004B0704780B582B000AF78607B6832
:104290004FF47A7202FB03F3184600F004F800BFF3
:1042A0000837BD4680BD80B485B000AF78607A68BD
:1042B0001346DB0013445B00FB60FB68013BFB60C3
:1042C000002B14BF01230023DBB2002B01D000BF61
:1042D000F3E700BF1437BD465DF8047B704780B537
:1042E00082B000AF7860786804F009FE00BF08373C
:1042F000BD4680BD80B58EB000AF00237B637B6B75
:10430000022B00F384807B6BDB00434A13443B6346
:104310007B6BDB00414A1344FB6203220021012036
:1043200007F064F90246FB6A1A60FB6A1B68002BFF
:1043300006D140223A493B48FFF792FFFFF714FFAE
:10434000FB6A186800230022002107F0E1FB01202E
:1043500007F098F90246FB6A5A60FB6A5B68002B1B
:1043600006D144222E492F48FFF77AFFFFF7FCFEC3
:10437000FB6A586800230022002107F081FA3B6B9A
:104380001B680121184605F0F7FF00237B6000231E
:10439000BB600023FB604FF470633B613B1D18461C
:1043A00004F022FF00237B6100233B7600237B7611
:1043B0000023FB6100233B6200237B62012387F81B
:1043C00028303B6B5B6807F114021146184604F075
:1043D000B5FE3B6B5B680121184604F02DFF1223EC
:1043E0003B7007237B700023BB700123FB703B46AF
:1043F000184604F041FE3B6B5B68012240F2052148
:10440000184605F01CF87B6B01337B6377E700BF30
:104410003837BD4680BD00BFCCE70208140F00202E
:1044200004E802082CE8020880B483B000AF034619
:10443000FB7100BF0C37BD465DF8047B7047000080
:1044400080B588B000AF0346FB71FB79184600F0D9
:10445000DBFE0346FB7797F91F30B3F1FF3F06D130
:104460006A2232493248FFF7FBFEFFF77DFE97F9DB
:104470001F30304A32F81330BB813B7BDB002E4AC1
:104480001344BB613B7BDB002C4A13447B617B7B89
:104490003B617B69586800230A22002107F038FB42
:1044A0000346002B14BF01230023DBB2002B38D0BE
:1044B000FB790221184600F06BFEBB6958683B6926
:1044C000D9B20723012204F0D3FEBB695B6818460A
:1044D00004F098FF7B69186800234FF0FF32002139
:1044E00007F016FB0346012B0CBF01230023DBB2B0
:1044F000002B0DD07B69586800230022002107F0B3
:10450000BFF9BB695B68184604F08CFF034609E0FD
:104510007B69586800230022002107F0B1F90023CD
:1045200000E0002318462037BD4680BD04E802089D
:104530002CE80208E4E70208CCE70208140F002088
:1045400080B584B000AF00233B600023FB60FB68B4
:10455000022B33DCFB68DB001A4A1344BB60FB68A8
:10456000DB00194A13447B60BB685B6840F205219D
:10457000184604F08DFF0346002B14BF01230023CF
:10458000DBB2002B15D07B6818683A460023002167
:1045900007F042FABB685B6840F20521184604F058
:1045A000A5FF3B68002B08D0084B4FF080521A60E3
:1045B00003E0FB680133FB60C9E700BF1037BD466D
:1045C00080BD00BFCCE70208140F002004ED00E01E
:1045D00080B586B000AF1B4B00221A6000233B6001
:1045E00000237B6000233B720023BB720023FB741B
:1045F00000237B6108E007F10B027B691344002272
:104600001A707B6901337B617B69072BF3DD3B46C5
:104610001A4600210C4804F07FFF0C4B18683946FD
:104620000023084A07F0F8F90346012B05D1054B92
:104630001B68012B01D106F067FE00BF1837BD468D
:1046400080BD00BF2C0F002000640040041B002030
:1046500080B582B000AF78607B6800221A607B680A
:104660000433184600F08EF97B6818460837BD46BB
:1046700080BD80B582B000AF78607B680433184697
:10468000FCF7C0FA7B6818460837BD4680BD0000BD
:1046900080B584B000AF0346FB710023FB60FB686C
:1046A0000F2B0FDC0D4AFB68134493F9002097F998
:1046B00007309A4202D1FB68DBB20BE0FB680133A2
:1046C000FB60ECE72D220649064809F041FC09F0A1
:1046D000BBFCFF2318461037BD4680BD3CE80208EE
:1046E0004CE8020878E8020890B585B000AF0346B0
:1046F0003960FB71FB791846FFF7CAFF0346FB6080
:10470000FB680F2B06DD34221849194809F020FCFC
:1047100009F09AFC174AFB68134493F90030002B08
:1047200006DA35221149124809F012FC09F08CFC16
:10473000FA6813469B0013449B000F4A1344BB6066
:10474000BB681C68386804F07DF90246002300212C
:10475000204607F0DDF90346012B0CBF012300239F
:10476000DBB218461437BD4690BD00BF4CE80208C6
:1047700078E802083CE80208300F002080B584B0D9
:1047800000AF03463A60FB710B46BB71FB791846DC
:10479000FFF77EFF0346FB60FB680F2B06DD3D2223
:1047A0002D492E4809F0D4FB09F04EFC2C4AFB6839
:1047B000134493F90030002B06DA3E22264927489D
:1047C00009F0C6FB09F040FCFA6813469B0013444D
:1047D0009B00244A1344BB60BB6804333968184605
:1047E00000F0E0F8BB681B68002B07D0BB681B68B3
:1047F000184607F0F3FABB6800221A60BB79012B58
:1048000002D0022B09D010E003220021012006F083
:10481000EDFE0246BB681A6007E00021FF2006F0AB
:10482000F3FF0246BB681A6000BFBB681B68002B21
:1048300006D14F220849094809F08AFB09F004FC17
:10484000BB68186800230022002107F061F900BF4F
:104850001037BD4680BD00BF4CE8020878E802086A
:104860003CE80208300F002080B584B000AF7860CB
:104870007A6813469B0013449B00194A1344FB605B
:1048800001227B6802FA03F3BB60B86805F0AAF95D
:104890000346002B14BF01230023DBB2002B1AD0E8
:1048A000FB6804331846FFF7E5F8FB681B68002B2C
:1048B00006D0FB68186800230A4A002107F0ACF80C
:1048C000B86805F0B3F9074B1B68002B03D0064B03
:1048D0004FF080521A6000BF1037BD4680BD00BF48
:1048E000300F00207010002004ED00E080B500AF14
:1048F0000020FFF7B9FF00BF80BD80B500AF0120E9
:10490000FFF7B2FF00BF80BD80B500AF0220FFF708
:10491000ABFF00BF80BD80B500AF0320FFF7A4FF51
:1049200000BF80BD80B500AF0420FFF79DFF00BF32
:1049300080BD80B500AF0520FFF796FF0620FFF78A
:1049400093FF0720FFF790FF0820FFF78DFF092056
:10495000FFF78AFF00BF80BD80B500AF0A20FFF7D8
:1049600083FF0B20FFF780FF0C20FFF77DFF0D205A
:10497000FFF77AFF0E20FFF777FF0F20FFF774FF96
:1049800000BF80BD80B582B000AF78607868FEF768
:1049900079FA7B681846FBF7E1FD7B681846083713
:1049A000BD4680BD80B586B000AF7860396007F144
:1049B00008033968184600F010F807F10803796811
:1049C0001846FFF7F7F807F108031846FCF71AF93D
:1049D0007B6818461837BD4680BD80B582B000AFF1
:1049E000786039607868FEF74DFA7B681846FBF707
:1049F000B5FD3868FFF764F80346002B0DD03B681F
:104A00009B6878683968022298473B68DA687B6857
:104A1000DA603B689A687B689A607B6805E07B682F
:104A20001846FBF7A9FD0CF0EFFE18460837BD4607
:104A300080BD000090B583B000AF7860054C064B98
:104A40009C4204D0143C2046FFF713FEF7E70C37D6
:104A5000BD4690BD70100020300F0020B0B582B070
:104A600000AF786039607B68012B14D13B684FF64A
:104A7000FF7293420FD10A4B0F241D46002C05DB19
:104A80002846FFF7E5FD1435013CF7E7054A0649DE
:104A900000200CF081FF00BF0837BD46B0BD00BF4D
:104AA000300F002000000020354A010880B500AF1B
:104AB0004FF6FF710120FFF7D1FF80BD80B483B0B6
:104AC00000AF0346FB71094997F907305B09FA7992
:104AD00002F01F02012000FA02F241F8232000BF79
:104AE0000C37BD465DF8047B704700BF00E100E075
:104AF00080B584B000AF0346FB71FA7917491346BD
:104B00005B001344DB000B4408331B68012118468B
:104B100005F0F2FBFA79114913465B001344DB0000
:104B20000B441B88BB6000233B730023BB73002333
:104B3000FB7302237B73FA79084913465B00134425
:104B4000DB000B4404331B6807F1080211461846CA
:104B500005F07CF800BF1037BD4680BD88E802082C
:104B600080B584B000AF03463960FB71FA79234900
:104B700013465B001344DB000B4408331B68012120
:104B8000184605F0B9FBFA791C4913465B0013443B
:104B9000DB000B441B88BB6002233B730023BB7309
:104BA0000023FB7302237B73FA79144913465B00DD
:104BB0001344DB000B4404331B6807F10802114661
:104BC000184605F043F8FA790C4913465B00134484
:104BD000DB000B4404331868FA79084913465B007C
:104BE0001344DB000B4402331B883A68D2B21946E7
:104BF00005F0D8F800BF1037BD4680BD88E8020830
:104C000080B588B000AF03460A46FB711346BB71FE
:104C1000FA794B4913465B001344DB000B44103315
:104C20001B68002B00F08880FA79454913465B0029
:104C30001344DB000B4408331B680121184605F0C0
:104C40005BFB01214FF4804005F096FB00233B7590
:104C50000023FB75FA793A4913465B001344DB00E5
:104C60000B441B883B61FA79354913465B001344BA
:104C7000DB000B4404331B6807F110021146184691
:104C800004F0E4FFFA792E4913465B001344DB007D
:104C90000B440D331878FA79294913465B00134405
:104CA000DB000B440E331B78194605F057FCFA79EC
:104CB000234913465B001344DB000B4410331B688D
:104CC000BB6100233B77BB79002B01D108237B77A5
:104CD000BB79012B01D10C237B77BB79022B01D14E
:104CE00010237B770123BB7707F11803184604F0E4
:104CF00007FFFA79124913465B001344DB000B44AB
:104D000014331B783B7307237B730023BB7301238E
:104D1000FB7307F10C03184604F0AEF9FA79084961
:104D200013465B001344DB000B4414331B785BB267
:104D30001846FFF7C3FE00E000BF2037BD4680BD28
:104D400088E8020880B582B000AF0346FB71FA79AB
:104D5000074913465B001344DB000B440E331B78FA
:104D600019460F2005F0FAFB00BF0837BD4680BD8D
:104D700088E8020880B582B000AF0346FB71FA797B
:104D80000B4913465B001344DB000B440D331878CA
:104D9000FA79074913465B001344DB000B440E33DA
:104DA0001B78194605F0DAFB00BF0837BD4680BD09
:104DB00088E8020880B485B000AF0346FB71FA7939
:104DC000164913465B001344DB000B4404331B6895
:104DD000FB60FA79114913465B001344DB000B4476
:104DE00002331B887B81FB681A687B895B00032187
:104DF00001FA03F3DB431A40FB681A60FB681A6888
:104E00007B895B00012101FA03F31A43FB681A60F6
:104E100000BF1437BD465DF8047B704788E8020880
:104E200080B485B000AF0346FB71FA79134913468D
:104E30005B001344DB000B4404331B68FB60FA790E
:104E40000E4913465B001344DB000B4402331B88FE
:104E50007B81FB685A687B89012101FA03F3DB43FC
:104E60001A40FB685A60FB685A68FB685A6000BFCA
:104E70001437BD465DF8047B704700BF88E8020820
:104E800080B485B000AF0346FB71FA79164913462A
:104E90005B001344DB000B4404331B68FB60FA79AE
:104EA000114913465B001344DB000B4402331B889B
:104EB0007B81FB685A687B89012101FA03F3DB439C
:104EC0001A40FB685A60FB685B687A89012101FA25
:104ED00002F292B21A43FB685A6000BF1437BD4613
:104EE0005DF8047B704700BF88E8020880B485B095
:104EF00000AF0346FB71FA79134913465B00134474
:104F0000DB000B4404331B68FB60FA790E4913463F
:104F10005B001344DB000B4402331B887B81FB687E
:104F20001A687B895B00032101FA03F3DB431A4013
:104F3000FB681A60FB681A68FB681A6000BF1437C8
:104F4000BD465DF8047B704788E8020880B485B0F0
:104F500000AF0346FB71FA79134913465B00134413
:104F6000DB000B4404331B68FB60FA790E491346DF
:104F70005B001344DB000B4402331B887B81FB681E
:104F8000DA687B895B00032101FA03F3DB431A40F3
:104F9000FB68DA60FB68DA68FB68DA6000BF143728
:104FA000BD465DF8047B704788E8020880B485B090
:104FB00000AF0346FB71FA79164913465B001344B0
:104FC000DB000B4404331B68FB60FA79114913467C
:104FD0005B001344DB000B4402331B887B81FB68BE
:104FE000DA687B895B00032101FA03F3DB431A4093
:104FF000FB68DA60FB68DA687B895B00012101FAF3
:1050000003F31A43FB68DA6000BF1437BD465DF84E
:10501000047B704788E8020880B485B000AF03467F
:10502000FB71FA79164913465B001344DB000B440D
:1050300004331B68FB60FA79114913465B00134483
:10504000DB000B4402331B887B81FB68DA687B89B9
:105050005B00032101FA03F3DB431A40FB68DA60CB
:10506000FB68DA687B895B00022101FA03F31A43CB
:10507000FB68DA6000BF1437BD465DF8047B7047FB
:1050800088E8020880B483B000AF0346FB71FA7968
:105090000E4913465B001344DB000B4404331B68CA
:1050A0001969FA79094813465B001344DB0003448D
:1050B0001B880B40002B14BF01230023DBB21846D2
:1050C0000C37BD465DF8047B704700BF88E80208D6
:1050D00080B483B000AF03460A46FB711346BB7130
:1050E000BB79002B12D0FA79144913465B001344A4
:1050F000DB000B4404331968FA79104813465B004F
:105100001344DB0003441B880B8311E0FA790B493D
:1051100013465B001344DB000B4404331968FA792F
:10512000064813465B001344DB0003441B884B8393
:1051300000BF0C37BD465DF8047B704788E8020865
:1051400080B582B000AF0346FB71FA790F49134670
:105150005B001344DB000B4404331B685969FA7984
:105160000A4813465B001344DB0003441B880B40D2
:10517000002B0CBF01230023DAB2FB79114618463D
:10518000FFF7A6FF00BF0837BD4680BD88E80208CC
:1051900080B584B000AF03460A46FB711346BB716D
:1051A000FA79184913465B001344DB000B441B8853
:1051B000BB6003233B730023BB73BB79012B06D079
:1051C000022B07D0002B08D10123FB7305E002233B
:1051D000FB7302E00023FB7300BF02237B73FA79A9
:1051E000084913465B001344DB000B4404331B687F
:1051F00007F108021146184604F028FD00BF1037D9
:10520000BD4680BD88E8020880B483B000AF034685
:10521000FB71FA79074913465B001344DB000B442A
:105220000C3393F9003018460C37BD465DF8047B0B
:10523000704700BF88E8020880B582B000AF786090
:105240007B681B6A01224FF4E061184604F054FFAA
:1052500000BF0837BD4680BD80B582B000AF786022
:105260007B681B6A00224FF4E061184604F044FF9B
:1052700000BF0837BD4680BD80B588B000AF7860FC
:105280007B685B6A0121184605F096F87B685B6ACB
:105290000021184605F090F842F61003FB617B6888
:1052A0009A6CFB699A4202D27B68FA699A6400237D
:1052B0003B824BF6FF737B820123BB824FF48063FA
:1052C000FB824FF480433B837B689B6CFB607B6875
:1052D0001B6A07F10C021146184604F0ADFD786810
:1052E000FFF7BAFF7B681B6A0121184604F066FECF
:1052F00000BF2037BD4680BD80B584B000AF0346F7
:105300003960FB71FB794C2202FB03F3344A1344EE
:10531000FB60FB79334AD35C002B5CD1FB79314ACB
:105320000121D15403220021012006F05FF9024639
:10533000FB681A63FB681B6B002B06D0FB68186BBD
:1053400000230022002106F09BFA012006F09AF9C2
:105350000246FB68DA62FB68186B0023002200211A
:1053600006F0D6FBFB685B6A0121184604F0E4FFF7
:10537000FB689A69FB689B6813430121184604F097
:10538000BBFF01214FF4804004F0F6FFFB683A6850
:105390009A6406237B720023BB720123FB72FB68B5
:1053A00093F92830DBB23B7207F10803184603F08B
:1053B00063FEFB6893F92930DBB23B7207F1080307
:1053C000184603F059FEFB79184600F085F9F86895
:1053D000FFF752FF00E000BF1037BD4680BD00BFA1
:1053E000480400207410002080B586B000AF03464A
:1053F000FB71FB794C2202FB03F3214A13447B61CE
:10540000FB79204AD35C002B35D07B69DB6A1846D8
:1054100006F0E4FC7B691B6B184606F0DFFC78693C
:10542000FFF71AFF7B691B6A0021184604F0C6FDCE
:105430007B691B8AFB6000233B7402237B7400237F
:10544000BB740023FB747B695B6907F10C02114696
:10545000184604F0FBFB7B691B88FB607B695B687B
:1054600007F10C021146184604F0F0FBFB79054ADF
:105470000021D15400E000BF1837BD4680BD00BFF9
:10548000480400207410002080B584B000AF0346AB
:105490003960FB71FB794C2202FB03F3104A134481
:1054A000FB60FB68D86A00232822002106F030FB4D
:1054B0000346012B0ED1FB683A689A64F868FFF73F
:1054C000DBFEFB68D86A00230022002106F0D8F931
:1054D000002300E0042318461037BD4680BD00BFFE
:1054E0004804002080B586B000AFBA607B600346F8
:1054F000FB730B46BB73FB7B4C2202FB03F3114A8D
:1055000013447B617B69D86A00232822002106F0BE
:10551000FFFA0346012B10D1B97BF87B7B68BA6890
:1055200000F076F90346FB747B69D86A00230022F9
:10553000002106F0A5F9FB7C00E00423184618378B
:10554000BD4680BD4804002080B588B002AFBA6077
:105550007B600346FB730B46BB73FB7B4C2202FB59
:1055600003F3124A13447B617B69D86A0023282223
:10557000002106F0CDFA0346012B12D1B97BF87B4E
:10558000002300937B68BA6800F0EAF80346FB74D6
:105590007B69D86A00230022002106F071F9FB7CA8
:1055A00000E0042318461837BD4680BD480400209B
:1055B00080B58AB002AFBA607B600346FB730B46CE
:1055C000BB73FB7B4C2202FB03F3424A1344FB6197
:1055D000FB69D86A00235022002106F099FA03469D
:1055E000012B72D1B97BF87B7B68BA6800F010F9A7
:1055F0000346FB76FB7E002B08D0FB69D86A0023AC
:105600000022002106F03CF9FB7E5FE03B6B002BA3
:1056100048D0FB691B8A3B6101233B7502237B75E4
:105620000123BB750123FB75FB695B6907F1100260
:105630001146184604F00AFBFB691B883B61FB69B5
:105640005B6807F110021146184604F0FFFAFB6987
:105650005A69FB691B8A1946104604F094FB386BA3
:10566000FEF73DFEFB695A69FB691B8A1946104625
:1056700004F07AFB02233B75FB691B8A3B61FB69E3
:105680005B6907F110021146184604F0DFFAFB6966
:105690001B883B61FB695B6807F1100211461846E5
:1056A00004F0D4FAB97BF87B00230093FB6ABA6A52
:1056B00000F056F80346FB76FB69D86A0023002207
:1056C000002106F0DDF8FB7E00E0042318462037B9
:1056D000BD4680BD4804002080B586B000AF0346BB
:1056E000FB71FB794C2202FB03F31C4A13447B61E0
:1056F0007B691B8AFB6002233B7402237B740123BA
:10570000BB740123FB747B695B6907F10C021146D2
:10571000184604F09BFA7B691B88FB607B695B6819
:1057200007F10C021146184604F090FA7B6958699B
:105730007B691B7F99B27B695B7F1A4604F032FB61
:105740007B6958687B691B7B99B27B695B7B1A46D6
:1057500004F028FB00BF1837BD4680BD4804002078
:1057600080B586B000AFBA607B600346FB730B4622
:10577000BB73FB7B4C2202FB03F3244A13447B6183
:105780007B691B6A1B8B9BB203F00203002B02D0C8
:105790007869FFF771FD7B69BA689A63BB7B5B0030
:1057A000DAB27B6983F834207B697A68DA637B69D3
:1057B000012283F844207B69002283F8452097F872
:1057C0002030002B05D17B691B6A0121184604F0AB
:1057D00015FC7869FFF730FD7B69186B00232822E0
:1057E000002106F095F90346012B06D1786900F0F7
:1057F00063F87B6993F8453003E07869FFF73CFD77
:10580000042318461837BD4680BD00BF4804002059
:1058100080B586B000AFBA607B600346FB730B4671
:10582000BB73FB7B4C2202FB03F3224A13447B61D4
:105830007B691B6A1B8B9BB203F00203002B02D017
:105840007869FFF719FD7B69BA689A63BB7B5B00D7
:10585000DAB27B6983F834207B697A68DA637B6922
:10586000002283F844207B69002283F845207B696D
:105870001B6A0121184604F0C1FB7869FFF7DCFCC4
:105880007B69186B00232822002106F041F90346AA
:10589000012B06D1786900F00FF87B6993F8453049
:1058A00003E07869FFF7E8FC042318461837BD4683
:1058B00080BD00BF4804002080B586B000AF78608E
:1058C00006F0A8FE786129E07B681B6A9B8A9BB280
:1058D0003B617B681B6A1B8B9BB2FB607B681B6A0E
:1058E0009B8A9BB203F48073002B08D07B681B6AF1
:1058F0000121184604F0A2FB7868FFF7BDFC06F012
:1059000089FE02467B69D31A4FF4FA6202FB03F365
:1059100044F61F62934201D904230AE07B681B6AA4
:105920004FF40031184604F00BFC0346002BCBD19A
:10593000002318461837BD4680BD000080B58AB0E8
:1059400000AF0346FB71FB794C2202FB03F39E4A36
:1059500013443B620023FB613B6A1B6A9B8A9BB238
:10596000BB613B6A1B6A1B8B9BB27B617B691B041F
:105970007B61BA697B69134323F07F433B613B6AD8
:105980001B6A9B8A9BB203F04003002B05D03B6A45
:105990001B6A1B8A9BB287F827303A698B4B1340EE
:1059A0008A4A934217D13B6A93F84430012B09D1BC
:1059B0003B6A186A3B6A93F834300122194604F0B6
:1059C0005DFB08E03B6A186A3B6A93F834300022BA
:1059D000194604F053FB3A697D4B13407C4A9342CD
:1059E00032D13B6A00221A643B6A93F84430002BA0
:1059F00004D03B6A93F84430022B25D13B6ADB6B21
:105A0000002B0FD03B6A1B6A3A6A916B3A6A126CA0
:105A10000A44127892B21A823B6A1B6C5A1C3B6A87
:105A20001A6411E03B6A1B6A0121184604F006FB68
:105A3000386AFFF711FC3B6A186B07F11C02002360
:105A4000002105F0E9FFF3E03A69624B1340614A37
:105A5000934223D13B6A93F84430012B1ED13B6A19
:105A6000DB6B012B0CD13B6A1B6A0021184604F04A
:105A700023FB3B6A1B6A0121184604F0DFFA05E0AC
:105A80003B6A1B6A0121184604F016FB3B6A1B6A3D
:105A90009B889BB27B613B6A00221A643A694E4B39
:105AA00013404D4A934257D13B6A93F84430012B3F
:105AB00004D03B6A93F84430022B4DD13B6A9A6B79
:105AC0003B6A1B6C134497F827201A703B6A1B6CC7
:105AD0005A1C3B6A1A643B6A1A6C3B6ADB6B013BDB
