:020000040801F1
:100000000000022055E201082D2E0108092E0108EA
:10001000512E0108752E0108992E010800000000DC
:10002000000000000000000000000000FDE90108E1
:10003000B5E2010800000000E9EB010845EC010809
:10004000B5E20108B5E20108B5E20108B5E2010830
:10005000B5E20108B5E20108856D0108936D01085C
:10006000A16D0108AF6D0108BD6D0108FD1E0208FC
:10007000451F02088D1F0208D51F02081D20020817
:1000800065200208AD200208D9690108B5E201081F
:10009000696A0108B5E20108B5E20108CB6D010803
:1000A000B5E20108B5E20108B5E20108B5E20108D0
:1000B000B5E2010825270208392702080582010850
:1000C00013820108E9810108F7810108B5E20108FE
:1000D000B5E20108E99D0108BF9D0108B19D010835
:1000E000F16D0108B5E20108B5E20108B5E20108C9
:1000F00011270208B5E20108B5E20108F52002085F
:10010000B5E20108B5E20108FD260208B5E20108E2
:10011000B5E20108CD9D01084D270208298E01088E
:100120003D21020885210208CD210208152202087E
:100130005D220208B5E20108B5E20108B5E2010856
:10014000B5E20108B5E20108B5E20108B5E201082F
:10015000A5220208ED22020835230208DB9D0108D2
:10016000218201082F820108B5E20108B5E20108E9
:10017000B5E20108B5E20108B5E20108B5E20108FF
:10018000B5E20108B5E20108EFBEADDE10B5054CE1
:10019000237833B9044B13B10448AFF30080012333
:1001A000237010BD880A002000000000044A0308E4
:1001B00008B5034B1BB103490348AFF3008008BDEA
:1001C000000000008C0A0020044A030870B50D4EA0
:1001D0000D4D761BB61006D00024013455F8043BB3
:1001E0009847A642F9D1094E094D761B1EF0EAFA4E
:1001F000B61006D00024013455F8043B9847A642B7
:10020000F9D170BD540A0020540A0020800A002051
:10021000540A0020F0B4860743D0541E002A3ED072
:10022000CAB2034602E014F1FF3438D303F8012BBD
:100230009D07F8D1032C2BD9CDB245EA05250F2C0B
:1002400045EA054516D9A4F110073F0903F1200638
:1002500006EB071603F1100242E9045542E9025584
:100260001032B242F8D104F00F040137032C03EB33
:1002700007130DD91E462246043A032A46F8045BAA
:10028000FAD8221F22F003020432134404F00304BC
:100290002CB1C9B21C4403F8011B9C42FBD1F0BC39
:1002A000704714460346C5E7024B13B1024800F0FD
:1002B00005B8704700000000C9020108002301468C
:1002C0001A46184600F022B838B50A4C0A4D641B8D
:1002D000A4100AD004F18043013B05EB8305013CE7
:1002E00055F804399847002CF9D1BDE838401EF084
:1002F0006FBA00BF840A0020800A0020704700BF48
:10030000704700BF704700BF704700BF2DE9F8433A
:100310002B4D0646286898460F469146FFF7F2FF98
:10032000284B1C68D4F84831002B3DD05A681F2A4E
:100330000DDC02F1010C16BB0232C3F804C02868C0
:1003400043F82270FFF7E0FF0020BDE8F8831E4B62
:100350007BB34FF4C8701CF0F1FB034648B3D4F8EC
:1003600048210021C0E900214FF0010CC4F84801E8
:100370000A46C0F88811C0F88C11002EDCD003EBBF
:1003800082010124C1F88890D3F888019440204369
:10039000022EC3F88801C1F80881CDD1D3F88C11A1
:1003A0000C43C3F88C41C7E704F5A673C4F8483181
:1003B000BCE72868FFF7A8FF4FF0FF30C5E700BF94
:1003C00030040020DCE702083DCB020880B485B091
:1003D00000AFF860B9607A603B607B6818461437FC
:1003E000BD465DF8047B704780B485B000AFF8600F
:1003F000B9607A603B60002318461437BD465DF84B
:10040000047B704780B483B000AF78607B68002BBA
:1004100001D1012305E07B680F2B01DD012300E002
:10042000002318460C37BD465DF8047B704700007A
:1004300090B5ABB008AF07F14803C349184600F0C8
:10044000D5FB07F14403C149184600F0CFFB07F183
:100450004003BF49184600F0C9FB07F13C03BD4902
:10046000184600F0C3FB07F12803BB49184604F007
:1004700075F807F11403B949184604F06FF807F14D
:10048000280207F10C031146184600F08AFA07F11A
:1004900014023B1D1146184600F083FAB04B0121AF
:1004A000184609F0F3FEAE4B0021184609F0DAFEBB
:1004B000AC4B0121184609F0E9FEAA4B0021184671
:1004C00009F0D0FEA84B0121184609F0DFFEA64B2B
:1004D0000021184609F0C6FEA34B0021184609F07A
:1004E0007BFE9F4B0021184609F076FE9D4B0021B4
:1004F000184609F071FE9D4B0021184609F06CFE6C
:100500000023C7F884300BF00DFD03460C46C7E905
:100510001E34002387F883309549964801F0E5FEA4
:100520009549944801F0E1FE07F14803184600F0B0
:10053000EFFB03467B6707F14403184600F0E8FB36
:1005400003463B6707F14003184600F0E1FB034612
:10055000FB6607F13C03184600F0DAFB0346BB6676
:10056000814B184609F066FE03467B667C4B1846B5
:1005700009F060FE03463B667A4B184609F05AFEC6
:100580000346FB65794B184609F054FE0346BB65EC
:100590000BF0C8FC03460C46C7E91434BB6D069348
:1005A000FB6D05933B6E04937B6E0393D7F8843009
:1005B0000293BB6E0193FB6E00933B6F7A6F6F49A2
:1005C0006C4801F092FED7F88430092B00F2AB8121
:1005D00001A252F823F000BF01060108A10601089C
:1005E000E9060108A5070108F10701082709010824
:1005F0001708010853080108A5080108E5080108C3
:10060000594B0021184609F0E7FD554B00211846CB
:1006100009F0E2FD534B0021184609F0DDFD534B74
:100620000021184609F0D8FD554805F037FC03466F
:10063000002B02D0012387F8833097F88330002BFA
:1006400000F06A814F494B4801F04FFE07F10C035F
:10065000184600F035FA034687F84C3097F84C30CE
:1006600083F00103DBB2002B09D04749414801F078
:100670003CFE3E4B4549184609F0AEFD4CE197F86B
:100680004C30002B00F04881384B0021184609F00F
:10069000A3FD002387F883300123C7F884303BE1B2
:1006A0003B49344801F021FE2F4B4FF49671184618
:1006B00009F092FDF86EFFF7A5FE0346002B0FD060
:1006C000294B0021184609F087FD3249294801F0DD
:1006D0000CFE0223C7F88430D7E91434C7E91E346E
:1006E000C8200BF0B5FB1EE1204B4FF4C871184633
:1006F00009F072FD4FF4C87227491E4801F0F5FD5C
:100700003B1D184600F0DCF9034687F84D3097F89A
:100710004D301A462149174801F0E7FD97F84D3052
:10072000002B00F0FB80114B0021184609F054FD0E
:100730001B49104801F0D9FD0323C7F88430D7E9DD
:100740001434C7E91E34E9E0D80A0020400B002029
:10075000A80B0020100C0020780C0020C40C0020F6
:10076000140D0020180D0020100D00201C0D00207D
:10077000E0E70208F00E0020FCE7020828E8020883
:10078000300D002070E80208A4E8020870FEFFFFA8
:10079000D4E80208ECE8020814E902083CE902087F
:1007A00058E902086849694801F09FFD68484FF020
:1007B000FF33009300234FF4617243F2C82109F024
:1007C0001DFD64484FF0FF33009301234FF47A720C
:1007D00043F2C82109F012FD5F495C4801F085FD34
:1007E0000423C7F88430D7E91434C7E91E349AE0EB
:1007F0005A484FF0FF33009301234FF4AF724FF488
:10080000487109F0FBFC5649504801F06EFD062383
:10081000C7F8843087E04E484FF0FF330093002341
:100820004FF4617243F2BC4109F0E8FC49484FF0D3
:10083000FF33009301234FF47A7243F2BC4109F075
:10084000DDFC4849414801F050FD0723C7F88430DA
:1008500069E007F10C03184600F032F9034687F807
:100860004E30414B4149184609F0B6FC97F84E30DE
:100870001A463F49354801F038FD97F84E30002BB5
:100880004ED0394B0021184609F0A6FC0823C7F8C2
:100890008430D7E91434C7E91E3436492B4801F0B7
:1008A00024FD3DE02A484FF0FF33009300234FF42E
:1008B0007A72314909F0A2FC26484FF0FF330093C9
:1008C00001234FF47A722C4909F098FC0923C7F8E8
:1008D0008430D7E91434C7E91E3428491B4801F095
:1008E00004FD20E03B1D184600F0EAF8034687F8B7
:1008F0004F301D4B4FF4C871184609F06DFC97F846
:100900004F30002B0ED0184B0021184609F064FC24
:100910000023C7F8843005E000BF04E000BF02E018
:1009200000BF00E000BF14200BF092FAFCE53B1D75
:10093000184600F048F8FFE707F10C03184600F0EE
:1009400042F812F0DBFD00BF84E90208F00E00203F
:10095000140D0020180D002094E90208100D00204D
:10096000DCE902080CEA02081C0D002070FEFFFF03
:1009700048EA020868EA0208C89CFFFFA0EA0208E9
:1009800080B582B000AF786039607B681B68303317
:100990001B683A6802217868984700BF0837BD464F
:1009A00080BD80B483B000AF786039607B683A68FE
:1009B0001A607B6800221A717B6818460C37BD46A6
:1009C0005DF8047B704780B582B000AF78607868CE
:1009D00000F03EF87B6818460837BD4680BD80B5FC
:1009E00082B000AF78607B681B79002B2CD17B68CC
:1009F0001B681B680C331B687A681268104698479E
:100A000003461A68603A12681A4412683032126853
:100A10001968603909680B44184690477B681B6861
:100A20001B680C331B687A681268104698470346A7
:100A30001A685C3A1268134400211846FFF7A0FFB9
:100A40007B6801221A7100E000BF0837BD4680BDF7
:100A500080B483B000AF78607B681B7983F00103BA
:100A6000DBB2002B03D17B6800221A7100E000BFCB
:100A70000C37BD465DF8047B704780B582B000AF8F
:100A800078607868FFF7ABFF7B681B681B680C33E6
:100A90001B687A6812681046984703461A68383A05
:100AA00012681A4412681C321268196838390968C9
:100AB0000B4418469047034618460837BD4680BD8C
:100AC00080B582B000AF78607868FFF7D6FF034644
:100AD000002B0CBF01230023DBB218460837BD46AC
:100AE00080BD80B483B000AF78607B6818460C3757
:100AF000BD465DF8047B704780B483B000AF78607A
:100B00007B6818460C37BD465DF8047B704780B49F
:100B100083B000AF78607B6800229A607B681846DB
:100B20000C37BD465DF8047B704780B582B000AFDE
:100B300078607B689B68002B05D07B689B68786831
:100B40007968032298477B6818460837BD4680BD00
:100B500080B582B000AF78607B681846FFF7E5FF8C
:100B60007B6818460837BD4680BD000080B584B05C
:100B700000AF786000F094FC0346FB607B68DB68A4
:100B80001B6808331B687A68D2681046984703468A
:100B90001A68383A12681A4412681C3212681968C6
:100BA000383909680B44184690470346002B03D098
:100BB0007B68FA681A6012E07B681B68FA68D21AD0
:100BC0007B685A607B685A6813461B0113445B00BC
:100BD0001A46054BA3FB0223DA097B685A6000BF63
:100BE0001037BD4680BD00BFD34D621080B582B0C6
:100BF00000AF78603960102011F0D0FE034619462E
:100C00000A460023136053609360D3607B681960C9
:100C10007B681B6800221A727B681B683A68DA607E
:100C20007B6818460837BD4680BD0000B0B58AB065
:100C300000AF78607B681B681B7A002B61D17B68F2
:100C40001B68DB681B6808331B687A681268D26807
:100C50001046984703461A685C3A12681A441268AC
:100C60003C3214681A685C3A12689D18274B7B6204
:100C70007A6807F11C0307F12401184600F0BFF859
:100C800007F11C0207F10C031146184600F086F923
:100C900007F10C031A4602212846A04707F10C036E
:100CA0001846FFF755FF7B681B68DB681B6810332D
:100CB0001B687A681268D268104698470246136823
:100CC0001B68104698477B681B68DB681B681033FD
:100CD0001B687A681268D268104698470246136803
:100CE00020331B680021104698477B681B6801224F
:100CF0001A7207E007F10C031846FFF729FF12F0FC
:100D0000FDFB00BF2837BD46B0BD00BF6D0B01081D
:100D100080B582B000AF78607868FFF787FF7B68A6
:100D20001B6800221A607B681B68DB681B68103335
:100D30001B687A681268D2681046984702461368A2
:100D400020331B6801211046984701200BF080F8E2
:100D50007B681B68DB681B6810331B687A68126845
:100D6000D268104698470246136820331B6800215A
:100D70001046984718200BF06BF87B681B681B68BF
:100D8000002B0AD07B681B685B68B3F5C87F04D86A
:100D90007B681B685B681BB201E04FF0FF331846AD
:100DA0000837BD4680BD80B483B000AF78607B68F3
:100DB00018460C37BD465DF8047B704780B483B09D
:100DC00000AF78607B6818460C37BD465DF8047B41
:100DD000704780B483B000AF78607B6818460C37EA
:100DE000BD465DF8047B704780B483B000AF786087
:100DF0007B6818460C37BD465DF8047B704790B59C
:100E000085B000AFF860B9607A60B868FFF7D6FFC8
:100E100003461846FFF7DDFF04467868FFF7E4FF56
:100E200003461A462146F86800F021F9F86814379D
:100E3000BD4690BD80B483B000AF78607B68184633
:100E40000C37BD465DF8047B704780B483B000AFBB
:100E500078607B6818460C37BD465DF8047B7047A8
:100E600080B483B000AF78607B6818460C37BD460D
:100E70005DF8047B704780B582B000AF7860786819
:100E8000FFF7EEFF7B6818460837BD4680BD80B48B
:100E900083B000AF78607B6818460C37BD465DF8BC
:100EA000047B704780B582B000AF78607B681846DD
:100EB000FFF7EDFF034618460837BD4680BD80B4F6
:100EC00083B000AF78607B6818460C37BD465DF88C
:100ED000047B704780B582B000AF786039603868B5
:100EE000FFF7EDFF03461A687B681A607B681846B7
:100EF0000837BD4680BD90B583B000AF78603960DB
:100F00007C683868FFF7CEFF03461846FFF7D7FF27
:100F1000034619462046FFF7DDFF7B6818460C376D
:100F2000BD4690BD80B582B000AF786039607B6807
:100F30003A6811461846FFF7DEFF7B681846083707
:100F4000BD4680BD90B583B000AF786039607868E9
:100F5000FFF791FF3B681846FFF76CFF03461A68DE
:100F60007B681A607B681C1D3B6804331846FFF7DA
:100F70006CFF034619462046FFF7D4FF7B681846EE
:100F80000C37BD4690BD80B483B000AF78607B68FD
:100F900018460C37BD465DF8047B704790B583B0AA
:100FA00000AF786039607868FFF7FDFE7B6818460F
:100FB000FFF7ADFD386800F079F80346002B0ED03E
:100FC0007C683868FFF7DFFF03461946204600F0CB
:100FD00078F87B68084ADA607B68084A9A607B6820
:100FE00005E07B681846FFF7A0FD12F087FA184667
:100FF0000C37BD4690BD00BFE71001080511010880
:1010000080B582B000AF786039603868FFF7ECFED9
:1010100003461A687B681A607B6818460837BD4625
:1010200080BD90B583B000AF786039607C68386867
:10103000FFF7DAFE034619462046FFF7E1FF7B681B
:1010400018460C37BD4690BD90B583B000AF7860B0
:1010500039607C683868FFF7C7FE034619462046AA
:10106000FFF7DFFF7B6818460C37BD4690BD90B593
:1010700085B000AFF860B9607A60F868FFF7FBFEF2
:10108000B868FFF7D7FE03461A68FB681A60FB686A
:101090001C1D7868FFF7A8FE034619462046FFF797
:1010A000D3FFFB6818461437BD4690BD80B483B0AB
:1010B00000AF7860012318460C37BD465DF8047B0D
:1010C000704790B585B000AF786039603868FFF739
:1010D0005AFF034622461946786800F060F800BFC0
:1010E0001437BD4690BD80B582B000AF7860786897
:1010F00000F071F80346184600F07CF800BF08378E
:10110000BD4680BDB0B586B000AFF860B96013468B
:10111000FB71FB79032B27D801A252F823F000BF03
:10112000311101083F110108531101085F11010835
:10113000F86800F021F802460E4B136014E0F868DE
:1011400000F068F80446B86800F045F803462360EC
:101150000AE02A46B968F86800F068F804E0214619
:10116000F86800F082F800BF002318461837BD4623
:10117000B0BD00BF0CEB020880B582B000AF786054
:101180007868FFF7AEFC034618460837BD4680BDB9
:1011900080B400AF1846BD465DF8047B7047B0B51B
:1011A00084B000AFF860B9603A71B868FFF7EBFE41
:1011B0000546082011F0F2FB03461C46294620464E
:1011C000FFF7C0FEF86800F025F803461C6000BF7A
:1011D0001037BD46B0BD80B584B000AF7860786888
:1011E00000F054F803461B68FB60FB681846103794
:1011F000BD4680BD90B585B000AF7860FFF7C8FFF1
:1012000007F1080322461946786800F064F814379D
:10121000BD4690BD80B582B000AF78607868FFF7BA
:1012200060FC034618460837BD4680BDB0B584B0A3
:1012300000AFF860B9603A71B86800F027F803466B
:101240001D68082011F0AAFB03461C4623462A46C7
:1012500092E8030083E80300F868FFF7DBFF03462A
:101260001C6000BF1037BD46B0BD80B582B000AF76
:10127000786039707868FFF7CDFF03461B68184621
:1012800011F0AAFB00BF0837BD4680BD80B582B013
:1012900000AF78607868FFF72FFC034618460837E0
:1012A000BD4680BD80B582B000AF78607868FFF73A
:1012B000F9FD034618460837BD4680BD80B582B0AB
:1012C00000AF78607B681846FFF7ECFF03461846CE
:1012D0000837BD4680BD90B587B000AFF860B960F3
:1012E0003A71FB681C68FB6804331846FFF7E6FF99
:1012F000014607F11403BA68184600F007F80346E0
:101300001B681846A0471C37BD4690BD80B584B009
:1013100000AFF860B9607A60B868FFF765FD034612
:1013200018461037BD4680BD80B483B000AF7860EA
:1013300039603B6818460C37BD465DF8047B704742
:1013400080B483B000AF78607B6818460C37BD4628
:101350005DF8047B7047000080B582B000AF786014
:10136000394802F03BF8394802F038F8384802F0C2
:1013700035F8354802F04FF8344802F04CF834485C
:1013800002F049F807F078FD324802F06CF8324874
:1013900003F08AFB314803F0A9FE314803F084FBD7
:1013A0002F4803F033FC00F0E1F82E4803F07CFBFB
:1013B0002C4803F02BFC00212A4803F0C7FC09F05D
:1013C00093F9294B184608F0F9FE284B184608F007
:1013D000F5FE274B184608F0F1FE264B184608F09C
:1013E000EDFE09F08DF9244802F094FD234802F047
:1013F00091FD234802F08EFD224802F08BFD224829
:1014000002F088FD214802F085FD02F065F82048D1
:1014100002F0AAF805F00EF81E4804F0DDFC1E48A4
:1014200004F0DAFC1D4804F061FDC3200AF010FD51
:1014300001210C4803F08AFC05200AF009FD00BFD9
:101440000837BD4680BD00BFD80E0020E00E00204A
:10145000E80E0020C40A0020AC0A0020A80A0020E0
:10146000B40A0020BC0A0020100D0020140D00203A
:10147000180D00201C0D0020D80A0020400B002071
:10148000A80B0020100C0020780C0020C40C0020B9
:10149000B00D0020300D0020600D0020900D0020C8
:1014A00080B500AF07F0D4FC0346184680BD80B578
:1014B00082B000AF786078681BF040FB03461846A6
:1014C0000837BD4680BD80B582B000AF78607868CF
:1014D0001BF03CFB0837BD4680BD000080B582B0E4
:1014E00000AF78600DF026FB084B1B68002B01D184
:1014F0000EF0F8FB054B1B680133044A13600DF036
:1015000043FB00BF0837BD4680BD00BFC80A0020AE
:1015100080B582B000AF7860074B1B68013B064A7C
:101520001360054B1B68002B01D10EF0E9FB00BFD7
:101530000837BD4680BD00BFC80A002080B582B014
:1015400000AF786078681BF0F9FA03461846083750
:10155000BD4680BD80B582B000AF786078681BF072
:10156000F5FA00BF0837BD4680BD000080B500AF6A
:101570000121024803F0EAFB00BF80BDB40A00204D
:1015800080B400AF034B044A1A6000BFBD465DF84B
:10159000047B70473C040020F00E002080B483B030
:1015A00000AF78607B68002B03D0064A7B6813602D
:1015B00002E0044B044A1A6000BF0C37BD465DF8D8
:1015C000047B7047380400203404002080B582B0CA
:1015D00000AF78603960074B1B681B6808331B68D5
:1015E000044A10683A6879689847034618460837ED
:1015F000BD4680BD380400200FB480B582B000AF76
:1016000007F114037B607968386900F009F8034634
:1016100018460837BD46BDE8804004B0704700005A
:1016200080B582B000AF78603960074B1B681B68DB
:1016300008331B68044A10683A687968984703467B
:1016400018460837BD4680BD3C0400200FB480B565
:1016500082B000AF07F114037B607968386900F04D
:1016600017F8034618460837BD46BDE8804004B069
:10167000704780B582B000AF03463960FB71FB79DB
:10168000184607F005FF00BF0837BD4680BD0000C3
:1016900090B593B000AF7860396007F108033A68FD
:1016A0007968184600F020FB104B7B6407F1440278
:1016B00007F108031146184600F09FF807F10803E8
:1016C000184600F044FB044607F10803184600F0F2
:1016D0002CFB234606E007F10803184600F025FB23
:1016E00011F00CFF18464C37BD4690BD731601082B
:1016F00080B584B000AF78600023FB60FB687A6837
:1017000013441B78002B0AD0FB687A6813441B78BB
:10171000184607F0BDFEFB680133FB60EEE700BF33
:101720001037BD4680BD000080B400AF044B4AF6C0
:10173000AA221A6000BFBD465DF8047B704700BF57
:101740000030004080B582B000AF0DF03FFA0023BA
:101750007B60462004F0E3FF7B6803F00103002B6D
:1017600014BF01230023DBB219460F4801F060FECD
:101770007B6803F00103002B0CBF01230023DBB2C5
:1017800019460A4801F054FE7B6803F00203002B5F
:1017900014BF01230023DBB21946054801F048FEBF
:1017A0007B6801337B60D4E7D80E0020E00E002078
:1017B000E80E002080B483B000AF78607B681846E4
:1017C0000C37BD465DF8047B704780B483B000AF32
:1017D00078607B6818460C37BD465DF8047B70471F
:1017E00080B582B000AF78607B681846FFF79DF93E
:1017F0007B6818460837BD4680BD80B586B000AF0F
:10180000786039603868FFF7E0FF03461A6807F12F
:1018100008031146184600F033F807F10803796809
:10182000184600F061F807F108031846FFF7D8FFE3
:101830007B6818461837BD4680BD80B483B000AFC2
:1018400078607B6818460C37BD465DF8047B7047AE
:1018500080B582B000AF78607868FFF7EEFF7B68F4
:1018600018460837BD4680BD80B483B000AF7860AD
:101870007B6818460C37BD465DF8047B7047000056
:1018800090B583B000AF786039607868FFF7E0FF0B
:101890007B681846FFF73BF93B68184600F0A1F853
:1018A0000346002B0FD07C683B461846FFF7DCFF51
:1018B00003461946204600F0A4F87B68084ADA601F
:1018C0007B68084A9A607B6805E07B681846FFF7EA
:1018D0002CF911F013FE18460C37BD4690BD00BF21
:1018E0003D1A0108751A010880B582B000AF786012
:1018F00039607B683A681146184600F021F87B6829
:1019000003F108023B6808331946104600F04AF814
:101910007B6803F10C023B680C331946104600F05B
:10192000EEF800BF0837BD4680BD80B483B000AF7D
:1019300078607B6818460C37BD465DF8047B7047BD
:1019400080B584B000AF786039607868FFF7EDFF4C
:10195000024607F1080392E8030083E803003868B1
:10196000FFF7E3FF02467B6892E8030083E8030089
:1019700007F108031846FFF7D8FF02463B6892E8D4
:10198000030083E8030000BF1037BD4680BD80B46C
:1019900083B000AF78607B6818460C37BD465DF8B1
:1019A000047B704780B584B000AF78603960786898
:1019B000FFF7EDFF03461B68FB603868FFF7E7FFA2
:1019C00003461A687B681A6007F10C031846FFF794
:1019D000DEFF03461A683B681A6000BF1037BD4639
:1019E00080BD80B483B000AF78607B68002B14BFEB
:1019F00001230023DBB218460C37BD465DF8047B9B
:101A0000704790B585B000AF786039603868FFF7EF
:101A10002BFF034622461946786800F08FF800BF76
:101A20001437BD4690BD80B483B000AF78607B684A
:101A300018460C37BD465DF8047B7047B0B584B0DE
:101A400000AFF860B9607A60F86800F092F8034679
:101A50001C68B868FFF7E7FF03461D787868FFF752
:101A6000A9FE03461B6819462846A04700BF103749
:101A7000BD46B0BDB0B586B000AFF860B9601346E2
:101A8000FB71FB79032B27D801A252F823F000BF8A
:101A9000A11A0108AF1A0108C31A0108CF1A0108D8
:101AA000F868FFF769FB02460E4B136014E0F86814
:101AB00000F070F80446B86800F05BF80346236055
:101AC0000AE02A46B968F86800F070F804E0214698
:101AD000F86800F086F800BF002318461837BD46A6
:101AE000B0BD00BFE8EB020880B483B000AF7860FF
:101AF0007B6818460C37BD465DF8047B704780B59F
:101B000084B000AF786039607868FFF7EDFF034676
:101B10001B68FB603868FFF7E7FF03461A687B68BD
:101B20001A6007F10C031846FFF7DEFF03461A6838
:101B30003B681A6000BF1037BD4680BD90B585B0C8
:101B400000AFF860B9603A71B868FFF78DFE0346E0
:101B50001C68F868FEF7C5FF034619460420FFF726
:101B6000E3FB0346002B00D01C6000BF1437BD46CA
:101B700090BD80B584B000AF7860786800F03DF823
:101B80000346184600F045F8F860FB681846103721
:101B9000BD4680BD80B582B000AF78607868FEF742
:101BA000A0FF034618460837BD4680BD90B585B0F6
:101BB00000AFF860B9603A71B86800F01EF80346EB
:101BC0001C68F868FEF78DFF034619460420FFF7EE
:101BD000ABFB0346002B00D01C6000BF1437BD4692
:101BE00090BD80B582B000AF78603970786800F041
:101BF0001BF800BF0837BD4680BD80B582B000AF7E
:101C000078607868FEF778FF034618460837BD46C7
:101C100080BD80B483B000AF78607B6818460C3715
:101C2000BD465DF8047B704780B582B000AF786038
:101C30007868FEF756FF034618460837BD4680BD54
:101C400080B582B000AF786039607B68012B16D117
:101C50003B684FF6FF72934211D10B48FFF770FBC0
:101C600061210A4803F00EFA3721094802F0B4FF57
:101C70005B21084802F0B0FF074801F0E9FB00BF14
:101C80000837BD4680BD00BFA40A0020A80A002076
:101C9000B40A0020BC0A0020C40A002080B500AFAE
:101CA0004FF6FF710120FFF7CBFF80BD80B483B0FA
:101CB00000AF78607B689B68002B0CBF012300237A
:101CC000DBB218460C37BD465DF8047B704780B523
:101CD00082B000AF78607B681846FEF726FF7B680D
:101CE00018460837BD4680BD80B584B000AFF860A7
:101CF000B9607A60FB68184600F0E9F8FB681033B9
:101D0000184600F0FFF8FB68BA681A62FB68002208
:101D10009A62FB680022DA62FB6824337A681A60F0
:101D2000FB6818461037BD4680BD80B582B000AF55
:101D300078607B6810331846FFF7C9FF7B68184648
:101D4000FFF74EFD7B6818460837BD4680BD80B55D
:101D500084B000AF78607B685B6ABB607B68002200
:101D60001A637B681B6ABA681946786800F094FEAB
:101D70000346FB60786800F005F8FB6818461037EA
:101D8000BD4680BD80B582B000AF78607B689B6A3D
:101D9000002B1AD07B681B6B002B16D07B6810338E
:101DA000184600F0BFF80346002B0AD07B6803F109
:101DB00010007B68996A7B681A6B7B689B6B00F0EC
:101DC000D7F87B6800221A6300E000BF0837BD46E1
:101DD00080BD0EB480B585B000AF786007F12003F8
:101DE000FB60FB68FA694FF0FF31786800F031F86A
:101DF000034618461437BD46BDE8804003B070471F
:101E000080B485B000AFF8600B467A60FB72FB6867
:101E10009B68B3F1FF3F07D0FB681B681A68FB683B
:101E20009B68013B9A420ED0FB685B681A68FB68AE
:101E30001B681B681344FA7A1A70FB681B681A68DF
:101E400001321A6000E000BF1437BD465DF8047B24
:101E5000704790B599B000AFF860B9607A603B60A8
:101E600007F118033A6879681846FFF73DFF002329
:101E70007B6107F114037B6507F10C03BB65BB684D
:101E8000FB6507F1540207F118031146184600F0EC
:101E9000A6F807F118031846FFF759FFFA687B699F
:101EA000134400221A707B691C4607F11803184678
:101EB000FFF73BFF234606E007F118031846FFF73C
:101EC00034FF11F01BFB18466437BD4690BD80B54A
:101ED00082B000AF78607868FFF7BAFC7B6818467C
:101EE000FEF715FE7B6818460837BD4680BD80B4F6
:101EF00083B000AF78607B6818460C37BD465DF84C
:101F0000047B704780B582B000AF78607868FFF7D7
:101F1000EEFF7B681846FEF7FAFD7B681846083727
:101F2000BD4680BD80B582B000AF78607B68184642
:101F3000FFF7BCFE034683F00103DBB21846083707
:101F4000BD4680BD80B483B000AF78607B68184622
:101F50000C37BD465DF8047B704780B483B000AF9A
:101F600078607B6818460C37BD465DF8047B704787
:101F70002DE9F04184B000AFF860B9607A603B6051
:101F8000FB681846FFF792FE0346002B01D012F0C3
:101F90007BF8FB68DC68FD6807F108031846FFF76B
:101FA000D1FF06463B1D1846FFF7D7FF80463B464C
:101FB0001846FFF7FFFB0346424631462846A04736
:101FC0001037BD46BDE8F08180B483B000AF7860C3
:101FD0007B6818460C37BD465DF8047B704780B5BA
:101FE00086B000AF786039603868FFF7EDFF0346D0
:101FF00007F108000ECB00F01BF807F10803796821
:102000001846FFF771FC07F108031846FFF7E8FBD5
:102010007B6818461837BD4680BD80B483B000AFDA
:1020200078607B6818460C37BD465DF8047B7047C6
:1020300090B585B000AFF860384680E80E00F868CB
:10204000FFF706FCFB681846FEF761FD3B461846A5
:1020500000F024F80346002B0FD0FC683B461846DE
:10206000FFF7DBFF03461946204600F022F8FB6825
:10207000084ADA60FB68084A9A60FB6805E0FB687A
:102080001846FEF752FD11F039FA18461437BD46CE
:1020900090BD00BFD72001081121010880B483B092
:1020A00000AF7860012318460C37BD465DF8047B0D
:1020B000704790B585B000AF786039603868FFF739
:1020C000ACFF034622461946786800F05BF800BF73
:1020D0001437BD4690BDB0B584B000AFF860B960AC
:1020E0007A60F86800F06BF80546B868FFF79BFC6B
:1020F00003461C787868FFF75DFB03461B681A46A9
:1021000021462846FFF77CFE00BF1037BD46B0BD14
:10211000B0B586B000AFF860B9601346FB71FB79CB
:10212000032B27D801A252F823F000BF3D2101085C
:102130004B2101085F2101086B210108F868FFF7B6
:102140001BF802460E4B136014E0F86800F046F8E6
:102150000446B86800F033F8034623600AE02A46D4
:10216000B968F86800F046F804E02146F86800F025
:102170005FF800BF002318461837BD46B0BD00BF4A
:1021800028EC0208B0B584B000AFF860B9603A71CD
:10219000B868FFF742FF05460C2010F0FFFB03462E
:1021A0001C4623462A4607CA83E80700F86800F061
:1021B00015F803461C6000BF1037BD46B0BD80B5A2
:1021C00084B000AF7860786800F043F803461B687D
:1021D000FB60FB6818461037BD4680BD80B582B0F5
:1021E00000AF78607868FEF77CFC03461846083735
:1021F000BD4680BDB0B584B000AFF860B9603A713B
:10220000B86800F026F803461D680C2010F0C6FBE5
:1022100003461C4623462A4607CA83E80700F86897
:10222000FFF7DCFF03461C6000BF1037BD46B0BDA2
:1022300080B582B000AF786039707868FFF7CEFF64
:1022400003461B68184610F0C7FB00BF0837BD46A1
:1022500080BD80B582B000AF78607868FEF74CFC36
:10226000034618460837BD4680BD80B582B000AF32
:1022700078607B681B6808331B687868984703465A
:1022800018460837BD4680BD80B582B000AF786083
:1022900039607B681B680C331B683968786898471D
:1022A000034618460837BD4680BD80B582B000AFF2
:1022B000786039607B683A681A604FF0FF3138689F
:1022C000FFF7E2FF7B6818460837BD4680BD80B542
:1022D00082B000AF78607B681B681846FFF7C5FFC7
:1022E0007B6818460837BD4680BD0EB480B585B002
:1022F00000AF786007F12003FB607B681B68083340
:102300001B68FA68F96978689847034618461437D5
:10231000BD46BDE8804003B0704780B584B000AFD3
:10232000F8600B467A60FB72FB7A1946786800F019
:1023300049F800BF1037BD4680BD000090B597B08A
:1023400000AFF860B9607A6007F14C031C49184689
:10235000FFF7ABFF07F110037A68B9681846FFF77B
:10236000C3FCFB68BB6407F1500207F11003114680
:10237000184600F048F807F110031846FFF7E7FC8D
:1023800003467B657C6D07F110031846FFF7CDFC13
:1023900007F14C031846FFF79AFF23460CE007F1BC
:1023A00010031846FFF7C1FCFFE707F14C0318467E
:1023B000FFF78DFF11F0A2F818465C37BD4690BDBF
:1023C000CC0A002090B585B000AF78600B46FB705A
:1023D0007B681B681C68F91C4FF0FF33012278688A
:1023E000A0470346FB60FB6818461437BD4690BD06
:1023F00080B483B000AF78607B6818460C37BD4668
:102400005DF8047B704790B587B000AF78603960A5
:102410003868FFF7EDFF07F108032146184600F082
:102420001BF807F1080379681846FFF75DFA07F112
:1024300008031846FFF7D4F97B6818461C37BD46D9
:1024400090BD80B483B000AF78607B6818460C37CD
:10245000BD465DF8047B704790B583B000AF7860EF
:1024600039707868FFF7F4F97B681846FEF74FFB80
:102470003B46184600F024F80346002B0FD07C683A
:102480003B461846FFF7DDFF03461946204600F09D
:1024900022F87B68084ADA607B68084A9A607B68A1
:1024A00005E07B681846FEF740FB11F027F8184658
:1024B0000C37BD4690BD00BFFB240108352501083F
:1024C00080B483B000AF7860012318460C37BD4656
:1024D0005DF8047B704790B585B000AF78603960D7
:1024E0003868FFF7AEFF034622461946786800F0C9
:1024F0005BF800BF1437BD4690BDB0B584B000AFE7
:10250000F860B9607A60F86800F065F80546B86868
:10251000FFF789FA03461C787868FFF74BF9034602
:102520001B681A4621462846FFF7F7FE00BF103702
:10253000BD46B0BDB0B586B000AFF860B960134617
:10254000FB71FB79032B27D801A252F823F000BFBF
:10255000612501086F250108832501088F250108E1
:10256000F868FEF709FE02460E4B136014E0F868A7
:1025700000F042F80446B86800F02DF803462360E6
:102580000AE02A46B968F86800F042F804E02146FB
:10259000F86800F054F800BF002318461837BD460D
:1025A000B0BD00BF80EC020880B584B000AFF86019
:1025B000B9603A71B868FFF744FFF868FEF791FA1E
:1025C000034619460120FEF7AFFE0346002B00BF6D
:1025D0001037BD4680BD80B584B000AF78607868A4
:1025E00000F039F80346184600F041F8F860FB683F
:1025F00018461037BD4680BD80B582B000AF786008
:102600007868FEF76EFA034618460837BD4680BD67
:1026100080B584B000AFF860B9603A71B86800F076
:102620001AF8F868FEF75DFA034619460120FEF72E
:102630007BFE0346002B00BF1037BD4680BD80B532
:1026400082B000AF78603970786800F01BF800BF86
:102650000837BD4680BD80B582B000AF786078682D
:10266000FEF74AFA034618460837BD4680BD80B4D7
:1026700083B000AF78607B6818460C37BD465DF8C4
:10268000047B704780B582B000AF78607868FEF751
:1026900028FA034618460837BD4680BD80B582B08B
:1026A00000AF786039607B68012B0DD13B684FF635
:1026B000FF72934208D10021054809F07BF8054AD2
:1026C0000549034810F0E2FF00BF0837BD4680BD52
:1026D000CC0A00200000002041B8010880B500AFFE
:1026E0004FF6FF710120FFF7D9FF80BD80B582B0A2
:1026F00000AF786039607B68002B07D078683B6852
:10270000D9B27B689B6B1A4600F0DCFA00BF083731
:10271000BD4680BD80B588B000AFF860B9607A6012
:102720003B600023FB612023BB617B68002B20DD25
:1027300000237B61BB683B613B691B78002B06D0A3
:102740007B6901337B613B6901333B61F4E77A6963
:102750007B689A4202DB00237B6003E07A687B6936
:10276000D31A7B603B6803F00203002B01D03023B7
:10277000BB613B6803F00103002B0DD17B68002B8C
:102780000ADDB969F868FFF7B1FFFB690133FB6146
:102790007B68013B7B60F1E7BB681B78002B0CD0AA
:1027A000BB681B781946F868FFF7A0FFFB69013387
:1027B000FB61BB680133BB60EEE77B68002B0ADD81
:1027C000B969F868FFF792FFFB690133FB617B6829
:1027D000013B7B60F1E7FB6918462037BD4680BDB1
:1027E00080B58CB000AFF860B9607A603B600023C0
:1027F0007B6200233B62BB68FB61BB68002B0CD192
:1028000030233B7400237B7407F11001FB6BBA6B20
:10281000F868FFF77FFF03465BE03B68002B0AD0B8
:102820007B680A2B07D1BB68002B04DA01237B628B
:10283000BB685B42FB6107F110030B33FB62FB6A71
:1028400000221A70FB69002B1ED07A68FB69B3FB6B
:10285000F2F102FB01F29B1ABB62BB6A092B04DD99
:102860003B6C3A3BBA6A1344BB62FB6A013BFB62B6
:10287000BB6ADBB23033DAB2FB6A1A707B68FA6982
:10288000B2FBF3F3FB61DDE77B6A002B18D0BB6B77
:10289000002B0FD0FB6B03F00203002B0AD02D217D
:1028A000F868FFF723FF3B6A01333B62BB6B013BD8
:1028B000BB6305E0FB6A013BFB62FB6A2D221A70D9
:1028C000FB6BBA6BF96AF868FFF724FF02463B6AB4
:1028D000134418463037BD4680BD0000B0B590B0F7
:1028E00004AF786187ED020B39617A600023FB62E7
:1028F0003B69092B01DD09233B614FF000024FF0DA
:102900000003D7E9020118F0E5FE0346002B0DD0C5
:102910002D217869FFF7EAFEFB6A0133FB62BB6891
:10292000BB60FB6883F00043FB6009E07B68012B20
:1029300006D120217869FFF7D9FEFB6A0133FB62DB
:10294000524BBB6206237B623B69002B17D03B696D
:102950003B620A23BB623B6A013B3B623B6A002B42
:1029600014BF01230023DBB2002B06D0BA6A134642
:102970009B0013445B00BB62EDE73B697B62D7E9D8
:10298000020118F0CFFE0346FB61F86918F0C6FBA0
:1029900003460C461A462346D7E9020118F070FA9E
:1029A00003460C4625461C46B86A18F0B7FB02469B
:1029B0000B462046294618F01BFC03460C461846D9
:1029C00021464FF00002324B18F012FC03460C4631
:1029D0001846214618F0A6FE0346BB61B9692D4B87
:1029E00083FB01239A10CB17D21A13469B00134482
:1029F0005B00CA1A042A14DDBB69264A82FB031253
:102A00009210DB17D31ABB61BB690133BB61BA6992
:102A1000BB6A9A420DD10023BB61FB690133FB61A4
:102A200007E0BB691B4A82FB03129210DB17D31A23
:102A3000BB616123029300230193002300930023D1
:102A40000A22F9697869FFF7CBFE0246FB6A134454
:102A5000FB622E217869FFF749FEFB6A0133FB62B6
:102A600061230293022301937B6A009300230A22CD
:102A7000B9697869FFF7B4FE0246FB6A1344FB624A
:102A8000FB6A18463037BD46B0BD00BF40420F005C
:102A9000000024406766666680B58EB004AFF860BB
:102AA000B9607A600023FB61BB681B78002B00F0E3
:102AB0000281BB681B78252B40F0EF80BB68013397
:102AC000BB6000233B623B6A7B62BB681B78002BC8
:102AD00000F0F080BB681B78252B00F0DD80BB6820
:102AE0001B782D2B04D1BB680133BB6001233B62F3
:102AF000BB681B78302B07D1BB680133BB603B6AD6
:102B000043F002033B62F3E7BB681B782F2B13DD16
:102B1000BB681B78392B0FDC7A6A13469B00134481
:102B20005B007B62BB681B78303B7A6A13447B6234
:102B3000BB680133BB60E7E7BB681B78732B14D11C
:102B40007B681A1D7A601B68BB61BB69002B01D0D2
:102B5000B96900E05A493B6A7A6AF868FFF7DAFD1A
:102B60000246FB691344FB61A0E0BB681B78642B41
:102B700013D17B681A1D7A601968612302933B6A3E
:102B800001937B6A009301230A22F868FFF728FE6D
:102B90000246FB691344FB6188E0BB681B78782B15
:102BA00003D0BB681B78702B13D17B681A1D7A6029
:102BB0001968612302933B6A01937B6A00930023A7
:102BC0001022F868FFF70CFE0246FB691344FB6114
:102BD0006CE0BB681B78582B13D17B681A1D7A6098
:102BE0001968412302933B6A01937B6A0093002397
:102BF0001022F868FFF7F4FD0246FB691344FB61FD
:102C000054E0BB681B78752B13D17B681A1D7A6062
:102C10001968612302933B6A01937B6A0093002346
:102C20000A22F868FFF7DCFD0246FB691344FB61EA
:102C30003CE0BB681B78662B16D17B68073323F01A
:102C4000070303F108027A6093ED007B3A6A796A20
:102C5000B0EE470AF0EE670AF868FFF73FFE02465B
:102C6000FB691344FB6121E0BB681B78632B1DD11A
:102C70007B681A1D7A601B68DBB23B7500237B758D
:102C800007F114013B6A7A6AF868FFF743FD0246D0
:102C9000FB691344FB6109E000BFBB681B78194660
:102CA000F868FFF723FDFB690133FB61BB68013363
:102CB000BB60F9E600BFFB6918462837BD4680BDFA
:102CC000ACEC0208F0B585B000AFF8600B467A6056
:102CD000FB72FB681846FEF7E9FF0346002B01D0A4
:102CE00011F0D2F9FB68DC68FD6807F10B031846A8
:102CF000FEF799FE06463B1D1846FEF75BFD0346B0
:102D00001A4631462846A0471437BD46F0BD80B468
:102D100083B000AF786039603B681A687B681A60DE
:102D20007B681B68183B1B681A467B6813443A682B
:102D300052681A607B6818460C37BD465DF8047B04
:102D40007047000080B500AF03F020FD0023002293
:102D50004FF4E121064800F0CBFC00230022054996
:102D6000054800F0C5FC0248FEF718FC00BF80BD16
:102D7000F00E002020A10700980D002080B582B041
:102D800000AF7860064800F039FBFFF7DBFF0EF07C
:102D900029FB00200CF098FE00BF0837BD4680BD1F
:102DA000D80E002080B584B004AF4FF4407009F015
:102DB00091F901214FF480000AF0FCFB01214FF44E
:102DC00000100AF0F7FB0D4B01221A600023039359
:102DD00000230293002301930423009300234FF464
:102DE000C872074907480CF0A9FD0346012B0CF0F7
:102DF00035FF00231846BD4680BD00BF080F0020E8
:102E0000B4EC02087D2D010880B500AF054B1B68AE
:102E1000012B02D10448FEF76BFCFEF793FC00BFC8
:102E200080BD00BF080F0020BCEC020880B500AFD9
:102E3000054B1B68012B02D10448FEF759FCFEF735
:102E400081FC00BF80BD00BF080F0020D0EC02084D
:102E500080B500AF054B1B68012B02D10448FEF77B
:102E600047FCFEF76FFC00BF80BD00BF080F0020CD
:102E7000E0EC020880B500AF054B1B68012B02D1C6
:102E80000448FEF735FCFEF75DFC00BF80BD00BFC7
:102E9000080F0020F4EC020880B500AF054B1B685A
:102EA000012B02D10448FEF723FCFEF74BFC00BFC8
:102EB00080BD00BF080F002008ED020880B582B079
:102EC00000AF7860094A7B681A60084A7B681A601C
:102ED000064A7B681A607B68054A11461846FFF768
:102EE00016FF7B6818460837BD4680BDC8ED02084E
:102EF000F4ED020880B582B000AF78607B681B6893
:102F00001C3B1B681A467B6813441846FFF7D6FF24
:102F1000034618460837BD4680BD00BF80B582B065
:102F200000AF7860094A7B681A60084A7B681A60BB
:102F30007B686433064A1A607B684C331846FFF797
:102F4000BDFF7B6818460837BD4680BD04EF020808
:102F500074EF020880B582B000AF78607B681C33E4
:102F60001846FDF7F5FD7B680C331846FDF7F0FDBC
:102F70007B6818460837BD4680BD80B582B000AF7B
:102F800078607B684C331846FFF798FF7B681846DB
:102F90000837BD4680BD000080B582B000AF7860C4
:102FA000054A7B681A607B6818460EF0FFF97B685B
:102FB00018460837BD4680BDF009030880B582B0C9
:102FC00000AF78607868FFF7E7FF78680FF004FDDE
:102FD0007B6818460837BD4680BD80B582B000AF1B
:102FE00078607B6864331846FFF7D6FF7B68503300
:102FF0001846FFF7D1FF7B683C331846FFF7CCFF3C
:103000007B6828331846FFF7C7FF7B6814331846E0
:10301000FFF7C2FF7B681846FFF7BEFF7B681846C4
:103020000837BD4680BD000080B582B000AF786033
:1030300039607B68012B40F093803B684FF6FF724C
:10304000934240F08D800021474801F005F80121AE
:10305000464801F001F80221454801F09DF8454A33
:103060004549434810F012FB0321444801F094F80D
:10307000404A4149414810F009FB0421404800F012
:10308000CBFF05213F4800F0C7FF00213E4807F075
:1030900075F801213D4807F071F802213C4807F01E
:1030A0006DF803213B4807F069F8374A3A4B1A603C
:1030B000364A394B5A60364A374B9A60354A364B56
:1030C000DA600021354802F041FE2A4A344933488B
:1030D00010F0DCFA0121334802F038FE254A30496D
:1030E000304810F0D3FA02212F4802F0E9FE042103
:1030F0002E4800F0ADFA1F4A2D492C4810F0C6FAB0
:103100002C4800F0F0F91B4A2B492A4810F0BEFA6F
:103110002A4800F065FA2A4803F040F9154A29497F
:10312000274810F0B3FA284801F0FBFB114A274961
:10313000254810F0ABFA0021254800F03BF90121A9
:10314000244800F037F90221234800F033F9002128
:10315000224800F07DFA074A1549204810F096FAF7
:1031600000BF0837BD4680BDD80A0020400B0020B4
:10317000A80B0020000000201D2F0108100C0020CB
:10318000780C0020C40C0020100D0020140D00202D
:10319000180D00201C0D0020200D0020300D0020F7
:1031A000552F0108600D0020900D0020980D002083
:1031B000BD2E0108B00D00207B2F0108540E002009
:1031C0005C0E0020DB2F0108D40E00206B490108A3
:1031D000D80E0020E00E0020E80E0020F00E0020A7
:1031E00080B500AF4FF6FF710120FFF71DFF80BDD6
:1031F00080B584B000AF7860104B1B68002B02D103
:103200000E4B0F4A1A600D4B1B68FB600B4B1A6884
:103210007B681344094A1360084B1B6803F58073ED
:10322000084A934204DD084803F02AFA03F0E8F95B
:10323000FB6818461037BD4680BD00BF0C0F00204C
:10324000543200200000022020ED020880B483B038
:1032500000AF78604FF0FF3318460C37BD465DF87D
:10326000047B704780B483B000AF786039603B68FE
:103270004FF400525A60002318460C37BD465DF8E3
:10328000047B704780B483B000AF78600123184698
:103290000C37BD465DF8047B704780B485B000AF45
:1032A000F860B9607A60002318461437BD465DF8AF
:1032B000047B704780B584B000AFF860B9607A6075
:1032C000FB68002B05D10121B86803F0FDF9034626
:1032D00000E0002318461037BD4680BD80B584B09D
:1032E00000AFF860B9607A60FB68012B05D179689E
:1032F000B86800F019F8034600E0002318461037BC
:10330000BD4680BD90B585B000AF064B3C460FCBA7
:1033100007C423803B460E21184600F005F803F051
:103320006FF900BF38ED020880B586B000AF786055
:10333000396000237B6100233B612FE03A693B68E1
:103340009A420ED13A697B69D31AFB60FB68002B65
:1033500021DD7B697A681344F968184603F09CF90B
:1033600019E03B697A6813441B780A2B13D13A6938
:103370007B69D31ABB607B697A681344B9681846C5
:1033800003F08AF902210A4803F086F9BB68013389
:103390007A6913447B613B6901333B613A693B685D
:1033A0009A42CBDD3B6818461837BD4680BD00BF4A
:1033B00058ED020880B582B000AF78600B46FB7014
:1033C0007868FB78044AD35C194601F005FC7B68F9
:1033D00018460837BD4680BD5CED020880B582B056
:1033E00000AF78607B68184601F05EFB7B6818468A
:1033F00001F00CFC00BF0837BD4680BD80B582B02F
:1034000000AF78607B680121184601F09FFC00BF87
:103410000837BD4680BD80B582B000AF78607B685C
:103420000021184601F092FC00BF0837BD4680BD60
:1034300080B582B000AF78600B46FB707B68FA788D
:103440001146184601F082FC00BF0837BD4680BD1A
:1034500080B483B000AF78607B6818460C37BD46F7
:103460005DF8047B704780B582B000AF786009F0EA
:103470002FFCF32009F0EAFC0BF002F809F040FC05
:1034800000BF0837BD4680BD80B582B000AF786010
:1034900039607B68012B0DD13B684FF6FF72934278
:1034A00008D10021054808F085F9054A0549034877
:1034B00010F0ECF800BF0837BD4680BD100F0020AB
:1034C0000000002041B8010880B500AF4FF6FF7141
:1034D0000120FFF7D9FF80BD80B400AF00BFBD461B
:1034E0005DF8047B704780B582B000AF78607B6880
:1034F0001821184601F080FE7B6814331921184604
:1035000001F07AFE7B6828331A21184601F0BAFDD3
:103510007B6834331B21184601F0B4FD7B684033CF
:103520001C21184601F0AEFD7B684C330121184682
:1035300000F08EF87B6864330021184601F056F9DC
:103540007B688C330221184601F07AF87B6806E02C
:103550007B684C331846FFF7B1FC0FF0CFFF1846DD
:103560000837BD4680BD000080B582B000AF7860EE
:103570007B686433184601F079F97B688C3342F23A
:103580001071184601F08EF87B680433184601F07C
:1035900098FA7B681833184601F093FA7B682C334D
:1035A000184601F081FA7B683833184601F07CFA3E
:1035B0007B684433184601F077FA7B6803F14C00CE
:1035C000002300224FF4613100F092F8034803F029
:1035D00044F800BF0837BD4680BD00BF60ED02085B
:1035E00080B582B000AF78607B682E21184601F06C
:1035F000F3FA7B6818460837BD4680BD80B483B0B7
:1036000000AF7860044A7B681A607B6818460C3704
:10361000BD465DF8047B704738EC020880B483B087
:1036200000AF786039603B681A687B681A607B6815
:103630001B68183B1B681A467B6813443A6852683B
:103640001A607B6818460C37BD465DF8047B7047EE
:1036500080B582B000AF78600B46FB707B6818467F
:10366000FFF7CCFF7B681F4A11461846FFF7D6FFCD
:103670001D4A7B681A601C4A7B681A601A4A7B687C
:103680001A607B68181DFB78184ADB0013441B790D
:10369000194601F0A1FA7B6803F10C00FB78134A8C
:1036A000DB0013445B79194601F096FA1420FDF70C
:1036B000FEFE02467B685A617B685B6900221A74D1
:1036C0007B685B69FA781A707B6807E07B68054A5B
:1036D00011461846FFF71BFB0FF010FF184608377E
:1036E000BD4680BDF4ED0208C8ED020874ED020885
:1036F00090B587B002AFF860B9607A603B60FB6854
:103700005B697A689A60FB685B693A68DA60FB68B3
:103710005B69BA685A60FB685B691878FB685B692B
:103720005968FB685B699B68DAB2FB685B69DB68B8
:10373000DCB200230093234605F0D6FB00BF14370C
:10374000BD4690BD80B586B000AFF860B9607A60C4
:103750003B607B68002B01D100230AE0FB685B69BA
:1037600018787A683B68B96805F040FE03467B61CB
:103770007B6918461837BD4680BD80B586B000AF5E
:10378000F860B9607A603B60FB685B6918787A68BA
:103790003B68B96805F050FE03467B617B691846BB
:1037A0001837BD4680BD90B585B002AF78603960EE
:1037B0007B685B693A685A607B685B6918787B68EC
:1037C0005B6959687B685B699B68DAB27B685B6997
:1037D000DB68DCB200230093234605F085FB00BFC5
:1037E0000C37BD4690BD80B582B000AF78607B6875
:1037F0005B691B78184606F091F900BF0837BD4693
:1038000080BD80B582B000AF78607B685B691B7853
:10381000184606F0A5F9034618460837BD4680BD90
:1038200080B582B000AF78607868FFF747FB7868B2
:103830000FF0D2F87B6818460837BD4680BD80B5CA
:1038400082B000AF78607B681B681C3B1B681A461F
:103850007B6813441846FFF7E3FF03461846083712
:10386000BD4680BD80B483B000AF7860044A7B68F9
:103870001A607B6818460C37BD465DF8047B7047BC
:10388000FCF3020880B483B000AF786039603B6815
:103890001A687B681A607B681B68283B1B681A469D
:1038A0007B6813443A6852681A607B6818460C3784
:1038B000BD465DF8047B704780B582B000AF78608C
:1038C00039607B681846FFF7CDFF7B680D4A1146CB
:1038D0001846FFF7D7FF0C4A7B681A600A4A7B68D4
:1038E0001A60094A7B681A607B683A685A607B688C
:1038F0000833396818460DF011FF7B681846083701
:10390000BD4680BDA0F302086CF3020880B483B00A
:1039100000AF78607B68083318460C37BD465DF809
:10392000047B704780B582B000AF78607B681B680D
:103930002C3B1B681A467B6813441846FFF7E6FFCA
:10394000034618460837BD4680BD80B582B000AF3B
:1039500078607B685B681B6808331B687A6852680C
:1039600010469847034618460837BD4680BD80B5C7
:1039700082B000AF78607B681B68143B1B681A46F6
:103980007B6813441846FFF7E0FF034618460837E4
:10399000BD4680BD80B582B000AF78607B685B6853
:1039A0001B680C331B687A685268104698470346B8
:1039B00018460837BD4680BD80B582B000AF78603C
:1039C0007B681B68183B1B681A467B6813441846C3
:1039D000FFF7E0FF034618460837BD4680BD80B5B7
:1039E00082B000AF78607B685B681B6810331B682F
:1039F0007A68526810469847034618460837BD460D
:103A000080BD80B582B000AF78607B681B681C3BCE
:103A10001B681A467B6813441846FFF7E0FF03460D
:103A200018460837BD4680BD80B582B000AF7860CB
:103A30007B685B681B6814331B687A6852681046A1
:103A40009847034618460837BD4680BD80B582B00A
:103A500000AF78607B681B68203B1B681A467B6858
:103A600013441846FFF7E0FF034618460837BD46E3
:103A700080BD80B582B000AF78607B685B681B68F2
:103A800004331B687A6852681046984700BF0837AD
:103A9000BD4680BD80B582B000AF78607B681B6892
:103AA000303B1B681A467B6813441846FFF7E1FF5A
:103AB0000837BD4680BD80B582B000AF78607B68B6
:103AC0005B681B681B687A6852681046984700BF9D
:103AD0000837BD4680BD80B582B000AF78607B6896
:103AE0001B680C3B1B681A467B6813441846FFF79B
:103AF000E2FF0837BD4680BD80B582B000AF786078
:103B00007B685B681B6804331B687A6852681046E0
:103B1000984700BF0837BD4680BD80B582B000AF72
:103B200078607B681B68103B1B681A467B681344EF
:103B30001846FFF7E1FF0837BD4680BD80B483B06B
:103B400000AF78607B6818460C37BD465DF8047B93
:103B5000704780B582B000AF78607868FFF7EEFFFD
:103B6000024613461B68343B1B681344184608374B
:103B7000BD4680BD80B582B000AF78607B681B68B1
:103B8000243B1B681A467B6813441846FFF7E1FF85
:103B9000034618460837BD4680BD80B582B000AFE9
:103BA00078607B68083342F2107118460DF0E0FD32
:103BB00000BF0837BD4680BD80B483B000AF7860D9
:103BC0007B68043318460C37BD465DF8047B7047AC
:103BD00080B582B000AF78607868FFF7EDFF0246ED
:103BE00013461B68583B1B68134418460837BD46EC
:103BF00080BD80B582B000AF78607B681B68143BE5
:103C00001B681A467B6813441846FFF7E1FF03461A
:103C100018460837BD4680BD80B483B000AF7860D9
:103C20007B68183318460C37BD465DF8047B704737
:103C300080B582B000AF78607868FFF7EDFF02468C
:103C400013461B68383B1B68134418460837BD46AB
:103C500080BD80B582B000AF78607B681B68183B80
:103C60001B681A467B6813441846FFF7E1FF0346BA
:103C700018460837BD4680BD80B483B000AF786079
:103C80007B68203318460C37BD465DF8047B7047CF
:103C900080B582B000AF78607868FFF7EDFF02462C
:103CA00013461B68383B1B68134418460837BD464B
:103CB00080BD80B582B000AF78607B681B681C3B1C
:103CC0001B681A467B6813441846FFF7E1FF03465A
:103CD00018460837BD4680BD80B483B000AF786019
:103CE0007B68283318460C37BD465DF8047B704767
:103CF00080B582B000AF78607868FFF7EDFF0246CC
:103D000013461B68383B1B68134418460837BD46EA
:103D100080BD80B582B000AF78607B681B68203BB7
:103D20001B681A467B6813441846FFF7E1FF0346F9
:103D300018460837BD4680BD80B483B000AF7860B8
:103D40007B68343318460C37BD465DF8047B7047FA
:103D500080B582B000AF78607868FFF7EDFF02466B
:103D600013461B68343B1B68134418460837BD468E
:103D700080BD80B582B000AF78607B681B68243B53
:103D80001B681A467B6813441846FFF7E1FF034699
:103D900018460837BD4680BD80B483B000AF786058
:103DA0007B684C3318460C37BD465DF8047B704782
:103DB00080B582B000AF78607B681B682C3B1B68C5
:103DC0001A467B6813441846FFF7E6FF0346184679
:103DD0000837BD4680BD80B483B000AF78607B6893
:103DE0004C3318460C37BD465DF8047B704780B5F0
:103DF00082B000AF78607868FFF7EDFF02461346A7
:103E00001B682C3B1B68134418460837BD4680BD11
:103E100080B582B000AF78607B681B682C3B1B6864
:103E20001A467B6813441846FFF7E1FF034618461D
:103E30000837BD4680BD000080B584B000AFF86093
:103E4000B9601346FB71BB681A68FB681A60FB68AF
:103E50001B68283B1B681A46FB681344BA68526803
:103E60001A60FB68181DFA79294913465B00134450
:103E70005B000B4402331B78194601F0BDF9FB6867
:103E800003F11800FA79224913465B0013445B00E2
:103E90000B4403331B78194600F09EFEFB6803F1C8
:103EA0002000FA791A4913465B0013445B000B4467
:103EB00004331B78194600F08FFEFB6803F12800DD
:103EC000FA79134913465B0013445B000B44053336
:103ED0001B78194600F080FEFB68FA7983F83020E1
:103EE000FB68002283F83120FB6803F13402FB6891
:103EF0001B68283B1B681946FB680B441946104693
:103F0000FFF7DAFCFB6818461037BD4680BD00BFDE
:103F100094EE020880B582B000AF78607B6893F8B9
:103F2000303019460F48FDF767FB7B6808331846A9
:103F300000F0C7FD7B681833184600F0B5FD7B68BC
:103F40002033184600F0B0FD7B682833184600F097
:103F5000ABFD7B681B681B687868984700BF083713
:103F6000BD4680BDB8EE020880B483B000AF786073
:103F70007B68002283F8312000BF0C37BD465DF816
:103F8000047B704780B582B000AF78607B681B68A7
:103F900034331B68786898477B6893F83130012B7D
:103FA0000ED07B682033184600F07EFD7B682833F6
:103FB000184600F079FD7B68012283F8312000E08B
:103FC00000BF0837BD4680BD80B582B000AF7860C5
:103FD0007B681B6834331B68786898477B6893F864
:103FE0003130042B13D07B682033184600F05CFD81
:103FF0007B682833184600F057FD7B683433184639
:10400000FFF7CBFD7B68042283F8312000E000BF7E
:104010000837BD4680BD000080B582B000AF786033
:104020000B46FB707B681846FFF71CFC7B68084951
:10403000FA781846FFF700FF064A7B681A60054ABF
:104040007B681A607B6818460837BD4680BD00BF94
:10405000CCF2020890F2020880B582B000AF78601E
:104060000B46FB707B681846FFF7FCFB7B686433EC
:10407000144A11461846FFF705FC7B681249FA7886
:104080001846FFF7D9FE114A7B681A600F4A7B6811
:104090001A607B6864330E4A1A607B6803F14C0037
:1040A000FA780C4913465B0013445B000B44013360
:1040B0001B78194600F0C4FA7B6818460837BD46DD
:1040C00080BD00BF74F1020864F10208CCF0020860
:1040D0003CF1020894EE020880B582B000AF78602F
:1040E0007B681B6834331B68786898477B6893F853
:1040F0003130022B0BD07B684C3342F210711846E2
:1041000000F0D0FA7B68022283F8312000E000BF83
:104110000837BD4680BD80B582B000AF78607B684F
:104120001B68303B1B681A467B6813441846FFF730
:10413000D3FF0837BD4680BD80B582B000AF786040
:104140007B6893F83130022B04D17B684C331846DE
:1041500000F0B8FA7B68002283F8312000BF0837EE
:10416000BD4680BD80B483B000AF786039603B68E5
:104170001A687B681A607B681B68283B1B681A46B4
:104180007B6813443A6852681A607B6818460C379B
:10419000BD465DF8047B704780B582B000AF7860A3
:1041A0000B46FB707B681846FFF75CFB7B6864334B
:1041B000134A11461846FFF7D5FF7B681149FA7874
:1041C0001846FFF739FE104A7B681A600E4A7B6872
:1041D0001A607B6864330D4A1A607B6803F14C00F7
:1041E000FA780B4913465B0013445B000B441B78C1
:1041F0001946FFF72DFA7B6818460837BD4680BD83
:10420000ACEF02089CEF020804EF020874EF02080A
:1042100094EE020880B582B000AF78607B681B68BE
:1042200034331B687A68104698477B6893F83130BE
:10423000032B0DD07B6803F14C00002300224FF4C8
:10424000E121FFF755FA7B68032283F8312000E073
:1042500000BF0837BD4680BD80B582B000AF786032
:104260007B681B68303B1B681A467B681344184602
:10427000FFF7D0FF0837BD4680BD80B582B000AFE4
:1042800078607B681B682C331B6878689847024607
:10429000136820331B6810469847034618460837B2
:1042A000BD4680BD80B582B000AF78607868FFF70A
:1042B000E4FF024613461B68583B1B68134418462C
:1042C0000837BD4680BD80B582B000AF78607B689E
:1042D0001B68183B1B681A467B6813441846FFF797
:1042E000E1FF034618460837BD4680BD80B582B061
:1042F00000AF78607B681B682C331B687868984730
:104300000246136828331B68104698470346184630
:104310000837BD4680BD80B582B000AF7860786850
:10432000FFF7E4FF024613461B68383B1B68134443
:1043300018460837BD4680BD80B582B000AF7860B2
:104340007B681B681C3B1B681A467B681344184635
:10435000FFF7E1FF034618460837BD4680BD80B52C
:1043600082B000AF78607B681B682C331B6878686C
:104370009847024613682C331B681046984703463B
:1043800018460837BD4680BD80B582B000AF786062
:104390007868FFF7E4FF024613461B68383B1B684A
:1043A000134418460837BD4680BD80B582B000AFC3
:1043B00078607B681B68203B1B681A467B68134447
:1043C0001846FFF7E1FF034618460837BD4680BD93
:1043D00080B582B000AF78607B681B682C331B68A7
:1043E000786898470246136830331B681046984730
:1043F000034618460837BD4680BD80B582B000AF81
:1044000078607868FFF7E4FF024613461B68343B88
:104410001B68134418460837BD4680BD80B582B07E
:1044200000AF78607B681B68243B1B681A467B687A
:1044300013441846FFF7E1FF034618460837BD4608
:1044400080BD80B483B000AF78607B681B6918467C
:104450000C37BD465DF8047B704780B483B000AF75
:1044600078607B681B6918460C37BD465DF8047B95
:104470007047000080B483B000AF7860044A7B6866
:104480001A607B6818460C37BD465DF8047B7047A0
:1044900098F6020880B483B000AF786039603B685A
:1044A0001A687B681A607B681B68283B1B681A4681
:1044B0007B6813443A6852681A607B6818460C3768
:1044C000BD465DF8047B704780B582B000AF786070
:1044D0000B46FB707B681B682C331B687868984719
:1044E00003461833184600F091FB7B681B682C3399
:1044F0001B687868984703461833FA7811461846BF
:1045000000F024FC00BF0837BD4680BD80B582B0F6
:1045100000AF78607B681B682C331B68786898470D
:10452000024613681B681046984700BF0837BD460F
:1045300080BD80B582B000AF78607B681B682C338B
:104540001B68786898470246136804331B68104656
:10455000984700BF0837BD4680BD000080B582B0D7
:1045600000AF786039607B681846FFF783FF7B688F
:10457000104A11461846FFF78DFF0F4A7B681A60F4
:104580000D4A7B681A603B681A1D7B685A603B685D
:1045900003F120027B689A603B6803F128027B6884
:1045A000DA607B683A681A617B6818460837BD464E
:1045B00080BD00BF28F60208F0F5020880B582B081
:1045C00000AF0346FB71FB79042B1DD801A252F802
:1045D00023F000BF09460108E9450108F14501083B
:1045E000F9450108014601080948FDF705F80BE007
:1045F0000848FDF701F807E00748FCF7FDFF03E076
:104600000648FCF7F9FF00BF0837BD4680BD00BF74
:1046100068F7020874F7020880F702088CF70208AE
:1046200080B483B000AF7860044A7B681A607B680E
:1046300018460C37BD465DF8047B7047BCF702088E
:1046400080B582B000AF78600B46FB707B6818467F
:10465000FFF7E6FF114A7B681A607B68181DFB783C
:104660000F4ADB0013441B79194600F0B5FA7B684A
:1046700003F10C00FB780A4ADB0013445B7919460E
:1046800000F0AAFAFB78064A52F833207B685A6198
:104690007B6818460837BD4680BD00BFA4F70208F6
:1046A00050F7020880B582B000AF786039607B684F
:1046B0005B69DBB23968184603F06AF800BF083757
:1046C000BD4680BD80B582B000AF78607B685B6915
:1046D000DBB2184603F0D4F800BF0837BD4680BDF2
:1046E00080B582B000AF786039607B685B69DBB20F
:1046F0003968184603F014F900BF0837BD4680BD7D
:1047000080B586B000AFF8607A603B600B46FB7204
:10471000FB685B69D8B2F97A3B687A6803F02EF9D6
:104720000346FB75FB7D1846FFF748FFFB7D002B1A
:10473000D4BF01230023DBB218461837BD4680BD25
:1047400080B586B000AFF8607A603B600B46FB72C4
:10475000FB685B69D8B2F97A3B687A6803F040F984
:104760000346FB75FB7D1846FFF728FFFB7D002BFA
:10477000D4BF01230023DBB218461837BD4680BDE5
:1047800080B58AB004AFF8607A603B600B46FB727C
:10479000FB685B69D8B2F97ABB6A02937B6A0193C2
:1047A0003B6A00933B687A6803F04EF90346FB7559
:1047B000FB7D1846FFF702FFFB7D002BD4BF0123D2
:1047C0000023DBB218461837BD4680BD80B483B0E5
:1047D00000AF7860044A7B681A607B6818460C3723
:1047E000BD465DF8047B70473CF8020880B582B096
:1047F00000AF78600B46FB707B681846FFF7E6FF5A
:10480000184A7B681A60174A7B681A607B68181D13
:10481000FB78154A9B0013445B78194600F0DCF9DD
:104820007B6803F10C00FB780F4A9B0013449B78D4
:10483000194600F027FC7B6803F11800FB780A4A50
:104840009B001344DB78194600F01CFCFB78064AF9
:1048500012F823301A467B685A627B68184608377C
:10486000BD4680BD28F8020808F8020880B582B06D
:1048700000AF78607B685B6ADBB2382200211846A3
:1048800003F0F4FF786800F03EF800BF0837BD463B
:1048900080BD80B584B000AFF860B9607A60FB6815
:1048A0005B6AD8B27B680022B96804F075F901230D
:1048B00018461037BD4680BD80B584B000AFF860A3
:1048C000B9607A60FB685B6AD8B27B68BA68FF211E
:1048D00004F062F9012318461037BD4680BD80B54B
:1048E00084B000AFF860B9607A603B60FB685B6AD7
:1048F000D8B23B687A68B96804F04EF901231846CB
:104900001037BD4680BD80B582B000AF78607B684F
:104910005B6ADBB2184604F0E5F800BF0837BD4615
:1049200080BD80B582B000AF78604FF40E70FCF7A8
:10493000BEFD02467B681A607B681B6800221A7005
:10494000342002F021FB342002F080FC342002F0FD
:10495000B3FC342002F046FD0121342002F004FEB5
:104960007B6818460837BD4680BD80B582B000AF71
:1049700078607B681B681846FCF7A5FD7B681846C5
:104980000837BD4680BD80B400AF00BFBD465DF8AE
:10499000047B704790B589B000AFF860B9607A6069
:1049A000FB681B6848331C6807F110030C49184664
:1049B00000F0D0FC07F110037A68B968F868A047E6
:1049C00007F110031846FCF7C3F806E007F11003DF
:1049D0001846FCF7BDF80EF091FD2437BD4690BD9A
:1049E0008749010890B585B000AFF860B9607A607A
:1049F0003B60FB681B6848331C683B687A68B96891
:104A0000F868A04700BF1437BD4690BD90B58BB085
:104A100000AFF860B9607A603B60FB681B684833A0
:104A20001C6807F12003394607F13802184600F0E8
:104A3000E6FC07F1200207F110031146184600F0CA
:104A4000A3FD07F110037A68B968F868A04707F179
:104A500010031846FCF77CF806E007F1100318462F
:104A6000FCF776F80EF04AFD2C37BD4690BD90B5A8
:104A700085B000AFF860B9607A60FB681B684833A6
:104A80001C687B680022B968F868A04700BF14372B
:104A9000BD4690BD80B483B000AF786000BF0C37D6
:104AA000BD465DF8047B704780B582B000AF78608A
:104AB0007B681B79184602F067FA00BF0837BD46CD
:104AC00080BD90B589B000AF78607B681B685C3BA7
:104AD0001B681A467B6813441C7907F10C031846BF
:104AE00000F090FD07F10C031A460121204602F068
:104AF00091F807F10C031846FCF72AF87B681B684D
:104B00005C3B1B681A467B6813441B7901211846DD
:104B100002F0C2FA7B681B685C3B1B681A467B6824
:104B200013441B79184602F059FB7B681B685C3BF9
:104B30001B681A467B6813441B79184602F024FA56
:104B400006E007F10C031846FCF702F80EF0D6FC5D
:104B50002437BD4690BD80B582B000AF78607B68D9
:104B60001B683C3B1B681A467B6813441846FFF7DA
:104B7000A8FF0837BD4680BD80B483B000AF786021
:104B8000044A7B681A607B6818460C37BD465DF89E
:104B9000047B70470407030880B485B000AFF86059
:104BA000B9601346FB71BB681A68FB681A60FB6842
:104BB0001B68383B1B681A46FB681344BA68526886
:104BC0001A60FB68FA791A71FB6818461437BD46FB
:104BD0005DF8047B7047000080B582B000AF78605C
:104BE0000B46FB707B681846FFF7C6FF064A7B68DA
:104BF0001A60054A7B681A607B68FA781A717B68CC
:104C000018460837BD4680BDCC06030880B582B083
:104C100000AF78607B681B79184602F017FB7B6851
:104C20001B79184602F048FB7B681B79184602F096
:104C3000D9FB00BF0837BD4680BD80B582B000AF4C
:104C400078607B681B79184602F09CFB7B681B79B7
:104C5000184602F0C7FB00BF0837BD4680BD80B5CF
:104C600082B000AF78607B681B79184602F08AFB3F
:104C70007B681B79184602F0E5FB00BF0837BD468C
:104C800080BD80B582B000AF78607B681B79184624
:104C900002F078FB7B681B79184602F009FC00BF24
:104CA0000837BD4680BD80B582B000AF78607B68B4
:104CB0001B79184602F0CAFA7B681B79184602F085
:104CC0002BFB7B681B79184602F08CFB00BF083772
:104CD000BD4680BD80B582B000AF78607B681B792F
:104CE000184602F0B3FA7B681B79184602F014FBF1
:104CF0007B681B79184602F0A5FB00BF0837BD464C
:104D000080BD80B582B000AF78607B681B791846A3
:104D100002F09CFA7B681B79184602F0FDFA7B686A
:104D20001B79184602F0C4FB00BF0837BD4680BDA2
:104D300080B582B000AF78607B681B79184602F0BE
:104D4000EDFB034618460837BD4680BD80B582B0EE
:104D500000AF78600B46FB707B681B79FA781146D0
:104D6000184602F001FC00BF0837BD4680BD80B583
:104D700082B000AF78607B681B79184602F02CFC8B
:104D800000BF0837BD4680BD80B582B000AF7860F7
:104D90007B681B682C331B687868984700BF08370E
:104DA000BD4680BD80B483B000AF786039603B6899
:104DB0001A687B681A607B681B68383B1B681A4658
:104DC0007B6813443A6852681A607B6818460C374F
:104DD000BD465DF8047B704780B485B000AFF860D5
:104DE000B9601346FB71BB681A68FB681A60FB6800
:104DF0001B685C3B1B681A46FB681344BA68526820
:104E00001A60FB681B68383B1B681A46FB68134432
:104E1000BA6892681A60FB681B68603B1B681A4698
:104E2000FB681344BA68D2681A60FB6818461437E6
:104E3000BD465DF8047B704780B582B000AF7860F6
:104E40000B46FB707B6804331846FFF795FE7B68C2
:104E500004330F49FA781846FFF79EFE7B680D4A27
:104E600011461846FFF79EFF0B4A7B681A607B6865
:104E700004330A4A1A607B680433084A1A60064AF7
:104E80007B681A607B6818460837BD4680BD00BF46
:104E900038050308400503086C040308F8040308F8
:104EA00080B582B000AF78607B681B685C3B1B6894
:104EB0001A467B6813441B79184602F08FF900BF2D
:104EC0000837BD4680BD80B584B000AFF860B960DA
:104ED0007A603B60FB681B685C3B1B681A46FB689A
:104EE00013441B79184602F079F9FB681B685C3B98
:104EF0001B681A46FB68134418797B68002B01D1A4
:104F0000012300E002233A68194601F083FEFB68A2
:104F10001B6840331B68B968F8689847FB681B68D2
:104F20005C3B1B681A46FB6813441B79184602F069
:104F30006DF9FB681B6844331B680021F8689847CB
:104F400000BF1037BD4680BD80B582B000AF78602D
:104F500039603B68012B04D0022B1CD0002B0DD0F4
:104F600026E07B681B685C3B1B681A467B68134421
:104F70001B790021184602F08FF819E07B681B6846
:104F80005C3B1B681A467B6813441B790121184659
:104F900002F082F80CE07B681B685C3B1B681A46D9
:104FA0007B6813441B790221184602F075F800BF94
:104FB00000BF0837BD4680BD80B582B000AF7860C5
:104FC00039607B681B685C3B1B681A467B6813442E
:104FD0001B793968184601F0D3FD0346002B14BF36
:104FE00001230023DBB218460837BD4680BD80B4DC
:104FF00083B000AF786039603B681A687B681A60DC
:105000007B681B68383B1B681A467B6813443A6808
:1050100052681A607B6818460C37BD465DF8047B01
:10502000704780B485B000AFF860B9601346FB717B
:10503000BB681A68FB681A60FB681B684C3B1B68FE
:105040001A46FB681344BA6852681A60FB681B680A
:10505000383B1B681A46FB681344BA6892681A60AA
:10506000FB681B68503B1B681A46FB681344BA6810
:10507000D2681A60FB6818461437BD465DF8047B99
:105080007047000080B582B000AF78600B46FB70BF
:105090007B6804331846FFF76FFD7B6804330F49C4
:1050A000FA781846FFF778FD7B680D4A11461846D6
:1050B000FFF79DFF0B4A7B681A607B6804330A4A3E
:1050C0001A607B680433084A1A60064A7B681A60D3
:1050D0007B6818460837BD4680BD00BFC002030884
:1050E000C8020308080203088002030880B582B0E2
:1050F00000AF78607B681B684C3B1B681A467B6876
:1051000013441B79184601F0DBFB00BF0837BD468E
:1051100080BD80B582B000AF78607B681B684C3B77
:105120001B681A467B6813441B79184601F02CFF54
:1051300000BF0837BD4680BD80B582B000AF786043
:105140007B681B6838331B687868984703465B00A8
:1051500007EE903AF8EEE77A9FED057AC7EE876A98
:10516000F0EE667AB0EE670A0837BD4680BD00BF34
:1051700000801D4580B582B000AF78607B681B68F9
:105180004C3B1B681A467B6813441B79184601F098
:10519000A3FB034618460837BD4680BD80B483B0E4
:1051A00000AF786039603B681A687B681A607B687A
:1051B0001B685C3B1B681A467B6813443A6852685C
:1051C0001A607B681B68383B1B681A467B6813446F
:1051D0003A6892681A607B681B68603B1B681A46D5
:1051E0007B6813443A68D2681A607B6818460C37AB
:1051F000BD465DF8047B704780B582B000AF786033
:105200000B46FB707B6808331846FFF7B5FC7B68DC
:1052100008332249FA781846FFF7BEFC7B68204A1B
:1052200011461846FFF7E3FE7B6804331D4A11461A
:105230001846FFF7B7FD7B6810331B4A1146184626
:10524000FFF7ACFF7B681949FA781846FFF7E9FECB
:105250007B6804331649FA781846FFF7BDFD154AF6
:105260007B681A607B680833134A1A607B680833CE
:10527000114A1A600F4A7B681A60104A7B685A60AC
:105280007B6804330D4A1A607B6810330C4A1A603D
:105290007B6818460837BD4680BD00BF28FB020862
:1052A00030FB020838FB020840FB0208F0FA020853
:1052B00000FB0208E8F8020810FA020884F9020864
:1052C000A0FA020880B582B000AF78607B681B68E6
:1052D0004C3B1B681A467B6813441B79184601F047
:1052E0007DFF7B681B684C3B1B681A467B68134438
:1052F0001B79184601F0E4FA00BF0837BD4680BDAF
:1053000080B582B000AF78607B681B684C3B1B683F
:105310001A467B6813441B79184601F05FFF7B68CF
:105320001B684C3B1B681A467B6813441B79184664
:1053300001F02AFE00BF0837BD4680BD80B483B0AF
:1053400000AF78607B6818460C37BD465DF8047B7B
:105350007047000090B583B000AF7860396078681E
:10536000FBF721FD7B681846FBF7D1FB3B6818462D
:1053700000F07CF90346002B0FD07C683B461846B2
:10538000FFF7DCFF03461946204600F07FF97B68F3
:10539000084ADA607B68084A9A607B6805E07B68A7
:1053A0001846FBF7C2FB0EF0A9F818460C37BD46AD
:1053B00090BD00BFB1560108CD56010880B483B03E
:1053C00000AF78607B6818460C37BD465DF8047BFB
:1053D000704780B483B000AF78607B6818460C37A4
:1053E000BD465DF8047B704780B483B000AF786041
:1053F0007B6818460C37BD465DF8047B704790B556
:1054000085B000AFF860B9607A60B868FFF7D6FF82
:1054100003461846FFF7DDFF04467868FFF7E4FF10
:1054200003461A462146F86800F0C1F9F8681437B7
:10543000BD4690BD80B483B000AF78607B681846ED
:105440000C37BD465DF8047B704780B483B000AF75
:1054500078607B6818460C37BD465DF8047B704762
:1054600080B483B000AF78607B6818460C37BD46C7
:105470005DF8047B704780B582B000AF78607868D3
:10548000FFF7EEFF7B6818460837BD4680BD80B445
:1054900083B000AF78607B6818460C37BD465DF876
:1054A000047B704780B582B000AF78607B68184697
:1054B000FFF7EDFF034618460837BD4680BD80B5AF
:1054C00082B000AF786039603868FCF773F9034642
:1054D0001A687B681A607B6818460837BD4680BD2D
:1054E00090B583B000AF786039607C683868FFF7AA
:1054F000D9FF03461846FCF75DF9034619462046D6
:10550000FFF7DDFF7B6818460C37BD4690BD80B5C0
:1055100082B000AF786039607B683A6811461846FF
:10552000FFF7DEFF7B6818460837BD4680BD90B5A3
:1055300083B000AF786039607868FFF79CFF3B6804
:105540001846FFF777FF03461A687B681A607B6886
:105550001C1D3B6804331846FFF777FF03461946C6
:105560002046FFF7D4FF7B6818460C37BD4690BD38
:1055700080B483B000AF78607B6818460C37BD46B6
:105580005DF8047B7047000090B583B000AF786091
:1055900039607868FBF707FC7B681846FBF7B7FAB9
:1055A000386800F020F90346002B0ED07C6838687C
:1055B000FFF7DEFF03461946204600F01FF97B681F
:1055C000084ADA607B68084A9A607B6805E07B6875
:1055D0001846FBF7AAFA0DF091FF18460C37BD46A6
:1055E00090BD00BF215801084158010880B483B024
:1055F00000AF78607B6818460C37BD465DF8047BC9
:105600007047000090B583B000AF7860397078685B
:10561000FBF7C9FB7B681846FBF779FA3B4618464F
:1056200000F048F90346002B0FD07C683B46184633
:10563000FFF7DCFF03461946204600F046F97B6879
:10564000084ADA607B68084A9A607B6805E07B68F4
:105650001846FBF76AFA0DF051FF18460C37BD46A5
:1056600090BD00BFEF5801080D59010880B483B008
:1056700000AF78607B68002B14BF01230023DBB2EE
:1056800018460C37BD465DF8047B704790B585B071
:1056900000AF786039603868FFF750FE0346224655
:1056A0001946786800F06CF900BF1437BD4690BD0C
:1056B00080B582B000AF7860786800F07CF903466E
:1056C0001B68984700BF0837BD4680BDB0B586B09F
:1056D00000AFF860B9601346FB71FB79032B27D844
:1056E00001A252F823F000BFF9560108075701083C
:1056F0001B57010827570108F868FBF73DFD0246D4
:105700000E4B136014E0F86800F066F90446B868C0
:1057100000F051F9034623600AE02A46B968F868A8
:1057200000F066F904E02146F86800F07CF900BF5B
:10573000002318461837BD46B0BD00BF64070308F4
:1057400080B582B000AF786039603868FFF74CFEF2
:1057500003461A687B681A607B6818460837BD469E
:1057600080BD90B583B000AF786039607C683868E0
:10577000FFF73AFE034619462046FFF7E1FF7B6834
:1057800018460C37BD4690BD90B583B000AF786029
:1057900039607C683868FFF727FE034619462046C3
:1057A000FFF7DFFF7B6818460C37BD4690BD90B50C
:1057B00085B000AFF860B9607A60F868FFF75BFE0B
:1057C000BB681A68FB681A60FB681C1D7868FFF7E5
:1057D0000BFE034619462046FFF7D6FFFB68184626
:1057E0001437BD4690BD80B483B000AF786001230C
:1057F00018460C37BD465DF8047B704790B585B000
:1058000000AF786039603868FFF7B2FE0346224681
:105810001946786800F013F900BF1437BD4690BDF3
:1058200080B582B000AF7860786800F024F9034654
:10583000184600F02FF900BF0837BD4680BD0000B4
:10584000B0B586B000AFF860B9601346FB71FB7964
:10585000032B27D801A252F823F000BF6D5801088E
:105860007B5801088F5801089B580108F868FBF71E
:1058700083FC02460E4B136014E0F86800F01AF93E
:105880000446B86800F0F7F8034623600AE02A46A9
:10589000B968F86800F01AF904E02146F86800F0E9
:1058A00034F900BF002318461837BD46B0BD00BF0D
:1058B0004007030880B483B000AF78600123184626
:1058C0000C37BD465DF8047B704790B585B000AFDE
:1058D000786039603868FFF789FE0346224619462A
:1058E000786800F023F900BF1437BD4690BD80B53D
:1058F00082B000AF7860786800F02FF90346184650
:10590000FFF7C8F800BF0837BD4680BDB0B586B008
:1059100000AFF860B9601346FB71FB79032B27D801
:1059200001A252F823F000BF395901084759010874
:105930005B59010867590108F868FBF71DFC02462E
:105940000E4B136014E0F86800F018F90446B868CC
:1059500000F003F9034623600AE02A46B968F868B4
:1059600000F018F904E02146F86800F02AF900BFB9
:10597000002318461837BD46B0BD00BF38070308DE
:1059800090B585B000AFF860B9603A71B868FFF7BC
:10599000D5FC03461C68F868FBF7A3F803461946D4
:1059A0000420FBF7C1FC0346002B00D01C6000BFA5
:1059B0001437BD4690BD80B584B000AF786078687C
:1059C00000F00BF90346184600F013F9F860FB6885
:1059D00018461037BD4680BD80B582B000AF7860F4
:1059E0007868FBF77EF8034618460837BD4680BD49
:1059F00090B585B000AFF860B9603A71B86800F052
:105A0000ECF803461C68F868FBF76BF80346194688
:105A10000420FBF789FC0346002B00D01C6000BF6C
:105A20001437BD4690BD80B582B000AF7860397044
:105A3000786800F0E9F800BF0837BD4680BDB0B512
:105A400084B000AFF860B9603A71B868FFF790FDB4
:105A5000054608200CF0A2FF03461C4629462046B6
:105A6000FFF765FDF86800F025F803461C6000BFED
:105A70001037BD46B0BD80B584B000AF786078689F
:105A800000F0CEF803461B68FB60FB681846103731
:105A9000BD4680BD90B585B000AF7860FBF778FB60
:105AA00007F1080322461946786800F0DEF814373B
:105AB000BD4690BD80B582B000AF78607868FBF7D6
:105AC00010F8034618460837BD4680BDB0B584B00F
:105AD00000AFF860B9603A71B86800F0A1F8034609
